{
  "_format": "hh-sol-artifact-1",
  "contractName": "NFTBadge",
  "sourceName": "contracts/NFTBadge.sol",
  "abi": [
    {
      "inputs": [],
      "name": "ApprovalCallerNotOwnerNorApproved",
      "type": "error"
    },
    {
      "inputs": [],
      "name": "ApprovalQueryForNonexistentToken",
      "type": "error"
    },
    {
      "inputs": [],
      "name": "ApproveToCaller",
      "type": "error"
    },
    {
      "inputs": [],
      "name": "BalanceQueryForZeroAddress",
      "type": "error"
    },
    {
      "inputs": [],
      "name": "InvalidQueryRange",
      "type": "error"
    },
    {
      "inputs": [],
      "name": "MintERC2309QuantityExceedsLimit",
      "type": "error"
    },
    {
      "inputs": [],
      "name": "MintToZeroAddress",
      "type": "error"
    },
    {
      "inputs": [],
      "name": "MintZeroQuantity",
      "type": "error"
    },
    {
      "inputs": [],
      "name": "OwnerQueryForNonexistentToken",
      "type": "error"
    },
    {
      "inputs": [],
      "name": "OwnershipNotInitializedForExtraData",
      "type": "error"
    },
    {
      "inputs": [],
      "name": "TransferCallerNotOwnerNorApproved",
      "type": "error"
    },
    {
      "inputs": [],
      "name": "TransferFromIncorrectOwner",
      "type": "error"
    },
    {
      "inputs": [],
      "name": "TransferToNonERC721ReceiverImplementer",
      "type": "error"
    },
    {
      "inputs": [],
      "name": "TransferToZeroAddress",
      "type": "error"
    },
    {
      "inputs": [],
      "name": "URIQueryForNonexistentToken",
      "type": "error"
    },
    {
      "anonymous": false,
      "inputs": [
        {
          "indexed": true,
          "internalType": "address",
          "name": "owner",
          "type": "address"
        },
        {
          "indexed": true,
          "internalType": "address",
          "name": "approved",
          "type": "address"
        },
        {
          "indexed": true,
          "internalType": "uint256",
          "name": "tokenId",
          "type": "uint256"
        }
      ],
      "name": "Approval",
      "type": "event"
    },
    {
      "anonymous": false,
      "inputs": [
        {
          "indexed": true,
          "internalType": "address",
          "name": "owner",
          "type": "address"
        },
        {
          "indexed": true,
          "internalType": "address",
          "name": "operator",
          "type": "address"
        },
        {
          "indexed": false,
          "internalType": "bool",
          "name": "approved",
          "type": "bool"
        }
      ],
      "name": "ApprovalForAll",
      "type": "event"
    },
    {
      "anonymous": false,
      "inputs": [
        {
          "indexed": true,
          "internalType": "uint256",
          "name": "fromTokenId",
          "type": "uint256"
        },
        {
          "indexed": false,
          "internalType": "uint256",
          "name": "toTokenId",
          "type": "uint256"
        },
        {
          "indexed": true,
          "internalType": "address",
          "name": "from",
          "type": "address"
        },
        {
          "indexed": true,
          "internalType": "address",
          "name": "to",
          "type": "address"
        }
      ],
      "name": "ConsecutiveTransfer",
      "type": "event"
    },
    {
      "anonymous": false,
      "inputs": [
        {
          "indexed": false,
          "internalType": "uint8",
          "name": "version",
          "type": "uint8"
        }
      ],
      "name": "Initialized",
      "type": "event"
    },
    {
      "anonymous": false,
      "inputs": [
        {
          "indexed": true,
          "internalType": "bytes32",
          "name": "role",
          "type": "bytes32"
        },
        {
          "indexed": true,
          "internalType": "bytes32",
          "name": "previousAdminRole",
          "type": "bytes32"
        },
        {
          "indexed": true,
          "internalType": "bytes32",
          "name": "newAdminRole",
          "type": "bytes32"
        }
      ],
      "name": "RoleAdminChanged",
      "type": "event"
    },
    {
      "anonymous": false,
      "inputs": [
        {
          "indexed": true,
          "internalType": "bytes32",
          "name": "role",
          "type": "bytes32"
        },
        {
          "indexed": true,
          "internalType": "address",
          "name": "account",
          "type": "address"
        },
        {
          "indexed": true,
          "internalType": "address",
          "name": "sender",
          "type": "address"
        }
      ],
      "name": "RoleGranted",
      "type": "event"
    },
    {
      "anonymous": false,
      "inputs": [
        {
          "indexed": true,
          "internalType": "bytes32",
          "name": "role",
          "type": "bytes32"
        },
        {
          "indexed": true,
          "internalType": "address",
          "name": "account",
          "type": "address"
        },
        {
          "indexed": true,
          "internalType": "address",
          "name": "sender",
          "type": "address"
        }
      ],
      "name": "RoleRevoked",
      "type": "event"
    },
    {
      "anonymous": false,
      "inputs": [
        {
          "indexed": true,
          "internalType": "address",
          "name": "from",
          "type": "address"
        },
        {
          "indexed": true,
          "internalType": "address",
          "name": "to",
          "type": "address"
        },
        {
          "indexed": true,
          "internalType": "uint256",
          "name": "tokenId",
          "type": "uint256"
        }
      ],
      "name": "Transfer",
      "type": "event"
    },
    {
      "inputs": [],
      "name": "DEFAULT_ADMIN_ROLE",
      "outputs": [
        {
          "internalType": "bytes32",
          "name": "",
          "type": "bytes32"
        }
      ],
      "stateMutability": "view",
      "type": "function"
    },
    {
      "inputs": [],
      "name": "MINTER_ROLE",
      "outputs": [
        {
          "internalType": "bytes32",
          "name": "",
          "type": "bytes32"
        }
      ],
      "stateMutability": "view",
      "type": "function"
    },
    {
      "inputs": [
        {
          "internalType": "address",
          "name": "to",
          "type": "address"
        },
        {
          "internalType": "uint256",
          "name": "tokenId",
          "type": "uint256"
        }
      ],
      "name": "approve",
      "outputs": [],
      "stateMutability": "nonpayable",
      "type": "function"
    },
    {
      "inputs": [
        {
          "internalType": "address",
          "name": "owner",
          "type": "address"
        }
      ],
      "name": "balanceOf",
      "outputs": [
        {
          "internalType": "uint256",
          "name": "",
          "type": "uint256"
        }
      ],
      "stateMutability": "view",
      "type": "function"
    },
    {
      "inputs": [],
      "name": "baseURI",
      "outputs": [
        {
          "internalType": "string",
          "name": "",
          "type": "string"
        }
      ],
      "stateMutability": "view",
      "type": "function"
    },
    {
      "inputs": [
        {
          "internalType": "uint256",
          "name": "tokenId",
          "type": "uint256"
        }
      ],
      "name": "burn",
      "outputs": [],
      "stateMutability": "nonpayable",
      "type": "function"
    },
    {
      "inputs": [
        {
          "internalType": "string",
          "name": "_URI",
          "type": "string"
        }
      ],
      "name": "changeBaseURI",
      "outputs": [],
      "stateMutability": "nonpayable",
      "type": "function"
    },
    {
      "inputs": [
        {
          "internalType": "uint256",
          "name": "tokenId",
          "type": "uint256"
        }
      ],
      "name": "explicitOwnershipOf",
      "outputs": [
        {
          "components": [
            {
              "internalType": "address",
              "name": "addr",
              "type": "address"
            },
            {
              "internalType": "uint64",
              "name": "startTimestamp",
              "type": "uint64"
            },
            {
              "internalType": "bool",
              "name": "burned",
              "type": "bool"
            },
            {
              "internalType": "uint24",
              "name": "extraData",
              "type": "uint24"
            }
          ],
          "internalType": "struct IERC721AUpgradeable.TokenOwnership",
          "name": "",
          "type": "tuple"
        }
      ],
      "stateMutability": "view",
      "type": "function"
    },
    {
      "inputs": [
        {
          "internalType": "uint256[]",
          "name": "tokenIds",
          "type": "uint256[]"
        }
      ],
      "name": "explicitOwnershipsOf",
      "outputs": [
        {
          "components": [
            {
              "internalType": "address",
              "name": "addr",
              "type": "address"
            },
            {
              "internalType": "uint64",
              "name": "startTimestamp",
              "type": "uint64"
            },
            {
              "internalType": "bool",
              "name": "burned",
              "type": "bool"
            },
            {
              "internalType": "uint24",
              "name": "extraData",
              "type": "uint24"
            }
          ],
          "internalType": "struct IERC721AUpgradeable.TokenOwnership[]",
          "name": "",
          "type": "tuple[]"
        }
      ],
      "stateMutability": "view",
      "type": "function"
    },
    {
      "inputs": [
        {
          "internalType": "uint256",
          "name": "tokenId",
          "type": "uint256"
        }
      ],
      "name": "getApproved",
      "outputs": [
        {
          "internalType": "address",
          "name": "",
          "type": "address"
        }
      ],
      "stateMutability": "view",
      "type": "function"
    },
    {
      "inputs": [
        {
          "internalType": "bytes32",
          "name": "role",
          "type": "bytes32"
        }
      ],
      "name": "getRoleAdmin",
      "outputs": [
        {
          "internalType": "bytes32",
          "name": "",
          "type": "bytes32"
        }
      ],
      "stateMutability": "view",
      "type": "function"
    },
    {
      "inputs": [
        {
          "internalType": "bytes32",
          "name": "role",
          "type": "bytes32"
        },
        {
          "internalType": "address",
          "name": "account",
          "type": "address"
        }
      ],
      "name": "grantRole",
      "outputs": [],
      "stateMutability": "nonpayable",
      "type": "function"
    },
    {
      "inputs": [
        {
          "internalType": "bytes32",
          "name": "role",
          "type": "bytes32"
        },
        {
          "internalType": "address",
          "name": "account",
          "type": "address"
        }
      ],
      "name": "hasRole",
      "outputs": [
        {
          "internalType": "bool",
          "name": "",
          "type": "bool"
        }
      ],
      "stateMutability": "view",
      "type": "function"
    },
    {
      "inputs": [],
      "name": "initialize",
      "outputs": [],
      "stateMutability": "nonpayable",
      "type": "function"
    },
    {
      "inputs": [
        {
          "internalType": "address",
          "name": "owner",
          "type": "address"
        },
        {
          "internalType": "address",
          "name": "operator",
          "type": "address"
        }
      ],
      "name": "isApprovedForAll",
      "outputs": [
        {
          "internalType": "bool",
          "name": "",
          "type": "bool"
        }
      ],
      "stateMutability": "view",
      "type": "function"
    },
    {
      "inputs": [
        {
          "internalType": "address",
          "name": "to",
          "type": "address"
        },
        {
          "internalType": "uint256",
          "name": "quantity",
          "type": "uint256"
        }
      ],
      "name": "mint",
      "outputs": [],
      "stateMutability": "nonpayable",
      "type": "function"
    },
    {
      "inputs": [],
      "name": "name",
      "outputs": [
        {
          "internalType": "string",
          "name": "",
          "type": "string"
        }
      ],
      "stateMutability": "view",
      "type": "function"
    },
    {
      "inputs": [],
      "name": "nextTokenId",
      "outputs": [
        {
          "internalType": "uint256",
          "name": "",
          "type": "uint256"
        }
      ],
      "stateMutability": "view",
      "type": "function"
    },
    {
      "inputs": [
        {
          "internalType": "uint256",
          "name": "tokenId",
          "type": "uint256"
        }
      ],
      "name": "ownerOf",
      "outputs": [
        {
          "internalType": "address",
          "name": "",
          "type": "address"
        }
      ],
      "stateMutability": "view",
      "type": "function"
    },
    {
      "inputs": [
        {
          "internalType": "bytes32",
          "name": "role",
          "type": "bytes32"
        },
        {
          "internalType": "address",
          "name": "account",
          "type": "address"
        }
      ],
      "name": "renounceRole",
      "outputs": [],
      "stateMutability": "nonpayable",
      "type": "function"
    },
    {
      "inputs": [
        {
          "internalType": "bytes32",
          "name": "role",
          "type": "bytes32"
        },
        {
          "internalType": "address",
          "name": "account",
          "type": "address"
        }
      ],
      "name": "revokeRole",
      "outputs": [],
      "stateMutability": "nonpayable",
      "type": "function"
    },
    {
      "inputs": [
        {
          "internalType": "address",
          "name": "from",
          "type": "address"
        },
        {
          "internalType": "address",
          "name": "to",
          "type": "address"
        },
        {
          "internalType": "uint256",
          "name": "tokenId",
          "type": "uint256"
        }
      ],
      "name": "safeTransferFrom",
      "outputs": [],
      "stateMutability": "nonpayable",
      "type": "function"
    },
    {
      "inputs": [
        {
          "internalType": "address",
          "name": "from",
          "type": "address"
        },
        {
          "internalType": "address",
          "name": "to",
          "type": "address"
        },
        {
          "internalType": "uint256",
          "name": "tokenId",
          "type": "uint256"
        },
        {
          "internalType": "bytes",
          "name": "_data",
          "type": "bytes"
        }
      ],
      "name": "safeTransferFrom",
      "outputs": [],
      "stateMutability": "nonpayable",
      "type": "function"
    },
    {
      "inputs": [
        {
          "internalType": "address",
          "name": "operator",
          "type": "address"
        },
        {
          "internalType": "bool",
          "name": "approved",
          "type": "bool"
        }
      ],
      "name": "setApprovalForAll",
      "outputs": [],
      "stateMutability": "nonpayable",
      "type": "function"
    },
    {
      "inputs": [
        {
          "internalType": "bytes4",
          "name": "interfaceId",
          "type": "bytes4"
        }
      ],
      "name": "supportsInterface",
      "outputs": [
        {
          "internalType": "bool",
          "name": "",
          "type": "bool"
        }
      ],
      "stateMutability": "view",
      "type": "function"
    },
    {
      "inputs": [],
      "name": "symbol",
      "outputs": [
        {
          "internalType": "string",
          "name": "",
          "type": "string"
        }
      ],
      "stateMutability": "view",
      "type": "function"
    },
    {
      "inputs": [
        {
          "internalType": "uint256",
          "name": "tokenId",
          "type": "uint256"
        }
      ],
      "name": "tokenURI",
      "outputs": [
        {
          "internalType": "string",
          "name": "",
          "type": "string"
        }
      ],
      "stateMutability": "view",
      "type": "function"
    },
    {
      "inputs": [
        {
          "internalType": "address",
          "name": "owner",
          "type": "address"
        }
      ],
      "name": "tokensOfOwner",
      "outputs": [
        {
          "internalType": "uint256[]",
          "name": "",
          "type": "uint256[]"
        }
      ],
      "stateMutability": "view",
      "type": "function"
    },
    {
      "inputs": [
        {
          "internalType": "address",
          "name": "owner",
          "type": "address"
        },
        {
          "internalType": "uint256",
          "name": "start",
          "type": "uint256"
        },
        {
          "internalType": "uint256",
          "name": "stop",
          "type": "uint256"
        }
      ],
      "name": "tokensOfOwnerIn",
      "outputs": [
        {
          "internalType": "uint256[]",
          "name": "",
          "type": "uint256[]"
        }
      ],
      "stateMutability": "view",
      "type": "function"
    },
    {
      "inputs": [],
      "name": "totalSupply",
      "outputs": [
        {
          "internalType": "uint256",
          "name": "",
          "type": "uint256"
        }
      ],
      "stateMutability": "view",
      "type": "function"
    },
    {
      "inputs": [
        {
          "internalType": "address",
          "name": "from",
          "type": "address"
        },
        {
          "internalType": "address",
          "name": "to",
          "type": "address"
        },
        {
          "internalType": "uint256",
          "name": "tokenId",
          "type": "uint256"
        }
      ],
      "name": "transferFrom",
      "outputs": [],
      "stateMutability": "nonpayable",
      "type": "function"
    }
  ],
  "bytecode": "0x608060405234801561001057600080fd5b50612603806100206000396000f3fe608060405234801561001057600080fd5b50600436106101e55760003560e01c80636c0360eb1161010f578063a217fddf116100a2578063c87b56dd11610071578063c87b56dd1461041f578063d539139314610432578063d547741f14610459578063e985e9c51461046c57600080fd5b8063a217fddf146103d1578063a22cb465146103d9578063b88d4fde146103ec578063c23dc68f146103ff57600080fd5b80638462151c116100de5780638462151c1461038357806391d14854146103a357806395d89b41146103b657806399a2557a146103be57600080fd5b80636c0360eb1461035857806370a082311461036057806375794a3c146103735780638129fc1c1461037b57600080fd5b80632f2ff15d1161018757806342842e0e1161015657806342842e0e146102ff57806342966c68146103125780635bbb2177146103255780636352211e1461034557600080fd5b80632f2ff15d146102b357806336568abe146102c657806339a0c6f9146102d957806340c10f19146102ec57600080fd5b8063095ea7b3116101c3578063095ea7b31461025257806318160ddd1461026757806323b872dd1461027d578063248a9ca31461029057600080fd5b806301ffc9a7146101ea57806306fdde0314610212578063081812fc14610227575b600080fd5b6101fd6101f83660046121ca565b61047f565b60405190151581526020015b60405180910390f35b61021a610490565b6040516102099190612421565b61023a610235366004612190565b61052b565b6040516001600160a01b039091168152602001610209565b6102656102603660046120c5565b610578565b005b61026f610626565b604051908152602001610209565b61026561028b366004611f7b565b610645565b61026f61029e366004612190565b60009081526065602052604090206001015490565b6102656102c13660046121a8565b610822565b6102656102d43660046121a8565b61084c565b6102656102e7366004612202565b6108cf565b6102656102fa3660046120c5565b6108ec565b61026561030d366004611f7b565b610920565b610265610320366004612190565b61093b565b610338610333366004612120565b610949565b60405161020991906123a7565b61023a610353366004612190565b610a3f565b61021a610a4a565b61026f61036e366004611f2f565b610ad8565b61026f610b41565b610265610b50565b610396610391366004611f2f565b610df1565b60405161020991906123e9565b6101fd6103b13660046121a8565b610f1d565b61021a610f48565b6103966103cc3660046120ee565b610f60565b61026f600081565b6102656103e736600461208b565b6110f9565b6102656103fa366004611fb6565b6111a0565b61041261040d366004612190565b6111e4565b6040516102099190612488565b61021a61042d366004612190565b611260565b61026f7f9f2df0fed2c77648de5860a4cc508cd0818c85b8b8a1ab4ceeef8d981c8956a681565b6102656104673660046121a8565b6112e4565b6101fd61047a366004611f49565b611309565b600061048a82611346565b92915050565b606061049a61137b565b60020180546104a890612510565b80601f01602080910402602001604051908101604052809291908181526020018280546104d490612510565b80156105215780601f106104f657610100808354040283529160200191610521565b820191906000526020600020905b81548152906001019060200180831161050457829003601f168201915b5050505050905090565b60006105368261139f565b610553576040516333d1c03960e21b815260040160405180910390fd5b61055b61137b565b60009283526006016020525060409020546001600160a01b031690565b600061058382610a3f565b9050336001600160a01b038216146105bc5761059f8133611309565b6105bc576040516367d9dca160e11b815260040160405180910390fd5b826105c561137b565b6000848152600691909101602052604080822080546001600160a01b0319166001600160a01b0394851617905551849286811692908516917f8c5be1e5ebec7d5bd14f71427d1e84f3dd0314c0f7b2291e5b200ac8c7c3b9259190a4505050565b60008061063161137b565b6001015461063d61137b565b540303919050565b6000610650826113db565b9050836001600160a01b0316816001600160a01b0316146106835760405162a1148160e81b815260040160405180910390fd5b60008061068f84611462565b915091506106b4818761069f3390565b6001600160a01b039081169116811491141790565b6106df576106c28633611309565b6106df57604051632ce44b5f60e11b815260040160405180910390fd5b6001600160a01b03851661070657604051633a954ecd60e21b815260040160405180910390fd5b801561071157600082555b61071961137b565b6001600160a01b038716600090815260059190910160205260409020805460001901905561074561137b565b6001600160a01b03861660008181526005929092016020526040909120805460010190554260a01b17600160e11b1761077c61137b565b60008681526004919091016020526040902055600160e11b83166107eb57600184016107a661137b565b600082815260049190910160205260409020546107e9576107c561137b565b5481146107e957836107d561137b565b600083815260049190910160205260409020555b505b83856001600160a01b0316876001600160a01b031660008051602061258e83398151915260405160405180910390a4505050505050565b60008281526065602052604090206001015461083d8161148a565b6108478383611494565b505050565b6001600160a01b03811633146108c15760405162461bcd60e51b815260206004820152602f60248201527f416363657373436f6e74726f6c3a2063616e206f6e6c792072656e6f756e636560448201526e103937b632b9903337b91039b2b63360891b60648201526084015b60405180910390fd5b6108cb828261151a565b5050565b60006108da8161148a565b6108e660978484611e06565b50505050565b7f9f2df0fed2c77648de5860a4cc508cd0818c85b8b8a1ab4ceeef8d981c8956a66109168161148a565b6108478383611581565b610847838383604051806020016040528060008152506111a0565b610946816001611691565b50565b60608160008167ffffffffffffffff81111561097557634e487b7160e01b600052604160045260246000fd5b6040519080825280602002602001820160405280156109c757816020015b6040805160808101825260008082526020808301829052928201819052606082015282526000199092019101816109935790505b50905060005b828114610a3657610a038686838181106109f757634e487b7160e01b600052603260045260246000fd5b905060200201356111e4565b828281518110610a2357634e487b7160e01b600052603260045260246000fd5b60209081029190910101526001016109cd565b50949350505050565b600061048a826113db565b60978054610a5790612510565b80601f0160208091040260200160405190810160405280929190818152602001828054610a8390612510565b8015610ad05780601f10610aa557610100808354040283529160200191610ad0565b820191906000526020600020905b815481529060010190602001808311610ab357829003601f168201915b505050505081565b60006001600160a01b038216610b01576040516323d3ad8160e21b815260040160405180910390fd5b67ffffffffffffffff610b1261137b565b6005016000846001600160a01b03166001600160a01b0316815260200190815260200160002054169050919050565b6000610b4b6117f9565b905090565b6000805160206125ae83398151915254610100900460ff16610b85576000805160206125ae8339815191525460ff1615610b89565b303b155b610bfb5760405162461bcd60e51b815260206004820152603760248201527f455243373231415f5f496e697469616c697a61626c653a20636f6e747261637460448201527f20697320616c726561647920696e697469616c697a656400000000000000000060648201526084016108b8565b6000805160206125ae83398151915254610100900460ff16158015610c37576000805160206125ae833981519152805461ffff19166101011790555b600054610100900460ff1615808015610c575750600054600160ff909116105b80610c715750303b158015610c71575060005460ff166001145b610cd45760405162461bcd60e51b815260206004820152602e60248201527f496e697469616c697a61626c653a20636f6e747261637420697320616c72656160448201526d191e481a5b9a5d1a585b1a5e995960921b60648201526084016108b8565b6000805460ff191660011790558015610cf7576000805461ff0019166101001790555b610d3c604051806040016040528060088152602001674e4654426164676560c01b8152506040518060400160405280600381526020016227232160e91b815250611809565b610d44611847565b610d4c611847565b610d54611885565b610d5f600033611494565b610d897f9f2df0fed2c77648de5860a4cc508cd0818c85b8b8a1ab4ceeef8d981c8956a633611494565b8015610dcf576000805461ff0019169055604051600181527f7f26b83ff96e1f2b6a682f133852f6798a09c465da95921460cefb38474024989060200160405180910390a15b50801561094657506000805160206125ae833981519152805461ff0019169055565b60606000806000610e0185610ad8565b905060008167ffffffffffffffff811115610e2c57634e487b7160e01b600052604160045260246000fd5b604051908082528060200260200182016040528015610e55578160200160208202803683370190505b509050610e8260408051608081018252600080825260208201819052918101829052606081019190915290565b60005b838614610f1157610e95816118f0565b9150816040015115610ea657610f09565b81516001600160a01b031615610ebb57815194505b876001600160a01b0316856001600160a01b03161415610f095780838780600101985081518110610efc57634e487b7160e01b600052603260045260246000fd5b6020026020010181815250505b600101610e85565b50909695505050505050565b60009182526065602090815260408084206001600160a01b0393909316845291905290205460ff1690565b6060610f5261137b565b60030180546104a890612510565b6060818310610f8257604051631960ccad60e11b815260040160405180910390fd5b600080610f8d6117f9565b905080841115610f9b578093505b6000610fa687610ad8565b905084861015610fc55785850381811015610fbf578091505b50610fc9565b5060005b60008167ffffffffffffffff811115610ff257634e487b7160e01b600052604160045260246000fd5b60405190808252806020026020018201604052801561101b578160200160208202803683370190505b5090508161102e5793506110f292505050565b6000611039886111e4565b90506000816040015161104a575080515b885b88811415801561105c5750848714155b156110e65761106a816118f0565b925082604001511561107b576110de565b82516001600160a01b03161561109057825191505b8a6001600160a01b0316826001600160a01b031614156110de57808488806001019950815181106110d157634e487b7160e01b600052603260045260246000fd5b6020026020010181815250505b60010161104c565b50505092835250909150505b9392505050565b6001600160a01b0382163314156111235760405163b06307db60e01b815260040160405180910390fd5b8061112c61137b565b336000818152600792909201602090815260408084206001600160a01b03881680865290835293819020805460ff19169515159590951790945592518415158152919290917f17307eab39ab6107e8899845ad3d59bd9653f200f220920489ca2b5937696c31910160405180910390a35050565b6111ab848484610645565b6001600160a01b0383163b156108e6576111c784848484611937565b6108e6576040516368d2bf6b60e11b815260040160405180910390fd5b60408051608080820183526000808352602080840182905283850182905260608085018390528551938401865282845290830182905293820181905292810192909252906112306117f9565b831061123c5792915050565b611245836118f0565b90508060400151156112575792915050565b6110f283611a2e565b606061126b8261139f565b61128857604051630a14c4b560e41b815260040160405180910390fd5b6000611292611a63565b90508051600014156112b357604051806020016040528060008152506110f2565b806112bd84611a72565b6040516020016112ce9291906122c6565b6040516020818303038152906040529392505050565b6000828152606560205260409020600101546112ff8161148a565b610847838361151a565b600061131361137b565b6001600160a01b039384166000908152600791909101602090815260408083209490951682529290925250205460ff1690565b60006001600160e01b03198216637965db0b60e01b148061048a57506301ffc9a760e01b6001600160e01b031983161461048a565b7f2569078dfb4b0305704d3008e7403993ae9601b85f7ae5e742de3de8f8011c4090565b60006113a961137b565b548210801561048a5750600160e01b6113c061137b565b60008481526004919091016020526040902054161592915050565b6000816113e661137b565b548110156114495760006113f861137b565b600083815260049190910160205260409020549050600160e01b8116611447575b806110f25761142661137b565b60001990920160008181526004939093016020526040909220549050611419565b505b604051636f96cda160e11b815260040160405180910390fd5b600080600061146f61137b565b60009485526006016020525050604090912080549092909150565b6109468133611ac1565b61149e8282610f1d565b6108cb5760008281526065602090815260408083206001600160a01b03851684529091529020805460ff191660011790556114d63390565b6001600160a01b0316816001600160a01b0316837f2f8788117e7eff1d82e926ec794901d17c78024a50270940304540a733656f0d60405160405180910390a45050565b6115248282610f1d565b156108cb5760008281526065602090815260408083206001600160a01b0385168085529252808320805460ff1916905551339285917ff6391f5c32d9c69d2a47ea670b442974b53935d1edc7fd64eb21e047a839171b9190a45050565b600061158b61137b565b549050816115ac5760405163b562e8dd60e01b815260040160405180910390fd5b6801000000000000000182026115c061137b565b6001600160a01b038516600081815260059290920160205260409091208054929092019091554260a01b6001841460e11b17176115fb61137b565b600083815260049190910160205260408120919091556001600160a01b03841690838301908390839060008051602061258e8339815191528180a4600183015b818114611661578083600060008051602061258e833981519152600080a460010161163b565b508161167f57604051622e076360e81b815260040160405180910390fd5b8061168861137b565b55506108479050565b600061169c836113db565b9050806000806116ab86611462565b9150915084156116eb576116c081843361069f565b6116eb576116ce8333611309565b6116eb57604051632ce44b5f60e11b815260040160405180910390fd5b80156116f657600082555b6fffffffffffffffffffffffffffffffff61170f61137b565b6001600160a01b038516600081815260059290920160205260409091208054929092019091554260a01b17600360e01b1761174861137b565b60008881526004919091016020526040902055600160e11b84166117b7576001860161177261137b565b600082815260049190910160205260409020546117b55761179161137b565b5481146117b557846117a161137b565b600083815260049190910160205260409020555b505b60405186906000906001600160a01b0386169060008051602061258e833981519152908390a46117e561137b565b600190810180549091019055505050505050565b600061180361137b565b54919050565b6000805160206125ae83398151915254610100900460ff1661183d5760405162461bcd60e51b81526004016108b890612434565b6108cb8282611b25565b6000805160206125ae83398151915254610100900460ff1661187b5760405162461bcd60e51b81526004016108b890612434565b611883611ba8565b565b600054610100900460ff166118835760405162461bcd60e51b815260206004820152602b60248201527f496e697469616c697a61626c653a20636f6e7472616374206973206e6f74206960448201526a6e697469616c697a696e6760a81b60648201526084016108b8565b60408051608081018252600080825260208201819052918101829052606081019190915261048a61191f61137b565b60008481526004919091016020526040902054611bdc565b604051630a85bd0160e11b81526000906001600160a01b0385169063150b7a029061196c90339089908890889060040161236a565b602060405180830381600087803b15801561198657600080fd5b505af19250505080156119b6575060408051601f3d908101601f191682019092526119b3918101906121e6565b60015b611a11573d8080156119e4576040519150601f19603f3d011682016040523d82523d6000602084013e6119e9565b606091505b508051611a09576040516368d2bf6b60e11b815260040160405180910390fd5b805181602001fd5b6001600160e01b031916630a85bd0160e11b149050949350505050565b60408051608081018252600080825260208201819052918101829052606081019190915261048a611a5e836113db565b611bdc565b6060609780546104a890612510565b604080516080810191829052607f0190826030600a8206018353600a90045b8015611aaf57600183039250600a81066030018353600a9004611a91565b50819003601f19909101908152919050565b611acb8282610f1d565b6108cb57611ae3816001600160a01b03166014611c24565b611aee836020611c24565b604051602001611aff9291906122f5565b60408051601f198184030181529082905262461bcd60e51b82526108b891600401612421565b6000805160206125ae83398151915254610100900460ff16611b595760405162461bcd60e51b81526004016108b890612434565b81611b6261137b565b6002019080519060200190611b78929190611e8a565b5080611b8261137b565b6003019080519060200190611b98929190611e8a565b506000611ba361137b565b555050565b6000805160206125ae83398151915254610100900460ff166118835760405162461bcd60e51b81526004016108b890612434565b604080516080810182526001600160a01b038316815260a083901c67ffffffffffffffff166020820152600160e01b831615159181019190915260e89190911c606082015290565b60606000611c338360026124ae565b611c3e906002612496565b67ffffffffffffffff811115611c6457634e487b7160e01b600052604160045260246000fd5b6040519080825280601f01601f191660200182016040528015611c8e576020820181803683370190505b509050600360fc1b81600081518110611cb757634e487b7160e01b600052603260045260246000fd5b60200101906001600160f81b031916908160001a905350600f60fb1b81600181518110611cf457634e487b7160e01b600052603260045260246000fd5b60200101906001600160f81b031916908160001a9053506000611d188460026124ae565b611d23906001612496565b90505b6001811115611db7576f181899199a1a9b1b9c1cb0b131b232b360811b85600f1660108110611d6557634e487b7160e01b600052603260045260246000fd5b1a60f81b828281518110611d8957634e487b7160e01b600052603260045260246000fd5b60200101906001600160f81b031916908160001a90535060049490941c93611db0816124f9565b9050611d26565b5083156110f25760405162461bcd60e51b815260206004820181905260248201527f537472696e67733a20686578206c656e67746820696e73756666696369656e7460448201526064016108b8565b828054611e1290612510565b90600052602060002090601f016020900481019282611e345760008555611e7a565b82601f10611e4d5782800160ff19823516178555611e7a565b82800160010185558215611e7a579182015b82811115611e7a578235825591602001919060010190611e5f565b50611e86929150611efe565b5090565b828054611e9690612510565b90600052602060002090601f016020900481019282611eb85760008555611e7a565b82601f10611ed157805160ff1916838001178555611e7a565b82800160010185558215611e7a579182015b82811115611e7a578251825591602001919060010190611ee3565b5b80821115611e865760008155600101611eff565b80356001600160a01b0381168114611f2a57600080fd5b919050565b600060208284031215611f40578081fd5b6110f282611f13565b60008060408385031215611f5b578081fd5b611f6483611f13565b9150611f7260208401611f13565b90509250929050565b600080600060608486031215611f8f578081fd5b611f9884611f13565b9250611fa660208501611f13565b9150604084013590509250925092565b60008060008060808587031215611fcb578081fd5b611fd485611f13565b9350611fe260208601611f13565b925060408501359150606085013567ffffffffffffffff80821115612005578283fd5b818701915087601f830112612018578283fd5b81358181111561202a5761202a612561565b604051601f8201601f19908116603f0116810190838211818310171561205257612052612561565b816040528281528a602084870101111561206a578586fd5b82602086016020830137918201602001949094529598949750929550505050565b6000806040838503121561209d578182fd5b6120a683611f13565b9150602083013580151581146120ba578182fd5b809150509250929050565b600080604083850312156120d7578182fd5b6120e083611f13565b946020939093013593505050565b600080600060608486031215612102578283fd5b61210b84611f13565b95602085013595506040909401359392505050565b60008060208385031215612132578182fd5b823567ffffffffffffffff80821115612149578384fd5b818501915085601f83011261215c578384fd5b81358181111561216a578485fd5b8660208260051b850101111561217e578485fd5b60209290920196919550909350505050565b6000602082840312156121a1578081fd5b5035919050565b600080604083850312156121ba578182fd5b82359150611f7260208401611f13565b6000602082840312156121db578081fd5b81356110f281612577565b6000602082840312156121f7578081fd5b81516110f281612577565b60008060208385031215612214578182fd5b823567ffffffffffffffff8082111561222b578384fd5b818501915085601f83011261223e578384fd5b81358181111561224c578485fd5b86602082850101111561217e578485fd5b600081518084526122758160208601602086016124cd565b601f01601f19169290920160200192915050565b80516001600160a01b0316825260208082015167ffffffffffffffff169083015260408082015115159083015260609081015162ffffff16910152565b600083516122d88184602088016124cd565b8351908301906122ec8183602088016124cd565b01949350505050565b7f416363657373436f6e74726f6c3a206163636f756e742000000000000000000081526000835161232d8160178501602088016124cd565b7001034b99036b4b9b9b4b733903937b6329607d1b601791840191820152835161235e8160288401602088016124cd565b01602801949350505050565b6001600160a01b038581168252841660208201526040810183905260806060820181905260009061239d9083018461225d565b9695505050505050565b6020808252825182820181905260009190848201906040850190845b81811015610f11576123d6838551612289565b92840192608092909201916001016123c3565b6020808252825182820181905260009190848201906040850190845b81811015610f1157835183529284019291840191600101612405565b6020815260006110f2602083018461225d565b60208082526034908201527f455243373231415f5f496e697469616c697a61626c653a20636f6e7472616374604082015273206973206e6f7420696e697469616c697a696e6760601b606082015260800190565b6080810161048a8284612289565b600082198211156124a9576124a961254b565b500190565b60008160001904831182151516156124c8576124c861254b565b500290565b60005b838110156124e85781810151838201526020016124d0565b838111156108e65750506000910152565b6000816125085761250861254b565b506000190190565b600181811c9082168061252457607f821691505b6020821081141561254557634e487b7160e01b600052602260045260246000fd5b50919050565b634e487b7160e01b600052601160045260246000fd5b634e487b7160e01b600052604160045260246000fd5b6001600160e01b03198116811461094657600080fdfeddf252ad1be2c89b69c2b068fc378daa952ba7f163c4a11628f55a4df523b3efee151c8401928dc223602bb187aff91b9a56c7cae5476ef1b3287b085a16c85fa26469706673582212200607bf86f482c6b16af0f133502c7989aa66411dfc70bd9ff41222a7dbf0562864736f6c63430008040033",
  "linkReferences": {},
  "deployedLinkReferences": {}
}