{
  "_format": "hh-sol-artifact-1",
  "contractName": "NFTBadge",
  "sourceName": "contracts/NFTBadge.sol",
  "abi": [
    {
      "inputs": [],
      "name": "ApprovalCallerNotOwnerNorApproved",
      "type": "error"
    },
    {
      "inputs": [],
      "name": "ApprovalQueryForNonexistentToken",
      "type": "error"
    },
    {
      "inputs": [],
      "name": "ApproveToCaller",
      "type": "error"
    },
    {
      "inputs": [],
      "name": "BalanceQueryForZeroAddress",
      "type": "error"
    },
    {
      "inputs": [],
      "name": "InvalidQueryRange",
      "type": "error"
    },
    {
      "inputs": [],
      "name": "MintERC2309QuantityExceedsLimit",
      "type": "error"
    },
    {
      "inputs": [],
      "name": "MintToZeroAddress",
      "type": "error"
    },
    {
      "inputs": [],
      "name": "MintZeroQuantity",
      "type": "error"
    },
    {
      "inputs": [],
      "name": "OwnerQueryForNonexistentToken",
      "type": "error"
    },
    {
      "inputs": [],
      "name": "OwnershipNotInitializedForExtraData",
      "type": "error"
    },
    {
      "inputs": [],
      "name": "TransferCallerNotOwnerNorApproved",
      "type": "error"
    },
    {
      "inputs": [],
      "name": "TransferFromIncorrectOwner",
      "type": "error"
    },
    {
      "inputs": [],
      "name": "TransferToNonERC721ReceiverImplementer",
      "type": "error"
    },
    {
      "inputs": [],
      "name": "TransferToZeroAddress",
      "type": "error"
    },
    {
      "inputs": [],
      "name": "URIQueryForNonexistentToken",
      "type": "error"
    },
    {
      "anonymous": false,
      "inputs": [
        {
          "indexed": true,
          "internalType": "address",
          "name": "owner",
          "type": "address"
        },
        {
          "indexed": true,
          "internalType": "address",
          "name": "approved",
          "type": "address"
        },
        {
          "indexed": true,
          "internalType": "uint256",
          "name": "tokenId",
          "type": "uint256"
        }
      ],
      "name": "Approval",
      "type": "event"
    },
    {
      "anonymous": false,
      "inputs": [
        {
          "indexed": true,
          "internalType": "address",
          "name": "owner",
          "type": "address"
        },
        {
          "indexed": true,
          "internalType": "address",
          "name": "operator",
          "type": "address"
        },
        {
          "indexed": false,
          "internalType": "bool",
          "name": "approved",
          "type": "bool"
        }
      ],
      "name": "ApprovalForAll",
      "type": "event"
    },
    {
      "anonymous": false,
      "inputs": [
        {
          "indexed": true,
          "internalType": "uint256",
          "name": "fromTokenId",
          "type": "uint256"
        },
        {
          "indexed": false,
          "internalType": "uint256",
          "name": "toTokenId",
          "type": "uint256"
        },
        {
          "indexed": true,
          "internalType": "address",
          "name": "from",
          "type": "address"
        },
        {
          "indexed": true,
          "internalType": "address",
          "name": "to",
          "type": "address"
        }
      ],
      "name": "ConsecutiveTransfer",
      "type": "event"
    },
    {
      "anonymous": false,
      "inputs": [
        {
          "indexed": false,
          "internalType": "uint8",
          "name": "version",
          "type": "uint8"
        }
      ],
      "name": "Initialized",
      "type": "event"
    },
    {
      "anonymous": false,
      "inputs": [
        {
          "indexed": true,
          "internalType": "address",
          "name": "to",
          "type": "address"
        },
        {
          "indexed": true,
          "internalType": "address",
          "name": "nftAddress",
          "type": "address"
        },
        {
          "indexed": true,
          "internalType": "uint256",
          "name": "tokenId",
          "type": "uint256"
        },
        {
          "indexed": false,
          "internalType": "string",
          "name": "uri",
          "type": "string"
        }
      ],
      "name": "MintNFT",
      "type": "event"
    },
    {
      "anonymous": false,
      "inputs": [
        {
          "indexed": true,
          "internalType": "bytes32",
          "name": "role",
          "type": "bytes32"
        },
        {
          "indexed": true,
          "internalType": "bytes32",
          "name": "previousAdminRole",
          "type": "bytes32"
        },
        {
          "indexed": true,
          "internalType": "bytes32",
          "name": "newAdminRole",
          "type": "bytes32"
        }
      ],
      "name": "RoleAdminChanged",
      "type": "event"
    },
    {
      "anonymous": false,
      "inputs": [
        {
          "indexed": true,
          "internalType": "bytes32",
          "name": "role",
          "type": "bytes32"
        },
        {
          "indexed": true,
          "internalType": "address",
          "name": "account",
          "type": "address"
        },
        {
          "indexed": true,
          "internalType": "address",
          "name": "sender",
          "type": "address"
        }
      ],
      "name": "RoleGranted",
      "type": "event"
    },
    {
      "anonymous": false,
      "inputs": [
        {
          "indexed": true,
          "internalType": "bytes32",
          "name": "role",
          "type": "bytes32"
        },
        {
          "indexed": true,
          "internalType": "address",
          "name": "account",
          "type": "address"
        },
        {
          "indexed": true,
          "internalType": "address",
          "name": "sender",
          "type": "address"
        }
      ],
      "name": "RoleRevoked",
      "type": "event"
    },
    {
      "anonymous": false,
      "inputs": [
        {
          "indexed": true,
          "internalType": "address",
          "name": "from",
          "type": "address"
        },
        {
          "indexed": true,
          "internalType": "address",
          "name": "to",
          "type": "address"
        },
        {
          "indexed": true,
          "internalType": "uint256",
          "name": "tokenId",
          "type": "uint256"
        }
      ],
      "name": "Transfer",
      "type": "event"
    },
    {
      "inputs": [],
      "name": "BURNER_ROLE",
      "outputs": [
        {
          "internalType": "bytes32",
          "name": "",
          "type": "bytes32"
        }
      ],
      "stateMutability": "view",
      "type": "function"
    },
    {
      "inputs": [],
      "name": "DEFAULT_ADMIN_ROLE",
      "outputs": [
        {
          "internalType": "bytes32",
          "name": "",
          "type": "bytes32"
        }
      ],
      "stateMutability": "view",
      "type": "function"
    },
    {
      "inputs": [],
      "name": "MINTER_ROLE",
      "outputs": [
        {
          "internalType": "bytes32",
          "name": "",
          "type": "bytes32"
        }
      ],
      "stateMutability": "view",
      "type": "function"
    },
    {
      "inputs": [
        {
          "internalType": "address",
          "name": "to",
          "type": "address"
        },
        {
          "internalType": "uint256",
          "name": "tokenId",
          "type": "uint256"
        }
      ],
      "name": "approve",
      "outputs": [],
      "stateMutability": "nonpayable",
      "type": "function"
    },
    {
      "inputs": [
        {
          "internalType": "address",
          "name": "owner",
          "type": "address"
        }
      ],
      "name": "balanceOf",
      "outputs": [
        {
          "internalType": "uint256",
          "name": "",
          "type": "uint256"
        }
      ],
      "stateMutability": "view",
      "type": "function"
    },
    {
      "inputs": [],
      "name": "baseURI",
      "outputs": [
        {
          "internalType": "string",
          "name": "",
          "type": "string"
        }
      ],
      "stateMutability": "view",
      "type": "function"
    },
    {
      "inputs": [
        {
          "internalType": "uint256",
          "name": "tokenId",
          "type": "uint256"
        }
      ],
      "name": "burn",
      "outputs": [],
      "stateMutability": "nonpayable",
      "type": "function"
    },
    {
      "inputs": [
        {
          "internalType": "string",
          "name": "_URI",
          "type": "string"
        }
      ],
      "name": "changeBaseURI",
      "outputs": [],
      "stateMutability": "nonpayable",
      "type": "function"
    },
    {
      "inputs": [
        {
          "internalType": "uint256",
          "name": "tokenId",
          "type": "uint256"
        }
      ],
      "name": "explicitOwnershipOf",
      "outputs": [
        {
          "components": [
            {
              "internalType": "address",
              "name": "addr",
              "type": "address"
            },
            {
              "internalType": "uint64",
              "name": "startTimestamp",
              "type": "uint64"
            },
            {
              "internalType": "bool",
              "name": "burned",
              "type": "bool"
            },
            {
              "internalType": "uint24",
              "name": "extraData",
              "type": "uint24"
            }
          ],
          "internalType": "struct IERC721AUpgradeable.TokenOwnership",
          "name": "",
          "type": "tuple"
        }
      ],
      "stateMutability": "view",
      "type": "function"
    },
    {
      "inputs": [
        {
          "internalType": "uint256[]",
          "name": "tokenIds",
          "type": "uint256[]"
        }
      ],
      "name": "explicitOwnershipsOf",
      "outputs": [
        {
          "components": [
            {
              "internalType": "address",
              "name": "addr",
              "type": "address"
            },
            {
              "internalType": "uint64",
              "name": "startTimestamp",
              "type": "uint64"
            },
            {
              "internalType": "bool",
              "name": "burned",
              "type": "bool"
            },
            {
              "internalType": "uint24",
              "name": "extraData",
              "type": "uint24"
            }
          ],
          "internalType": "struct IERC721AUpgradeable.TokenOwnership[]",
          "name": "",
          "type": "tuple[]"
        }
      ],
      "stateMutability": "view",
      "type": "function"
    },
    {
      "inputs": [
        {
          "internalType": "uint256",
          "name": "tokenId",
          "type": "uint256"
        }
      ],
      "name": "getApproved",
      "outputs": [
        {
          "internalType": "address",
          "name": "",
          "type": "address"
        }
      ],
      "stateMutability": "view",
      "type": "function"
    },
    {
      "inputs": [
        {
          "internalType": "bytes32",
          "name": "role",
          "type": "bytes32"
        }
      ],
      "name": "getRoleAdmin",
      "outputs": [
        {
          "internalType": "bytes32",
          "name": "",
          "type": "bytes32"
        }
      ],
      "stateMutability": "view",
      "type": "function"
    },
    {
      "inputs": [
        {
          "internalType": "bytes32",
          "name": "role",
          "type": "bytes32"
        },
        {
          "internalType": "address",
          "name": "account",
          "type": "address"
        }
      ],
      "name": "grantRole",
      "outputs": [],
      "stateMutability": "nonpayable",
      "type": "function"
    },
    {
      "inputs": [
        {
          "internalType": "bytes32",
          "name": "role",
          "type": "bytes32"
        },
        {
          "internalType": "address",
          "name": "account",
          "type": "address"
        }
      ],
      "name": "hasRole",
      "outputs": [
        {
          "internalType": "bool",
          "name": "",
          "type": "bool"
        }
      ],
      "stateMutability": "view",
      "type": "function"
    },
    {
      "inputs": [],
      "name": "initialize",
      "outputs": [],
      "stateMutability": "nonpayable",
      "type": "function"
    },
    {
      "inputs": [
        {
          "internalType": "address",
          "name": "owner",
          "type": "address"
        },
        {
          "internalType": "address",
          "name": "operator",
          "type": "address"
        }
      ],
      "name": "isApprovedForAll",
      "outputs": [
        {
          "internalType": "bool",
          "name": "",
          "type": "bool"
        }
      ],
      "stateMutability": "view",
      "type": "function"
    },
    {
      "inputs": [
        {
          "internalType": "address",
          "name": "to",
          "type": "address"
        },
        {
          "internalType": "uint256",
          "name": "quantity",
          "type": "uint256"
        }
      ],
      "name": "mint",
      "outputs": [],
      "stateMutability": "nonpayable",
      "type": "function"
    },
    {
      "inputs": [
        {
          "internalType": "address",
          "name": "to",
          "type": "address"
        },
        {
          "internalType": "string[]",
          "name": "uris",
          "type": "string[]"
        }
      ],
      "name": "mintCustomURI",
      "outputs": [],
      "stateMutability": "nonpayable",
      "type": "function"
    },
    {
      "inputs": [],
      "name": "name",
      "outputs": [
        {
          "internalType": "string",
          "name": "",
          "type": "string"
        }
      ],
      "stateMutability": "view",
      "type": "function"
    },
    {
      "inputs": [],
      "name": "nextTokenId",
      "outputs": [
        {
          "internalType": "uint256",
          "name": "",
          "type": "uint256"
        }
      ],
      "stateMutability": "view",
      "type": "function"
    },
    {
      "inputs": [
        {
          "internalType": "uint256",
          "name": "tokenId",
          "type": "uint256"
        }
      ],
      "name": "ownerOf",
      "outputs": [
        {
          "internalType": "address",
          "name": "",
          "type": "address"
        }
      ],
      "stateMutability": "view",
      "type": "function"
    },
    {
      "inputs": [
        {
          "internalType": "bytes32",
          "name": "role",
          "type": "bytes32"
        },
        {
          "internalType": "address",
          "name": "account",
          "type": "address"
        }
      ],
      "name": "renounceRole",
      "outputs": [],
      "stateMutability": "nonpayable",
      "type": "function"
    },
    {
      "inputs": [
        {
          "internalType": "bytes32",
          "name": "role",
          "type": "bytes32"
        },
        {
          "internalType": "address",
          "name": "account",
          "type": "address"
        }
      ],
      "name": "revokeRole",
      "outputs": [],
      "stateMutability": "nonpayable",
      "type": "function"
    },
    {
      "inputs": [
        {
          "internalType": "address",
          "name": "from",
          "type": "address"
        },
        {
          "internalType": "address",
          "name": "to",
          "type": "address"
        },
        {
          "internalType": "uint256",
          "name": "tokenId",
          "type": "uint256"
        }
      ],
      "name": "safeTransferFrom",
      "outputs": [],
      "stateMutability": "nonpayable",
      "type": "function"
    },
    {
      "inputs": [
        {
          "internalType": "address",
          "name": "from",
          "type": "address"
        },
        {
          "internalType": "address",
          "name": "to",
          "type": "address"
        },
        {
          "internalType": "uint256",
          "name": "tokenId",
          "type": "uint256"
        },
        {
          "internalType": "bytes",
          "name": "_data",
          "type": "bytes"
        }
      ],
      "name": "safeTransferFrom",
      "outputs": [],
      "stateMutability": "nonpayable",
      "type": "function"
    },
    {
      "inputs": [
        {
          "internalType": "address",
          "name": "operator",
          "type": "address"
        },
        {
          "internalType": "bool",
          "name": "approved",
          "type": "bool"
        }
      ],
      "name": "setApprovalForAll",
      "outputs": [],
      "stateMutability": "nonpayable",
      "type": "function"
    },
    {
      "inputs": [
        {
          "internalType": "bytes4",
          "name": "interfaceId",
          "type": "bytes4"
        }
      ],
      "name": "supportsInterface",
      "outputs": [
        {
          "internalType": "bool",
          "name": "",
          "type": "bool"
        }
      ],
      "stateMutability": "view",
      "type": "function"
    },
    {
      "inputs": [],
      "name": "symbol",
      "outputs": [
        {
          "internalType": "string",
          "name": "",
          "type": "string"
        }
      ],
      "stateMutability": "view",
      "type": "function"
    },
    {
      "inputs": [
        {
          "internalType": "uint256",
          "name": "tokenId",
          "type": "uint256"
        }
      ],
      "name": "tokenURI",
      "outputs": [
        {
          "internalType": "string",
          "name": "",
          "type": "string"
        }
      ],
      "stateMutability": "view",
      "type": "function"
    },
    {
      "inputs": [
        {
          "internalType": "address",
          "name": "owner",
          "type": "address"
        }
      ],
      "name": "tokensOfOwner",
      "outputs": [
        {
          "internalType": "uint256[]",
          "name": "",
          "type": "uint256[]"
        }
      ],
      "stateMutability": "view",
      "type": "function"
    },
    {
      "inputs": [
        {
          "internalType": "address",
          "name": "owner",
          "type": "address"
        },
        {
          "internalType": "uint256",
          "name": "start",
          "type": "uint256"
        },
        {
          "internalType": "uint256",
          "name": "stop",
          "type": "uint256"
        }
      ],
      "name": "tokensOfOwnerIn",
      "outputs": [
        {
          "internalType": "uint256[]",
          "name": "",
          "type": "uint256[]"
        }
      ],
      "stateMutability": "view",
      "type": "function"
    },
    {
      "inputs": [],
      "name": "totalSupply",
      "outputs": [
        {
          "internalType": "uint256",
          "name": "",
          "type": "uint256"
        }
      ],
      "stateMutability": "view",
      "type": "function"
    },
    {
      "inputs": [
        {
          "internalType": "address",
          "name": "from",
          "type": "address"
        },
        {
          "internalType": "address",
          "name": "to",
          "type": "address"
        },
        {
          "internalType": "uint256",
          "name": "tokenId",
          "type": "uint256"
        }
      ],
      "name": "transferFrom",
      "outputs": [],
      "stateMutability": "nonpayable",
      "type": "function"
    }
  ],
  "bytecode": "0x608060405234801561001057600080fd5b50612a6a806100206000396000f3fe608060405234801561001057600080fd5b50600436106101fb5760003560e01c80636352211e1161011a57806399a2557a116100ad578063c23dc68f1161007c578063c23dc68f1461044f578063c87b56dd1461046f578063d539139314610482578063d547741f14610497578063e985e9c5146104aa57600080fd5b806399a2557a1461040e578063a217fddf14610421578063a22cb46514610429578063b88d4fde1461043c57600080fd5b80638129fc1c116100e95780638129fc1c146103cb5780638462151c146103d357806391d14854146103f357806395d89b411461040657600080fd5b80636352211e146103955780636c0360eb146103a857806370a08231146103b057806375794a3c146103c357600080fd5b80632f2ff15d1161019257806342842e0e1161016157806342842e0e1461033c57806342966c681461034f5780635bbb21771461036257806361a460011461038257600080fd5b80632f2ff15d146102f057806336568abe1461030357806339a0c6f91461031657806340c10f191461032957600080fd5b806318160ddd116101ce57806318160ddd1461027d57806323b872dd14610293578063248a9ca3146102a6578063282c51f3146102c957600080fd5b806301ffc9a71461020057806306fdde0314610228578063081812fc1461023d578063095ea7b314610268575b600080fd5b61021361020e3660046125c8565b6104bd565b60405190151581526020015b60405180910390f35b6102306104ce565b60405161021f919061281d565b61025061024b36600461258e565b610569565b6040516001600160a01b03909116815260200161021f565b61027b6102763660046124c4565b6105b6565b005b610285610664565b60405190815260200161021f565b61027b6102a1366004612303565b610683565b6102856102b436600461258e565b60009081526097602052604090206001015490565b6102857f3c11d16cbaffd01df69ce1c404f6340ee057498f5f00246190ea54220576a84881565b61027b6102fe3660046125a6565b610861565b61027b6103113660046125a6565b61088b565b61027b610324366004612600565b61090e565b61027b6103373660046124c4565b61092b565b61027b61034a366004612303565b61094d565b61027b61035d36600461258e565b610968565b61037561037036600461251f565b610976565b60405161021f91906127a3565b61027b6103903660046123b6565b610a6b565b6102506103a336600461258e565b610baf565b610230610bba565b6102856103be3660046122b7565b610c48565b610285610cb0565b61027b610cbf565b6103e66103e13660046122b7565b610f56565b60405161021f91906127e5565b6102136104013660046125a6565b611081565b6102306110ac565b6103e661041c3660046124ed565b6110c4565b610285600081565b61027b61043736600461248a565b61125c565b61027b61044a36600461233e565b611303565b61046261045d36600461258e565b611347565b60405161021f9190612884565b61023061047d36600461258e565b6113c3565b6102856000805160206129d583398151915281565b61027b6104a53660046125a6565b6113ce565b6102136104b83660046122d1565b6113f3565b60006104c882611430565b92915050565b60606104d8611465565b60020180546104e69061293c565b80601f01602080910402602001604051908101604052809291908181526020018280546105129061293c565b801561055f5780601f106105345761010080835404028352916020019161055f565b820191906000526020600020905b81548152906001019060200180831161054257829003601f168201915b5050505050905090565b600061057482611489565b610591576040516333d1c03960e21b815260040160405180910390fd5b610599611465565b60009283526006016020525060409020546001600160a01b031690565b60006105c182610baf565b9050336001600160a01b038216146105fa576105dd81336113f3565b6105fa576040516367d9dca160e11b815260040160405180910390fd5b82610603611465565b6000848152600691909101602052604080822080546001600160a01b0319166001600160a01b0394851617905551849286811692908516917f8c5be1e5ebec7d5bd14f71427d1e84f3dd0314c0f7b2291e5b200ac8c7c3b9259190a4505050565b60008061066f611465565b6001015461067b611465565b540303919050565b600061068e826114c5565b9050836001600160a01b0316816001600160a01b0316146106c15760405162a1148160e81b815260040160405180910390fd5b6000806106cd8461154c565b915091506106f281876106dd3390565b6001600160a01b039081169116811491141790565b61071d5761070086336113f3565b61071d57604051632ce44b5f60e11b815260040160405180910390fd5b6001600160a01b03851661074457604051633a954ecd60e21b815260040160405180910390fd5b801561074f57600082555b610757611465565b6001600160a01b0387166000908152600591909101602052604090208054600019019055610783611465565b6001600160a01b03861660008181526005929092016020526040909120805460010190554260a01b17600160e11b176107ba611465565b60008681526004919091016020526040902055600160e11b831661082957600184016107e4611465565b6000828152600491909101602052604090205461082757610803611465565b5481146108275783610813611465565b600083815260049190910160205260409020555b505b83856001600160a01b0316876001600160a01b03166000805160206129f583398151915260405160405180910390a45b505050505050565b60008281526097602052604090206001015461087c81611574565b610886838361157e565b505050565b6001600160a01b03811633146109005760405162461bcd60e51b815260206004820152602f60248201527f416363657373436f6e74726f6c3a2063616e206f6e6c792072656e6f756e636560448201526e103937b632b9903337b91039b2b63360891b60648201526084015b60405180910390fd5b61090a8282611604565b5050565b600061091981611574565b61092560c98484612118565b50505050565b6000805160206129d583398151915261094381611574565b610886838361166b565b61088683838360405180602001604052806000815250611303565b61097381600161177b565b50565b6060816000816001600160401b038111156109a157634e487b7160e01b600052604160045260246000fd5b6040519080825280602002602001820160405280156109f357816020015b6040805160808101825260008082526020808301829052928201819052606082015282526000199092019101816109bf5790505b50905060005b828114610a6257610a2f868683818110610a2357634e487b7160e01b600052603260045260246000fd5b90506020020135611347565b828281518110610a4f57634e487b7160e01b600052603260045260246000fd5b60209081029190910101526001016109f9565b50949350505050565b6000805160206129d5833981519152610a8381611574565b6000825111610ac45760405162461bcd60e51b815260206004820152600d60248201526c105c9c985e481a5cc81b9d5b1b609a1b60448201526064016108f7565b81516000610ad06118e3565b9050610adc858361166b565b60005b8281101561085957610b21610af482846128c2565b868381518110610b1457634e487b7160e01b600052603260045260246000fd5b60200260200101516118f3565b610b2b81836128c2565b306001600160a01b0316876001600160a01b03167fdd0b9935e351491b3e0a77967a93070d884b69ed697c36fa59d144db1f593c17888581518110610b8057634e487b7160e01b600052603260045260246000fd5b6020026020010151604051610b95919061281d565b60405180910390a480610ba781612977565b915050610adf565b60006104c8826114c5565b60c98054610bc79061293c565b80601f0160208091040260200160405190810160405280929190818152602001828054610bf39061293c565b8015610c405780601f10610c1557610100808354040283529160200191610c40565b820191906000526020600020905b815481529060010190602001808311610c2357829003601f168201915b505050505081565b60006001600160a01b038216610c71576040516323d3ad8160e21b815260040160405180910390fd5b6001600160401b03610c81611465565b6005016000846001600160a01b03166001600160a01b0316815260200190815260200160002054169050919050565b6000610cba6118e3565b905090565b600080516020612a1583398151915254610100900460ff16610cf457600080516020612a158339815191525460ff1615610cf8565b303b155b610d6a5760405162461bcd60e51b815260206004820152603760248201527f455243373231415f5f496e697469616c697a61626c653a20636f6e747261637460448201527f20697320616c726561647920696e697469616c697a656400000000000000000060648201526084016108f7565b600080516020612a1583398151915254610100900460ff16158015610da657600080516020612a15833981519152805461ffff19166101011790555b600054610100900460ff1615808015610dc65750600054600160ff909116105b80610de05750303b158015610de0575060005460ff166001145b610e435760405162461bcd60e51b815260206004820152602e60248201527f496e697469616c697a61626c653a20636f6e747261637420697320616c72656160448201526d191e481a5b9a5d1a585b1a5e995960921b60648201526084016108f7565b6000805460ff191660011790558015610e66576000805461ff0019166101001790555b610eab604051806040016040528060088152602001674e4654426164676560c01b8152506040518060400160405280600381526020016227232160e91b81525061197f565b610eb36119bd565b610ebb611a2a565b610ec3611a2a565b610ecb6119bd565b610ed660003361157e565b610eee6000805160206129d58339815191523361157e565b8015610f34576000805461ff0019169055604051600181527f7f26b83ff96e1f2b6a682f133852f6798a09c465da95921460cefb38474024989060200160405180910390a15b5080156109735750600080516020612a15833981519152805461ff0019169055565b60606000806000610f6685610c48565b90506000816001600160401b03811115610f9057634e487b7160e01b600052604160045260246000fd5b604051908082528060200260200182016040528015610fb9578160200160208202803683370190505b509050610fe660408051608081018252600080825260208201819052918101829052606081019190915290565b60005b83861461107557610ff981611a66565b915081604001511561100a5761106d565b81516001600160a01b03161561101f57815194505b876001600160a01b0316856001600160a01b0316141561106d578083878060010198508151811061106057634e487b7160e01b600052603260045260246000fd5b6020026020010181815250505b600101610fe9565b50909695505050505050565b60009182526097602090815260408084206001600160a01b0393909316845291905290205460ff1690565b60606110b6611465565b60030180546104e69061293c565b60608183106110e657604051631960ccad60e11b815260040160405180910390fd5b6000806110f16118e3565b9050808411156110ff578093505b600061110a87610c48565b9050848610156111295785850381811015611123578091505b5061112d565b5060005b6000816001600160401b0381111561115557634e487b7160e01b600052604160045260246000fd5b60405190808252806020026020018201604052801561117e578160200160208202803683370190505b5090508161119157935061125592505050565b600061119c88611347565b9050600081604001516111ad575080515b885b8881141580156111bf5750848714155b15611249576111cd81611a66565b92508260400151156111de57611241565b82516001600160a01b0316156111f357825191505b8a6001600160a01b0316826001600160a01b03161415611241578084888060010199508151811061123457634e487b7160e01b600052603260045260246000fd5b6020026020010181815250505b6001016111af565b50505092835250909150505b9392505050565b6001600160a01b0382163314156112865760405163b06307db60e01b815260040160405180910390fd5b8061128f611465565b336000818152600792909201602090815260408084206001600160a01b03881680865290835293819020805460ff19169515159590951790945592518415158152919290917f17307eab39ab6107e8899845ad3d59bd9653f200f220920489ca2b5937696c31910160405180910390a35050565b61130e848484610683565b6001600160a01b0383163b156109255761132a84848484611aad565b610925576040516368d2bf6b60e11b815260040160405180910390fd5b60408051608080820183526000808352602080840182905283850182905260608085018390528551938401865282845290830182905293820181905292810192909252906113936118e3565b831061139f5792915050565b6113a883611a66565b90508060400151156113ba5792915050565b61125583611ba5565b60606104c882611bda565b6000828152609760205260409020600101546113e981611574565b6108868383611604565b60006113fd611465565b6001600160a01b039384166000908152600791909101602090815260408083209490951682529290925250205460ff1690565b60006001600160e01b03198216637965db0b60e01b14806104c857506301ffc9a760e01b6001600160e01b03198316146104c8565b7f2569078dfb4b0305704d3008e7403993ae9601b85f7ae5e742de3de8f8011c4090565b6000611493611465565b54821080156104c85750600160e01b6114aa611465565b60008481526004919091016020526040902054161592915050565b6000816114d0611465565b548110156115335760006114e2611465565b600083815260049190910160205260409020549050600160e01b8116611531575b8061125557611510611465565b60001990920160008181526004939093016020526040909220549050611503565b505b604051636f96cda160e11b815260040160405180910390fd5b6000806000611559611465565b60009485526006016020525050604090912080549092909150565b6109738133611cf3565b6115888282611081565b61090a5760008281526097602090815260408083206001600160a01b03851684529091529020805460ff191660011790556115c03390565b6001600160a01b0316816001600160a01b0316837f2f8788117e7eff1d82e926ec794901d17c78024a50270940304540a733656f0d60405160405180910390a45050565b61160e8282611081565b1561090a5760008281526097602090815260408083206001600160a01b0385168085529252808320805460ff1916905551339285917ff6391f5c32d9c69d2a47ea670b442974b53935d1edc7fd64eb21e047a839171b9190a45050565b6000611675611465565b549050816116965760405163b562e8dd60e01b815260040160405180910390fd5b6801000000000000000182026116aa611465565b6001600160a01b038516600081815260059290920160205260409091208054929092019091554260a01b6001841460e11b17176116e5611465565b600083815260049190910160205260408120919091556001600160a01b0384169083830190839083906000805160206129f58339815191528180a4600183015b81811461174b57808360006000805160206129f5833981519152600080a4600101611725565b508161176957604051622e076360e81b815260040160405180910390fd5b80611772611465565b55506108869050565b6000611786836114c5565b9050806000806117958661154c565b9150915084156117d5576117aa8184336106dd565b6117d5576117b883336113f3565b6117d557604051632ce44b5f60e11b815260040160405180910390fd5b80156117e057600082555b6fffffffffffffffffffffffffffffffff6117f9611465565b6001600160a01b038516600081815260059290920160205260409091208054929092019091554260a01b17600360e01b17611832611465565b60008881526004919091016020526040902055600160e11b84166118a1576001860161185c611465565b6000828152600491909101602052604090205461189f5761187b611465565b54811461189f578461188b611465565b600083815260049190910160205260409020555b505b60405186906000906001600160a01b038616906000805160206129f5833981519152908390a46118cf611465565b600190810180549091019055505050505050565b60006118ed611465565b54919050565b6118fc82611489565b6119605760405162461bcd60e51b815260206004820152602f60248201527f4552433732314155524953746f726167653a2055524920736574206f66206e6f60448201526e3732bc34b9ba32b73a103a37b5b2b760891b60648201526084016108f7565b600082815260016020908152604090912082516108869284019061219c565b600080516020612a1583398151915254610100900460ff166119b35760405162461bcd60e51b81526004016108f790612830565b61090a8282611d57565b600054610100900460ff16611a285760405162461bcd60e51b815260206004820152602b60248201527f496e697469616c697a61626c653a20636f6e7472616374206973206e6f74206960448201526a6e697469616c697a696e6760a81b60648201526084016108f7565b565b600080516020612a1583398151915254610100900460ff16611a5e5760405162461bcd60e51b81526004016108f790612830565b611a28611dda565b6040805160808101825260008082526020820181905291810182905260608101919091526104c8611a95611465565b60008481526004919091016020526040902054611e0e565b604051630a85bd0160e11b81526000906001600160a01b0385169063150b7a0290611ae2903390899088908890600401612766565b602060405180830381600087803b158015611afc57600080fd5b505af1925050508015611b2c575060408051601f3d908101601f19168201909252611b29918101906125e4565b60015b611b87573d808015611b5a576040519150601f19603f3d011682016040523d82523d6000602084013e611b5f565b606091505b508051611b7f576040516368d2bf6b60e11b815260040160405180910390fd5b805181602001fd5b6001600160e01b031916630a85bd0160e11b1490505b949350505050565b6040805160808101825260008082526020820181905291810182905260608101919091526104c8611bd5836114c5565b611e0e565b6060611be582611489565b611c0257604051630a14c4b560e41b815260040160405180910390fd5b60008281526001602052604081208054611c1b9061293c565b80601f0160208091040260200160405190810160405280929190818152602001828054611c479061293c565b8015611c945780601f10611c6957610100808354040283529160200191611c94565b820191906000526020600020905b815481529060010190602001808311611c7757829003601f168201915b505050505090506000611ca5611e55565b9050805160001415611cb8575092915050565b815115611cea578082604051602001611cd29291906126c2565b60405160208183030381529060405292505050919050565b611b9d84611e64565b611cfd8282611081565b61090a57611d15816001600160a01b03166014611ee8565b611d20836020611ee8565b604051602001611d319291906126f1565b60408051601f198184030181529082905262461bcd60e51b82526108f79160040161281d565b600080516020612a1583398151915254610100900460ff16611d8b5760405162461bcd60e51b81526004016108f790612830565b81611d94611465565b6002019080519060200190611daa92919061219c565b5080611db4611465565b6003019080519060200190611dca92919061219c565b506000611dd5611465565b555050565b600080516020612a1583398151915254610100900460ff16611a285760405162461bcd60e51b81526004016108f790612830565b604080516080810182526001600160a01b038316815260a083901c6001600160401b03166020820152600160e01b831615159181019190915260e89190911c606082015290565b606060c980546104e69061293c565b6060611e6f82611489565b611e8c57604051630a14c4b560e41b815260040160405180910390fd5b6000611e96611e55565b9050805160001415611eb75760405180602001604052806000815250611255565b80611ec1846120c9565b604051602001611ed29291906126c2565b6040516020818303038152906040529392505050565b60606000611ef78360026128da565b611f029060026128c2565b6001600160401b03811115611f2757634e487b7160e01b600052604160045260246000fd5b6040519080825280601f01601f191660200182016040528015611f51576020820181803683370190505b509050600360fc1b81600081518110611f7a57634e487b7160e01b600052603260045260246000fd5b60200101906001600160f81b031916908160001a905350600f60fb1b81600181518110611fb757634e487b7160e01b600052603260045260246000fd5b60200101906001600160f81b031916908160001a9053506000611fdb8460026128da565b611fe69060016128c2565b90505b600181111561207a576f181899199a1a9b1b9c1cb0b131b232b360811b85600f166010811061202857634e487b7160e01b600052603260045260246000fd5b1a60f81b82828151811061204c57634e487b7160e01b600052603260045260246000fd5b60200101906001600160f81b031916908160001a90535060049490941c9361207381612925565b9050611fe9565b5083156112555760405162461bcd60e51b815260206004820181905260248201527f537472696e67733a20686578206c656e67746820696e73756666696369656e7460448201526064016108f7565b604080516080810191829052607f0190826030600a8206018353600a90045b801561210657600183039250600a81066030018353600a90046120e8565b50819003601f19909101908152919050565b8280546121249061293c565b90600052602060002090601f016020900481019282612146576000855561218c565b82601f1061215f5782800160ff1982351617855561218c565b8280016001018555821561218c579182015b8281111561218c578235825591602001919060010190612171565b50612198929150612210565b5090565b8280546121a89061293c565b90600052602060002090601f0160209004810192826121ca576000855561218c565b82601f106121e357805160ff191683800117855561218c565b8280016001018555821561218c579182015b8281111561218c5782518255916020019190600101906121f5565b5b808211156121985760008155600101612211565b60006001600160401b0383111561223e5761223e6129a8565b612251601f8401601f1916602001612892565b905082815283838301111561226557600080fd5b828260208301376000602084830101529392505050565b80356001600160a01b038116811461229357600080fd5b919050565b600082601f8301126122a8578081fd5b61125583833560208501612225565b6000602082840312156122c8578081fd5b6112558261227c565b600080604083850312156122e3578081fd5b6122ec8361227c565b91506122fa6020840161227c565b90509250929050565b600080600060608486031215612317578081fd5b6123208461227c565b925061232e6020850161227c565b9150604084013590509250925092565b60008060008060808587031215612353578081fd5b61235c8561227c565b935061236a6020860161227c565b92506040850135915060608501356001600160401b0381111561238b578182fd5b8501601f8101871361239b578182fd5b6123aa87823560208401612225565b91505092959194509250565b600080604083850312156123c8578182fd5b6123d18361227c565b91506020808401356001600160401b03808211156123ed578384fd5b818601915086601f830112612400578384fd5b813581811115612412576124126129a8565b8060051b612421858201612892565b8281528581019085870183870188018c101561243b578889fd5b8893505b848410156124785780358681111561245557898afd5b6124638d8a838b0101612298565b8452506001939093019291870191870161243f565b50809750505050505050509250929050565b6000806040838503121561249c578182fd5b6124a58361227c565b9150602083013580151581146124b9578182fd5b809150509250929050565b600080604083850312156124d6578182fd5b6124df8361227c565b946020939093013593505050565b600080600060608486031215612501578283fd5b61250a8461227c565b95602085013595506040909401359392505050565b60008060208385031215612531578182fd5b82356001600160401b0380821115612547578384fd5b818501915085601f83011261255a578384fd5b813581811115612568578485fd5b8660208260051b850101111561257c578485fd5b60209290920196919550909350505050565b60006020828403121561259f578081fd5b5035919050565b600080604083850312156125b8578182fd5b823591506122fa6020840161227c565b6000602082840312156125d9578081fd5b8135611255816129be565b6000602082840312156125f5578081fd5b8151611255816129be565b60008060208385031215612612578182fd5b82356001600160401b0380821115612628578384fd5b818501915085601f83011261263b578384fd5b813581811115612649578485fd5b86602082850101111561257c578485fd5b600081518084526126728160208601602086016128f9565b601f01601f19169290920160200192915050565b80516001600160a01b031682526020808201516001600160401b03169083015260408082015115159083015260609081015162ffffff16910152565b600083516126d48184602088016128f9565b8351908301906126e88183602088016128f9565b01949350505050565b7f416363657373436f6e74726f6c3a206163636f756e74200000000000000000008152600083516127298160178501602088016128f9565b7001034b99036b4b9b9b4b733903937b6329607d1b601791840191820152835161275a8160288401602088016128f9565b01602801949350505050565b6001600160a01b03858116825284166020820152604081018390526080606082018190526000906127999083018461265a565b9695505050505050565b6020808252825182820181905260009190848201906040850190845b81811015611075576127d2838551612686565b92840192608092909201916001016127bf565b6020808252825182820181905260009190848201906040850190845b8181101561107557835183529284019291840191600101612801565b602081526000611255602083018461265a565b60208082526034908201527f455243373231415f5f496e697469616c697a61626c653a20636f6e7472616374604082015273206973206e6f7420696e697469616c697a696e6760601b606082015260800190565b608081016104c88284612686565b604051601f8201601f191681016001600160401b03811182821017156128ba576128ba6129a8565b604052919050565b600082198211156128d5576128d5612992565b500190565b60008160001904831182151516156128f4576128f4612992565b500290565b60005b838110156129145781810151838201526020016128fc565b838111156109255750506000910152565b60008161293457612934612992565b506000190190565b600181811c9082168061295057607f821691505b6020821081141561297157634e487b7160e01b600052602260045260246000fd5b50919050565b600060001982141561298b5761298b612992565b5060010190565b634e487b7160e01b600052601160045260246000fd5b634e487b7160e01b600052604160045260246000fd5b6001600160e01b03198116811461097357600080fdfe9f2df0fed2c77648de5860a4cc508cd0818c85b8b8a1ab4ceeef8d981c8956a6ddf252ad1be2c89b69c2b068fc378daa952ba7f163c4a11628f55a4df523b3efee151c8401928dc223602bb187aff91b9a56c7cae5476ef1b3287b085a16c85fa264697066735822122038a0fa23cf779463fac43c376c209795a865c33e680e2c50839d50c22f55225764736f6c63430008040033",
  "linkReferences": {},
  "deployedLinkReferences": {}
}