{
  "_format": "hh-sol-artifact-1",
  "contractName": "NFTEquipment",
  "sourceName": "contracts/NFTEquipment.sol",
  "abi": [
    {
      "inputs": [],
      "name": "ApprovalCallerNotOwnerNorApproved",
      "type": "error"
    },
    {
      "inputs": [],
      "name": "ApprovalQueryForNonexistentToken",
      "type": "error"
    },
    {
      "inputs": [],
      "name": "ApproveToCaller",
      "type": "error"
    },
    {
      "inputs": [],
      "name": "BalanceQueryForZeroAddress",
      "type": "error"
    },
    {
      "inputs": [],
      "name": "InvalidQueryRange",
      "type": "error"
    },
    {
      "inputs": [],
      "name": "MintERC2309QuantityExceedsLimit",
      "type": "error"
    },
    {
      "inputs": [],
      "name": "MintToZeroAddress",
      "type": "error"
    },
    {
      "inputs": [],
      "name": "MintZeroQuantity",
      "type": "error"
    },
    {
      "inputs": [],
      "name": "OwnerQueryForNonexistentToken",
      "type": "error"
    },
    {
      "inputs": [],
      "name": "OwnershipNotInitializedForExtraData",
      "type": "error"
    },
    {
      "inputs": [],
      "name": "TransferCallerNotOwnerNorApproved",
      "type": "error"
    },
    {
      "inputs": [],
      "name": "TransferFromIncorrectOwner",
      "type": "error"
    },
    {
      "inputs": [],
      "name": "TransferToNonERC721ReceiverImplementer",
      "type": "error"
    },
    {
      "inputs": [],
      "name": "TransferToZeroAddress",
      "type": "error"
    },
    {
      "inputs": [],
      "name": "URIQueryForNonexistentToken",
      "type": "error"
    },
    {
      "anonymous": false,
      "inputs": [
        {
          "indexed": true,
          "internalType": "address",
          "name": "owner",
          "type": "address"
        },
        {
          "indexed": true,
          "internalType": "address",
          "name": "approved",
          "type": "address"
        },
        {
          "indexed": true,
          "internalType": "uint256",
          "name": "tokenId",
          "type": "uint256"
        }
      ],
      "name": "Approval",
      "type": "event"
    },
    {
      "anonymous": false,
      "inputs": [
        {
          "indexed": true,
          "internalType": "address",
          "name": "owner",
          "type": "address"
        },
        {
          "indexed": true,
          "internalType": "address",
          "name": "operator",
          "type": "address"
        },
        {
          "indexed": false,
          "internalType": "bool",
          "name": "approved",
          "type": "bool"
        }
      ],
      "name": "ApprovalForAll",
      "type": "event"
    },
    {
      "anonymous": false,
      "inputs": [
        {
          "indexed": true,
          "internalType": "uint256",
          "name": "fromTokenId",
          "type": "uint256"
        },
        {
          "indexed": false,
          "internalType": "uint256",
          "name": "toTokenId",
          "type": "uint256"
        },
        {
          "indexed": true,
          "internalType": "address",
          "name": "from",
          "type": "address"
        },
        {
          "indexed": true,
          "internalType": "address",
          "name": "to",
          "type": "address"
        }
      ],
      "name": "ConsecutiveTransfer",
      "type": "event"
    },
    {
      "anonymous": false,
      "inputs": [
        {
          "indexed": false,
          "internalType": "uint8",
          "name": "version",
          "type": "uint8"
        }
      ],
      "name": "Initialized",
      "type": "event"
    },
    {
      "anonymous": false,
      "inputs": [
        {
          "indexed": true,
          "internalType": "address",
          "name": "to",
          "type": "address"
        },
        {
          "indexed": true,
          "internalType": "address",
          "name": "nftAddress",
          "type": "address"
        },
        {
          "indexed": true,
          "internalType": "uint256",
          "name": "tokenId",
          "type": "uint256"
        },
        {
          "indexed": false,
          "internalType": "string",
          "name": "uri",
          "type": "string"
        }
      ],
      "name": "MintNFT",
      "type": "event"
    },
    {
      "anonymous": false,
      "inputs": [
        {
          "indexed": true,
          "internalType": "bytes32",
          "name": "role",
          "type": "bytes32"
        },
        {
          "indexed": true,
          "internalType": "bytes32",
          "name": "previousAdminRole",
          "type": "bytes32"
        },
        {
          "indexed": true,
          "internalType": "bytes32",
          "name": "newAdminRole",
          "type": "bytes32"
        }
      ],
      "name": "RoleAdminChanged",
      "type": "event"
    },
    {
      "anonymous": false,
      "inputs": [
        {
          "indexed": true,
          "internalType": "bytes32",
          "name": "role",
          "type": "bytes32"
        },
        {
          "indexed": true,
          "internalType": "address",
          "name": "account",
          "type": "address"
        },
        {
          "indexed": true,
          "internalType": "address",
          "name": "sender",
          "type": "address"
        }
      ],
      "name": "RoleGranted",
      "type": "event"
    },
    {
      "anonymous": false,
      "inputs": [
        {
          "indexed": true,
          "internalType": "bytes32",
          "name": "role",
          "type": "bytes32"
        },
        {
          "indexed": true,
          "internalType": "address",
          "name": "account",
          "type": "address"
        },
        {
          "indexed": true,
          "internalType": "address",
          "name": "sender",
          "type": "address"
        }
      ],
      "name": "RoleRevoked",
      "type": "event"
    },
    {
      "anonymous": false,
      "inputs": [
        {
          "indexed": true,
          "internalType": "address",
          "name": "from",
          "type": "address"
        },
        {
          "indexed": true,
          "internalType": "address",
          "name": "to",
          "type": "address"
        },
        {
          "indexed": true,
          "internalType": "uint256",
          "name": "tokenId",
          "type": "uint256"
        }
      ],
      "name": "Transfer",
      "type": "event"
    },
    {
      "inputs": [],
      "name": "BURNER_ROLE",
      "outputs": [
        {
          "internalType": "bytes32",
          "name": "",
          "type": "bytes32"
        }
      ],
      "stateMutability": "view",
      "type": "function"
    },
    {
      "inputs": [],
      "name": "DEFAULT_ADMIN_ROLE",
      "outputs": [
        {
          "internalType": "bytes32",
          "name": "",
          "type": "bytes32"
        }
      ],
      "stateMutability": "view",
      "type": "function"
    },
    {
      "inputs": [],
      "name": "MINTER_ROLE",
      "outputs": [
        {
          "internalType": "bytes32",
          "name": "",
          "type": "bytes32"
        }
      ],
      "stateMutability": "view",
      "type": "function"
    },
    {
      "inputs": [
        {
          "internalType": "address",
          "name": "to",
          "type": "address"
        },
        {
          "internalType": "uint256",
          "name": "tokenId",
          "type": "uint256"
        }
      ],
      "name": "approve",
      "outputs": [],
      "stateMutability": "nonpayable",
      "type": "function"
    },
    {
      "inputs": [
        {
          "internalType": "address",
          "name": "owner",
          "type": "address"
        }
      ],
      "name": "balanceOf",
      "outputs": [
        {
          "internalType": "uint256",
          "name": "",
          "type": "uint256"
        }
      ],
      "stateMutability": "view",
      "type": "function"
    },
    {
      "inputs": [],
      "name": "baseURI",
      "outputs": [
        {
          "internalType": "string",
          "name": "",
          "type": "string"
        }
      ],
      "stateMutability": "view",
      "type": "function"
    },
    {
      "inputs": [
        {
          "internalType": "uint256",
          "name": "tokenId",
          "type": "uint256"
        }
      ],
      "name": "burn",
      "outputs": [],
      "stateMutability": "nonpayable",
      "type": "function"
    },
    {
      "inputs": [
        {
          "internalType": "string",
          "name": "_URI",
          "type": "string"
        }
      ],
      "name": "changeBaseURI",
      "outputs": [],
      "stateMutability": "nonpayable",
      "type": "function"
    },
    {
      "inputs": [
        {
          "internalType": "uint256",
          "name": "tokenId",
          "type": "uint256"
        }
      ],
      "name": "explicitOwnershipOf",
      "outputs": [
        {
          "components": [
            {
              "internalType": "address",
              "name": "addr",
              "type": "address"
            },
            {
              "internalType": "uint64",
              "name": "startTimestamp",
              "type": "uint64"
            },
            {
              "internalType": "bool",
              "name": "burned",
              "type": "bool"
            },
            {
              "internalType": "uint24",
              "name": "extraData",
              "type": "uint24"
            }
          ],
          "internalType": "struct IERC721AUpgradeable.TokenOwnership",
          "name": "",
          "type": "tuple"
        }
      ],
      "stateMutability": "view",
      "type": "function"
    },
    {
      "inputs": [
        {
          "internalType": "uint256[]",
          "name": "tokenIds",
          "type": "uint256[]"
        }
      ],
      "name": "explicitOwnershipsOf",
      "outputs": [
        {
          "components": [
            {
              "internalType": "address",
              "name": "addr",
              "type": "address"
            },
            {
              "internalType": "uint64",
              "name": "startTimestamp",
              "type": "uint64"
            },
            {
              "internalType": "bool",
              "name": "burned",
              "type": "bool"
            },
            {
              "internalType": "uint24",
              "name": "extraData",
              "type": "uint24"
            }
          ],
          "internalType": "struct IERC721AUpgradeable.TokenOwnership[]",
          "name": "",
          "type": "tuple[]"
        }
      ],
      "stateMutability": "view",
      "type": "function"
    },
    {
      "inputs": [
        {
          "internalType": "uint256",
          "name": "tokenId",
          "type": "uint256"
        }
      ],
      "name": "getApproved",
      "outputs": [
        {
          "internalType": "address",
          "name": "",
          "type": "address"
        }
      ],
      "stateMutability": "view",
      "type": "function"
    },
    {
      "inputs": [
        {
          "internalType": "bytes32",
          "name": "role",
          "type": "bytes32"
        }
      ],
      "name": "getRoleAdmin",
      "outputs": [
        {
          "internalType": "bytes32",
          "name": "",
          "type": "bytes32"
        }
      ],
      "stateMutability": "view",
      "type": "function"
    },
    {
      "inputs": [
        {
          "internalType": "bytes32",
          "name": "role",
          "type": "bytes32"
        },
        {
          "internalType": "address",
          "name": "account",
          "type": "address"
        }
      ],
      "name": "grantRole",
      "outputs": [],
      "stateMutability": "nonpayable",
      "type": "function"
    },
    {
      "inputs": [
        {
          "internalType": "bytes32",
          "name": "role",
          "type": "bytes32"
        },
        {
          "internalType": "address",
          "name": "account",
          "type": "address"
        }
      ],
      "name": "hasRole",
      "outputs": [
        {
          "internalType": "bool",
          "name": "",
          "type": "bool"
        }
      ],
      "stateMutability": "view",
      "type": "function"
    },
    {
      "inputs": [],
      "name": "initialize",
      "outputs": [],
      "stateMutability": "nonpayable",
      "type": "function"
    },
    {
      "inputs": [
        {
          "internalType": "address",
          "name": "owner",
          "type": "address"
        },
        {
          "internalType": "address",
          "name": "operator",
          "type": "address"
        }
      ],
      "name": "isApprovedForAll",
      "outputs": [
        {
          "internalType": "bool",
          "name": "",
          "type": "bool"
        }
      ],
      "stateMutability": "view",
      "type": "function"
    },
    {
      "inputs": [
        {
          "internalType": "address",
          "name": "to",
          "type": "address"
        },
        {
          "internalType": "uint256",
          "name": "quantity",
          "type": "uint256"
        }
      ],
      "name": "mint",
      "outputs": [],
      "stateMutability": "nonpayable",
      "type": "function"
    },
    {
      "inputs": [
        {
          "internalType": "address",
          "name": "to",
          "type": "address"
        },
        {
          "internalType": "string[]",
          "name": "uris",
          "type": "string[]"
        }
      ],
      "name": "mintCustomURI",
      "outputs": [],
      "stateMutability": "nonpayable",
      "type": "function"
    },
    {
      "inputs": [],
      "name": "name",
      "outputs": [
        {
          "internalType": "string",
          "name": "",
          "type": "string"
        }
      ],
      "stateMutability": "view",
      "type": "function"
    },
    {
      "inputs": [],
      "name": "nextTokenId",
      "outputs": [
        {
          "internalType": "uint256",
          "name": "",
          "type": "uint256"
        }
      ],
      "stateMutability": "view",
      "type": "function"
    },
    {
      "inputs": [
        {
          "internalType": "uint256",
          "name": "tokenId",
          "type": "uint256"
        }
      ],
      "name": "ownerOf",
      "outputs": [
        {
          "internalType": "address",
          "name": "",
          "type": "address"
        }
      ],
      "stateMutability": "view",
      "type": "function"
    },
    {
      "inputs": [
        {
          "internalType": "bytes32",
          "name": "role",
          "type": "bytes32"
        },
        {
          "internalType": "address",
          "name": "account",
          "type": "address"
        }
      ],
      "name": "renounceRole",
      "outputs": [],
      "stateMutability": "nonpayable",
      "type": "function"
    },
    {
      "inputs": [
        {
          "internalType": "bytes32",
          "name": "role",
          "type": "bytes32"
        },
        {
          "internalType": "address",
          "name": "account",
          "type": "address"
        }
      ],
      "name": "revokeRole",
      "outputs": [],
      "stateMutability": "nonpayable",
      "type": "function"
    },
    {
      "inputs": [
        {
          "internalType": "address",
          "name": "from",
          "type": "address"
        },
        {
          "internalType": "address",
          "name": "to",
          "type": "address"
        },
        {
          "internalType": "uint256",
          "name": "tokenId",
          "type": "uint256"
        }
      ],
      "name": "safeTransferFrom",
      "outputs": [],
      "stateMutability": "nonpayable",
      "type": "function"
    },
    {
      "inputs": [
        {
          "internalType": "address",
          "name": "from",
          "type": "address"
        },
        {
          "internalType": "address",
          "name": "to",
          "type": "address"
        },
        {
          "internalType": "uint256",
          "name": "tokenId",
          "type": "uint256"
        },
        {
          "internalType": "bytes",
          "name": "_data",
          "type": "bytes"
        }
      ],
      "name": "safeTransferFrom",
      "outputs": [],
      "stateMutability": "nonpayable",
      "type": "function"
    },
    {
      "inputs": [
        {
          "internalType": "address",
          "name": "operator",
          "type": "address"
        },
        {
          "internalType": "bool",
          "name": "approved",
          "type": "bool"
        }
      ],
      "name": "setApprovalForAll",
      "outputs": [],
      "stateMutability": "nonpayable",
      "type": "function"
    },
    {
      "inputs": [
        {
          "internalType": "bytes4",
          "name": "interfaceId",
          "type": "bytes4"
        }
      ],
      "name": "supportsInterface",
      "outputs": [
        {
          "internalType": "bool",
          "name": "",
          "type": "bool"
        }
      ],
      "stateMutability": "view",
      "type": "function"
    },
    {
      "inputs": [],
      "name": "symbol",
      "outputs": [
        {
          "internalType": "string",
          "name": "",
          "type": "string"
        }
      ],
      "stateMutability": "view",
      "type": "function"
    },
    {
      "inputs": [
        {
          "internalType": "uint256",
          "name": "tokenId",
          "type": "uint256"
        }
      ],
      "name": "tokenURI",
      "outputs": [
        {
          "internalType": "string",
          "name": "",
          "type": "string"
        }
      ],
      "stateMutability": "view",
      "type": "function"
    },
    {
      "inputs": [
        {
          "internalType": "address",
          "name": "owner",
          "type": "address"
        }
      ],
      "name": "tokensOfOwner",
      "outputs": [
        {
          "internalType": "uint256[]",
          "name": "",
          "type": "uint256[]"
        }
      ],
      "stateMutability": "view",
      "type": "function"
    },
    {
      "inputs": [
        {
          "internalType": "address",
          "name": "owner",
          "type": "address"
        },
        {
          "internalType": "uint256",
          "name": "start",
          "type": "uint256"
        },
        {
          "internalType": "uint256",
          "name": "stop",
          "type": "uint256"
        }
      ],
      "name": "tokensOfOwnerIn",
      "outputs": [
        {
          "internalType": "uint256[]",
          "name": "",
          "type": "uint256[]"
        }
      ],
      "stateMutability": "view",
      "type": "function"
    },
    {
      "inputs": [],
      "name": "totalSupply",
      "outputs": [
        {
          "internalType": "uint256",
          "name": "",
          "type": "uint256"
        }
      ],
      "stateMutability": "view",
      "type": "function"
    },
    {
      "inputs": [
        {
          "internalType": "address",
          "name": "from",
          "type": "address"
        },
        {
          "internalType": "address",
          "name": "to",
          "type": "address"
        },
        {
          "internalType": "uint256",
          "name": "tokenId",
          "type": "uint256"
        }
      ],
      "name": "transferFrom",
      "outputs": [],
      "stateMutability": "nonpayable",
      "type": "function"
    }
  ],
  "bytecode": "0x608060405234801561001057600080fd5b50612a6e806100206000396000f3fe608060405234801561001057600080fd5b50600436106101fb5760003560e01c80636352211e1161011a57806399a2557a116100ad578063c23dc68f1161007c578063c23dc68f1461044f578063c87b56dd1461046f578063d539139314610482578063d547741f14610497578063e985e9c5146104aa57600080fd5b806399a2557a1461040e578063a217fddf14610421578063a22cb46514610429578063b88d4fde1461043c57600080fd5b80638129fc1c116100e95780638129fc1c146103cb5780638462151c146103d357806391d14854146103f357806395d89b411461040657600080fd5b80636352211e146103955780636c0360eb146103a857806370a08231146103b057806375794a3c146103c357600080fd5b80632f2ff15d1161019257806342842e0e1161016157806342842e0e1461033c57806342966c681461034f5780635bbb21771461036257806361a460011461038257600080fd5b80632f2ff15d146102f057806336568abe1461030357806339a0c6f91461031657806340c10f191461032957600080fd5b806318160ddd116101ce57806318160ddd1461027d57806323b872dd14610293578063248a9ca3146102a6578063282c51f3146102c957600080fd5b806301ffc9a71461020057806306fdde0314610228578063081812fc1461023d578063095ea7b314610268575b600080fd5b61021361020e3660046125cc565b6104bd565b60405190151581526020015b60405180910390f35b6102306104ce565b60405161021f9190612821565b61025061024b366004612592565b610569565b6040516001600160a01b03909116815260200161021f565b61027b6102763660046124c8565b6105b6565b005b610285610664565b60405190815260200161021f565b61027b6102a1366004612307565b610683565b6102856102b4366004612592565b60009081526097602052604090206001015490565b6102857f3c11d16cbaffd01df69ce1c404f6340ee057498f5f00246190ea54220576a84881565b61027b6102fe3660046125aa565b610861565b61027b6103113660046125aa565b61088b565b61027b610324366004612604565b61090e565b61027b6103373660046124c8565b61092b565b61027b61034a366004612307565b61094d565b61027b61035d366004612592565b610968565b610375610370366004612523565b610976565b60405161021f91906127a7565b61027b6103903660046123ba565b610a6b565b6102506103a3366004612592565b610baf565b610230610bba565b6102856103be3660046122bb565b610c48565b610285610cb0565b61027b610cbf565b6103e66103e13660046122bb565b610f5a565b60405161021f91906127e9565b6102136104013660046125aa565b611085565b6102306110b0565b6103e661041c3660046124f1565b6110c8565b610285600081565b61027b61043736600461248e565b611260565b61027b61044a366004612342565b611307565b61046261045d366004612592565b61134b565b60405161021f9190612888565b61023061047d366004612592565b6113c7565b6102856000805160206129d983398151915281565b61027b6104a53660046125aa565b6113d2565b6102136104b83660046122d5565b6113f7565b60006104c882611434565b92915050565b60606104d8611469565b60020180546104e690612940565b80601f016020809104026020016040519081016040528092919081815260200182805461051290612940565b801561055f5780601f106105345761010080835404028352916020019161055f565b820191906000526020600020905b81548152906001019060200180831161054257829003601f168201915b5050505050905090565b60006105748261148d565b610591576040516333d1c03960e21b815260040160405180910390fd5b610599611469565b60009283526006016020525060409020546001600160a01b031690565b60006105c182610baf565b9050336001600160a01b038216146105fa576105dd81336113f7565b6105fa576040516367d9dca160e11b815260040160405180910390fd5b82610603611469565b6000848152600691909101602052604080822080546001600160a01b0319166001600160a01b0394851617905551849286811692908516917f8c5be1e5ebec7d5bd14f71427d1e84f3dd0314c0f7b2291e5b200ac8c7c3b9259190a4505050565b60008061066f611469565b6001015461067b611469565b540303919050565b600061068e826114c9565b9050836001600160a01b0316816001600160a01b0316146106c15760405162a1148160e81b815260040160405180910390fd5b6000806106cd84611550565b915091506106f281876106dd3390565b6001600160a01b039081169116811491141790565b61071d5761070086336113f7565b61071d57604051632ce44b5f60e11b815260040160405180910390fd5b6001600160a01b03851661074457604051633a954ecd60e21b815260040160405180910390fd5b801561074f57600082555b610757611469565b6001600160a01b0387166000908152600591909101602052604090208054600019019055610783611469565b6001600160a01b03861660008181526005929092016020526040909120805460010190554260a01b17600160e11b176107ba611469565b60008681526004919091016020526040902055600160e11b831661082957600184016107e4611469565b6000828152600491909101602052604090205461082757610803611469565b5481146108275783610813611469565b600083815260049190910160205260409020555b505b83856001600160a01b0316876001600160a01b03166000805160206129f983398151915260405160405180910390a45b505050505050565b60008281526097602052604090206001015461087c81611578565b6108868383611582565b505050565b6001600160a01b03811633146109005760405162461bcd60e51b815260206004820152602f60248201527f416363657373436f6e74726f6c3a2063616e206f6e6c792072656e6f756e636560448201526e103937b632b9903337b91039b2b63360891b60648201526084015b60405180910390fd5b61090a8282611608565b5050565b600061091981611578565b61092560c9848461211c565b50505050565b6000805160206129d983398151915261094381611578565b610886838361166f565b61088683838360405180602001604052806000815250611307565b61097381600161177f565b50565b6060816000816001600160401b038111156109a157634e487b7160e01b600052604160045260246000fd5b6040519080825280602002602001820160405280156109f357816020015b6040805160808101825260008082526020808301829052928201819052606082015282526000199092019101816109bf5790505b50905060005b828114610a6257610a2f868683818110610a2357634e487b7160e01b600052603260045260246000fd5b9050602002013561134b565b828281518110610a4f57634e487b7160e01b600052603260045260246000fd5b60209081029190910101526001016109f9565b50949350505050565b6000805160206129d9833981519152610a8381611578565b6000825111610ac45760405162461bcd60e51b815260206004820152600d60248201526c105c9c985e481a5cc81b9d5b1b609a1b60448201526064016108f7565b81516000610ad06118e7565b9050610adc858361166f565b60005b8281101561085957610b21610af482846128c6565b868381518110610b1457634e487b7160e01b600052603260045260246000fd5b60200260200101516118f7565b610b2b81836128c6565b306001600160a01b0316876001600160a01b03167fdd0b9935e351491b3e0a77967a93070d884b69ed697c36fa59d144db1f593c17888581518110610b8057634e487b7160e01b600052603260045260246000fd5b6020026020010151604051610b959190612821565b60405180910390a480610ba78161297b565b915050610adf565b60006104c8826114c9565b60c98054610bc790612940565b80601f0160208091040260200160405190810160405280929190818152602001828054610bf390612940565b8015610c405780601f10610c1557610100808354040283529160200191610c40565b820191906000526020600020905b815481529060010190602001808311610c2357829003601f168201915b505050505081565b60006001600160a01b038216610c71576040516323d3ad8160e21b815260040160405180910390fd5b6001600160401b03610c81611469565b6005016000846001600160a01b03166001600160a01b0316815260200190815260200160002054169050919050565b6000610cba6118e7565b905090565b600080516020612a1983398151915254610100900460ff16610cf457600080516020612a198339815191525460ff1615610cf8565b303b155b610d6a5760405162461bcd60e51b815260206004820152603760248201527f455243373231415f5f496e697469616c697a61626c653a20636f6e747261637460448201527f20697320616c726561647920696e697469616c697a656400000000000000000060648201526084016108f7565b600080516020612a1983398151915254610100900460ff16158015610da657600080516020612a19833981519152805461ffff19166101011790555b600054610100900460ff1615808015610dc65750600054600160ff909116105b80610de05750303b158015610de0575060005460ff166001145b610e435760405162461bcd60e51b815260206004820152602e60248201527f496e697469616c697a61626c653a20636f6e747261637420697320616c72656160448201526d191e481a5b9a5d1a585b1a5e995960921b60648201526084016108f7565b6000805460ff191660011790558015610e66576000805461ff0019166101001790555b610eaf6040518060400160405280600c81526020016b139195115c5d5a5c1b595b9d60a21b815250604051806040016040528060038152602001624e464560e81b815250611983565b610eb76119c1565b610ebf611a2e565b610ec7611a2e565b610ecf6119c1565b610eda600033611582565b610ef26000805160206129d983398151915233611582565b8015610f38576000805461ff0019169055604051600181527f7f26b83ff96e1f2b6a682f133852f6798a09c465da95921460cefb38474024989060200160405180910390a15b5080156109735750600080516020612a19833981519152805461ff0019169055565b60606000806000610f6a85610c48565b90506000816001600160401b03811115610f9457634e487b7160e01b600052604160045260246000fd5b604051908082528060200260200182016040528015610fbd578160200160208202803683370190505b509050610fea60408051608081018252600080825260208201819052918101829052606081019190915290565b60005b83861461107957610ffd81611a6a565b915081604001511561100e57611071565b81516001600160a01b03161561102357815194505b876001600160a01b0316856001600160a01b03161415611071578083878060010198508151811061106457634e487b7160e01b600052603260045260246000fd5b6020026020010181815250505b600101610fed565b50909695505050505050565b60009182526097602090815260408084206001600160a01b0393909316845291905290205460ff1690565b60606110ba611469565b60030180546104e690612940565b60608183106110ea57604051631960ccad60e11b815260040160405180910390fd5b6000806110f56118e7565b905080841115611103578093505b600061110e87610c48565b90508486101561112d5785850381811015611127578091505b50611131565b5060005b6000816001600160401b0381111561115957634e487b7160e01b600052604160045260246000fd5b604051908082528060200260200182016040528015611182578160200160208202803683370190505b5090508161119557935061125992505050565b60006111a08861134b565b9050600081604001516111b1575080515b885b8881141580156111c35750848714155b1561124d576111d181611a6a565b92508260400151156111e257611245565b82516001600160a01b0316156111f757825191505b8a6001600160a01b0316826001600160a01b03161415611245578084888060010199508151811061123857634e487b7160e01b600052603260045260246000fd5b6020026020010181815250505b6001016111b3565b50505092835250909150505b9392505050565b6001600160a01b03821633141561128a5760405163b06307db60e01b815260040160405180910390fd5b80611293611469565b336000818152600792909201602090815260408084206001600160a01b03881680865290835293819020805460ff19169515159590951790945592518415158152919290917f17307eab39ab6107e8899845ad3d59bd9653f200f220920489ca2b5937696c31910160405180910390a35050565b611312848484610683565b6001600160a01b0383163b156109255761132e84848484611ab1565b610925576040516368d2bf6b60e11b815260040160405180910390fd5b60408051608080820183526000808352602080840182905283850182905260608085018390528551938401865282845290830182905293820181905292810192909252906113976118e7565b83106113a35792915050565b6113ac83611a6a565b90508060400151156113be5792915050565b61125983611ba9565b60606104c882611bde565b6000828152609760205260409020600101546113ed81611578565b6108868383611608565b6000611401611469565b6001600160a01b039384166000908152600791909101602090815260408083209490951682529290925250205460ff1690565b60006001600160e01b03198216637965db0b60e01b14806104c857506301ffc9a760e01b6001600160e01b03198316146104c8565b7f2569078dfb4b0305704d3008e7403993ae9601b85f7ae5e742de3de8f8011c4090565b6000611497611469565b54821080156104c85750600160e01b6114ae611469565b60008481526004919091016020526040902054161592915050565b6000816114d4611469565b548110156115375760006114e6611469565b600083815260049190910160205260409020549050600160e01b8116611535575b8061125957611514611469565b60001990920160008181526004939093016020526040909220549050611507565b505b604051636f96cda160e11b815260040160405180910390fd5b600080600061155d611469565b60009485526006016020525050604090912080549092909150565b6109738133611cf7565b61158c8282611085565b61090a5760008281526097602090815260408083206001600160a01b03851684529091529020805460ff191660011790556115c43390565b6001600160a01b0316816001600160a01b0316837f2f8788117e7eff1d82e926ec794901d17c78024a50270940304540a733656f0d60405160405180910390a45050565b6116128282611085565b1561090a5760008281526097602090815260408083206001600160a01b0385168085529252808320805460ff1916905551339285917ff6391f5c32d9c69d2a47ea670b442974b53935d1edc7fd64eb21e047a839171b9190a45050565b6000611679611469565b5490508161169a5760405163b562e8dd60e01b815260040160405180910390fd5b6801000000000000000182026116ae611469565b6001600160a01b038516600081815260059290920160205260409091208054929092019091554260a01b6001841460e11b17176116e9611469565b600083815260049190910160205260408120919091556001600160a01b0384169083830190839083906000805160206129f98339815191528180a4600183015b81811461174f57808360006000805160206129f9833981519152600080a4600101611729565b508161176d57604051622e076360e81b815260040160405180910390fd5b80611776611469565b55506108869050565b600061178a836114c9565b90508060008061179986611550565b9150915084156117d9576117ae8184336106dd565b6117d9576117bc83336113f7565b6117d957604051632ce44b5f60e11b815260040160405180910390fd5b80156117e457600082555b6fffffffffffffffffffffffffffffffff6117fd611469565b6001600160a01b038516600081815260059290920160205260409091208054929092019091554260a01b17600360e01b17611836611469565b60008881526004919091016020526040902055600160e11b84166118a55760018601611860611469565b600082815260049190910160205260409020546118a35761187f611469565b5481146118a3578461188f611469565b600083815260049190910160205260409020555b505b60405186906000906001600160a01b038616906000805160206129f9833981519152908390a46118d3611469565b600190810180549091019055505050505050565b60006118f1611469565b54919050565b6119008261148d565b6119645760405162461bcd60e51b815260206004820152602f60248201527f4552433732314155524953746f726167653a2055524920736574206f66206e6f60448201526e3732bc34b9ba32b73a103a37b5b2b760891b60648201526084016108f7565b60008281526001602090815260409091208251610886928401906121a0565b600080516020612a1983398151915254610100900460ff166119b75760405162461bcd60e51b81526004016108f790612834565b61090a8282611d5b565b600054610100900460ff16611a2c5760405162461bcd60e51b815260206004820152602b60248201527f496e697469616c697a61626c653a20636f6e7472616374206973206e6f74206960448201526a6e697469616c697a696e6760a81b60648201526084016108f7565b565b600080516020612a1983398151915254610100900460ff16611a625760405162461bcd60e51b81526004016108f790612834565b611a2c611dde565b6040805160808101825260008082526020820181905291810182905260608101919091526104c8611a99611469565b60008481526004919091016020526040902054611e12565b604051630a85bd0160e11b81526000906001600160a01b0385169063150b7a0290611ae690339089908890889060040161276a565b602060405180830381600087803b158015611b0057600080fd5b505af1925050508015611b30575060408051601f3d908101601f19168201909252611b2d918101906125e8565b60015b611b8b573d808015611b5e576040519150601f19603f3d011682016040523d82523d6000602084013e611b63565b606091505b508051611b83576040516368d2bf6b60e11b815260040160405180910390fd5b805181602001fd5b6001600160e01b031916630a85bd0160e11b1490505b949350505050565b6040805160808101825260008082526020820181905291810182905260608101919091526104c8611bd9836114c9565b611e12565b6060611be98261148d565b611c0657604051630a14c4b560e41b815260040160405180910390fd5b60008281526001602052604081208054611c1f90612940565b80601f0160208091040260200160405190810160405280929190818152602001828054611c4b90612940565b8015611c985780601f10611c6d57610100808354040283529160200191611c98565b820191906000526020600020905b815481529060010190602001808311611c7b57829003601f168201915b505050505090506000611ca9611e59565b9050805160001415611cbc575092915050565b815115611cee578082604051602001611cd69291906126c6565b60405160208183030381529060405292505050919050565b611ba184611e68565b611d018282611085565b61090a57611d19816001600160a01b03166014611eec565b611d24836020611eec565b604051602001611d359291906126f5565b60408051601f198184030181529082905262461bcd60e51b82526108f791600401612821565b600080516020612a1983398151915254610100900460ff16611d8f5760405162461bcd60e51b81526004016108f790612834565b81611d98611469565b6002019080519060200190611dae9291906121a0565b5080611db8611469565b6003019080519060200190611dce9291906121a0565b506000611dd9611469565b555050565b600080516020612a1983398151915254610100900460ff16611a2c5760405162461bcd60e51b81526004016108f790612834565b604080516080810182526001600160a01b038316815260a083901c6001600160401b03166020820152600160e01b831615159181019190915260e89190911c606082015290565b606060c980546104e690612940565b6060611e738261148d565b611e9057604051630a14c4b560e41b815260040160405180910390fd5b6000611e9a611e59565b9050805160001415611ebb5760405180602001604052806000815250611259565b80611ec5846120cd565b604051602001611ed69291906126c6565b6040516020818303038152906040529392505050565b60606000611efb8360026128de565b611f069060026128c6565b6001600160401b03811115611f2b57634e487b7160e01b600052604160045260246000fd5b6040519080825280601f01601f191660200182016040528015611f55576020820181803683370190505b509050600360fc1b81600081518110611f7e57634e487b7160e01b600052603260045260246000fd5b60200101906001600160f81b031916908160001a905350600f60fb1b81600181518110611fbb57634e487b7160e01b600052603260045260246000fd5b60200101906001600160f81b031916908160001a9053506000611fdf8460026128de565b611fea9060016128c6565b90505b600181111561207e576f181899199a1a9b1b9c1cb0b131b232b360811b85600f166010811061202c57634e487b7160e01b600052603260045260246000fd5b1a60f81b82828151811061205057634e487b7160e01b600052603260045260246000fd5b60200101906001600160f81b031916908160001a90535060049490941c9361207781612929565b9050611fed565b5083156112595760405162461bcd60e51b815260206004820181905260248201527f537472696e67733a20686578206c656e67746820696e73756666696369656e7460448201526064016108f7565b604080516080810191829052607f0190826030600a8206018353600a90045b801561210a57600183039250600a81066030018353600a90046120ec565b50819003601f19909101908152919050565b82805461212890612940565b90600052602060002090601f01602090048101928261214a5760008555612190565b82601f106121635782800160ff19823516178555612190565b82800160010185558215612190579182015b82811115612190578235825591602001919060010190612175565b5061219c929150612214565b5090565b8280546121ac90612940565b90600052602060002090601f0160209004810192826121ce5760008555612190565b82601f106121e757805160ff1916838001178555612190565b82800160010185558215612190579182015b828111156121905782518255916020019190600101906121f9565b5b8082111561219c5760008155600101612215565b60006001600160401b03831115612242576122426129ac565b612255601f8401601f1916602001612896565b905082815283838301111561226957600080fd5b828260208301376000602084830101529392505050565b80356001600160a01b038116811461229757600080fd5b919050565b600082601f8301126122ac578081fd5b61125983833560208501612229565b6000602082840312156122cc578081fd5b61125982612280565b600080604083850312156122e7578081fd5b6122f083612280565b91506122fe60208401612280565b90509250929050565b60008060006060848603121561231b578081fd5b61232484612280565b925061233260208501612280565b9150604084013590509250925092565b60008060008060808587031215612357578081fd5b61236085612280565b935061236e60208601612280565b92506040850135915060608501356001600160401b0381111561238f578182fd5b8501601f8101871361239f578182fd5b6123ae87823560208401612229565b91505092959194509250565b600080604083850312156123cc578182fd5b6123d583612280565b91506020808401356001600160401b03808211156123f1578384fd5b818601915086601f830112612404578384fd5b813581811115612416576124166129ac565b8060051b612425858201612896565b8281528581019085870183870188018c101561243f578889fd5b8893505b8484101561247c5780358681111561245957898afd5b6124678d8a838b010161229c565b84525060019390930192918701918701612443565b50809750505050505050509250929050565b600080604083850312156124a0578182fd5b6124a983612280565b9150602083013580151581146124bd578182fd5b809150509250929050565b600080604083850312156124da578182fd5b6124e383612280565b946020939093013593505050565b600080600060608486031215612505578283fd5b61250e84612280565b95602085013595506040909401359392505050565b60008060208385031215612535578182fd5b82356001600160401b038082111561254b578384fd5b818501915085601f83011261255e578384fd5b81358181111561256c578485fd5b8660208260051b8501011115612580578485fd5b60209290920196919550909350505050565b6000602082840312156125a3578081fd5b5035919050565b600080604083850312156125bc578182fd5b823591506122fe60208401612280565b6000602082840312156125dd578081fd5b8135611259816129c2565b6000602082840312156125f9578081fd5b8151611259816129c2565b60008060208385031215612616578182fd5b82356001600160401b038082111561262c578384fd5b818501915085601f83011261263f578384fd5b81358181111561264d578485fd5b866020828501011115612580578485fd5b600081518084526126768160208601602086016128fd565b601f01601f19169290920160200192915050565b80516001600160a01b031682526020808201516001600160401b03169083015260408082015115159083015260609081015162ffffff16910152565b600083516126d88184602088016128fd565b8351908301906126ec8183602088016128fd565b01949350505050565b7f416363657373436f6e74726f6c3a206163636f756e742000000000000000000081526000835161272d8160178501602088016128fd565b7001034b99036b4b9b9b4b733903937b6329607d1b601791840191820152835161275e8160288401602088016128fd565b01602801949350505050565b6001600160a01b038581168252841660208201526040810183905260806060820181905260009061279d9083018461265e565b9695505050505050565b6020808252825182820181905260009190848201906040850190845b81811015611079576127d683855161268a565b92840192608092909201916001016127c3565b6020808252825182820181905260009190848201906040850190845b8181101561107957835183529284019291840191600101612805565b602081526000611259602083018461265e565b60208082526034908201527f455243373231415f5f496e697469616c697a61626c653a20636f6e7472616374604082015273206973206e6f7420696e697469616c697a696e6760601b606082015260800190565b608081016104c8828461268a565b604051601f8201601f191681016001600160401b03811182821017156128be576128be6129ac565b604052919050565b600082198211156128d9576128d9612996565b500190565b60008160001904831182151516156128f8576128f8612996565b500290565b60005b83811015612918578181015183820152602001612900565b838111156109255750506000910152565b60008161293857612938612996565b506000190190565b600181811c9082168061295457607f821691505b6020821081141561297557634e487b7160e01b600052602260045260246000fd5b50919050565b600060001982141561298f5761298f612996565b5060010190565b634e487b7160e01b600052601160045260246000fd5b634e487b7160e01b600052604160045260246000fd5b6001600160e01b03198116811461097357600080fdfe9f2df0fed2c77648de5860a4cc508cd0818c85b8b8a1ab4ceeef8d981c8956a6ddf252ad1be2c89b69c2b068fc378daa952ba7f163c4a11628f55a4df523b3efee151c8401928dc223602bb187aff91b9a56c7cae5476ef1b3287b085a16c85fa26469706673582212200495021e5c66b7d0a1a3b04a16d6f137ecfc76fcbe39052d5c33dc9d001b4db364736f6c63430008040033",
  "linkReferences": {},
  "deployedLinkReferences": {}
}