{
  "_format": "hh-sol-artifact-1",
  "contractName": "TMGToken",
  "sourceName": "contracts/TMGToken.sol",
  "abi": [
    {
      "inputs": [],
      "stateMutability": "nonpayable",
      "type": "constructor"
    },
    {
      "anonymous": false,
      "inputs": [
        {
          "indexed": true,
          "internalType": "address",
          "name": "owner",
          "type": "address"
        },
        {
          "indexed": true,
          "internalType": "address",
          "name": "spender",
          "type": "address"
        },
        {
          "indexed": false,
          "internalType": "uint256",
          "name": "value",
          "type": "uint256"
        }
      ],
      "name": "Approval",
      "type": "event"
    },
    {
      "anonymous": false,
      "inputs": [
        {
          "indexed": false,
          "internalType": "uint8",
          "name": "version",
          "type": "uint8"
        }
      ],
      "name": "Initialized",
      "type": "event"
    },
    {
      "anonymous": false,
      "inputs": [
        {
          "indexed": true,
          "internalType": "bytes32",
          "name": "role",
          "type": "bytes32"
        },
        {
          "indexed": true,
          "internalType": "bytes32",
          "name": "previousAdminRole",
          "type": "bytes32"
        },
        {
          "indexed": true,
          "internalType": "bytes32",
          "name": "newAdminRole",
          "type": "bytes32"
        }
      ],
      "name": "RoleAdminChanged",
      "type": "event"
    },
    {
      "anonymous": false,
      "inputs": [
        {
          "indexed": true,
          "internalType": "bytes32",
          "name": "role",
          "type": "bytes32"
        },
        {
          "indexed": true,
          "internalType": "address",
          "name": "account",
          "type": "address"
        },
        {
          "indexed": true,
          "internalType": "address",
          "name": "sender",
          "type": "address"
        }
      ],
      "name": "RoleGranted",
      "type": "event"
    },
    {
      "anonymous": false,
      "inputs": [
        {
          "indexed": true,
          "internalType": "bytes32",
          "name": "role",
          "type": "bytes32"
        },
        {
          "indexed": true,
          "internalType": "address",
          "name": "account",
          "type": "address"
        },
        {
          "indexed": true,
          "internalType": "address",
          "name": "sender",
          "type": "address"
        }
      ],
      "name": "RoleRevoked",
      "type": "event"
    },
    {
      "anonymous": false,
      "inputs": [
        {
          "indexed": true,
          "internalType": "address",
          "name": "from",
          "type": "address"
        },
        {
          "indexed": true,
          "internalType": "address",
          "name": "to",
          "type": "address"
        },
        {
          "indexed": false,
          "internalType": "uint256",
          "name": "value",
          "type": "uint256"
        }
      ],
      "name": "Transfer",
      "type": "event"
    },
    {
      "inputs": [],
      "name": "BURNER_ROLE",
      "outputs": [
        {
          "internalType": "bytes32",
          "name": "",
          "type": "bytes32"
        }
      ],
      "stateMutability": "view",
      "type": "function"
    },
    {
      "inputs": [],
      "name": "DEFAULT_ADMIN_ROLE",
      "outputs": [
        {
          "internalType": "bytes32",
          "name": "",
          "type": "bytes32"
        }
      ],
      "stateMutability": "view",
      "type": "function"
    },
    {
      "inputs": [
        {
          "internalType": "address",
          "name": "owner",
          "type": "address"
        },
        {
          "internalType": "address",
          "name": "spender",
          "type": "address"
        }
      ],
      "name": "allowance",
      "outputs": [
        {
          "internalType": "uint256",
          "name": "",
          "type": "uint256"
        }
      ],
      "stateMutability": "view",
      "type": "function"
    },
    {
      "inputs": [
        {
          "internalType": "address",
          "name": "spender",
          "type": "address"
        },
        {
          "internalType": "uint256",
          "name": "amount",
          "type": "uint256"
        }
      ],
      "name": "approve",
      "outputs": [
        {
          "internalType": "bool",
          "name": "",
          "type": "bool"
        }
      ],
      "stateMutability": "nonpayable",
      "type": "function"
    },
    {
      "inputs": [
        {
          "internalType": "address",
          "name": "account",
          "type": "address"
        }
      ],
      "name": "balanceOf",
      "outputs": [
        {
          "internalType": "uint256",
          "name": "",
          "type": "uint256"
        }
      ],
      "stateMutability": "view",
      "type": "function"
    },
    {
      "inputs": [
        {
          "internalType": "uint256",
          "name": "amount",
          "type": "uint256"
        }
      ],
      "name": "burn",
      "outputs": [],
      "stateMutability": "nonpayable",
      "type": "function"
    },
    {
      "inputs": [
        {
          "internalType": "address",
          "name": "account",
          "type": "address"
        },
        {
          "internalType": "uint256",
          "name": "amount",
          "type": "uint256"
        }
      ],
      "name": "burnFrom",
      "outputs": [],
      "stateMutability": "nonpayable",
      "type": "function"
    },
    {
      "inputs": [],
      "name": "decimals",
      "outputs": [
        {
          "internalType": "uint8",
          "name": "",
          "type": "uint8"
        }
      ],
      "stateMutability": "view",
      "type": "function"
    },
    {
      "inputs": [
        {
          "internalType": "address",
          "name": "spender",
          "type": "address"
        },
        {
          "internalType": "uint256",
          "name": "subtractedValue",
          "type": "uint256"
        }
      ],
      "name": "decreaseAllowance",
      "outputs": [
        {
          "internalType": "bool",
          "name": "",
          "type": "bool"
        }
      ],
      "stateMutability": "nonpayable",
      "type": "function"
    },
    {
      "inputs": [
        {
          "internalType": "bytes32",
          "name": "role",
          "type": "bytes32"
        }
      ],
      "name": "getRoleAdmin",
      "outputs": [
        {
          "internalType": "bytes32",
          "name": "",
          "type": "bytes32"
        }
      ],
      "stateMutability": "view",
      "type": "function"
    },
    {
      "inputs": [
        {
          "internalType": "bytes32",
          "name": "role",
          "type": "bytes32"
        },
        {
          "internalType": "address",
          "name": "account",
          "type": "address"
        }
      ],
      "name": "grantRole",
      "outputs": [],
      "stateMutability": "nonpayable",
      "type": "function"
    },
    {
      "inputs": [
        {
          "internalType": "bytes32",
          "name": "role",
          "type": "bytes32"
        },
        {
          "internalType": "address",
          "name": "account",
          "type": "address"
        }
      ],
      "name": "hasRole",
      "outputs": [
        {
          "internalType": "bool",
          "name": "",
          "type": "bool"
        }
      ],
      "stateMutability": "view",
      "type": "function"
    },
    {
      "inputs": [
        {
          "internalType": "address",
          "name": "spender",
          "type": "address"
        },
        {
          "internalType": "uint256",
          "name": "addedValue",
          "type": "uint256"
        }
      ],
      "name": "increaseAllowance",
      "outputs": [
        {
          "internalType": "bool",
          "name": "",
          "type": "bool"
        }
      ],
      "stateMutability": "nonpayable",
      "type": "function"
    },
    {
      "inputs": [],
      "name": "initialize",
      "outputs": [],
      "stateMutability": "nonpayable",
      "type": "function"
    },
    {
      "inputs": [],
      "name": "name",
      "outputs": [
        {
          "internalType": "string",
          "name": "",
          "type": "string"
        }
      ],
      "stateMutability": "view",
      "type": "function"
    },
    {
      "inputs": [
        {
          "internalType": "bytes32",
          "name": "role",
          "type": "bytes32"
        },
        {
          "internalType": "address",
          "name": "account",
          "type": "address"
        }
      ],
      "name": "renounceRole",
      "outputs": [],
      "stateMutability": "nonpayable",
      "type": "function"
    },
    {
      "inputs": [
        {
          "internalType": "bytes32",
          "name": "role",
          "type": "bytes32"
        },
        {
          "internalType": "address",
          "name": "account",
          "type": "address"
        }
      ],
      "name": "revokeRole",
      "outputs": [],
      "stateMutability": "nonpayable",
      "type": "function"
    },
    {
      "inputs": [
        {
          "internalType": "bytes4",
          "name": "interfaceId",
          "type": "bytes4"
        }
      ],
      "name": "supportsInterface",
      "outputs": [
        {
          "internalType": "bool",
          "name": "",
          "type": "bool"
        }
      ],
      "stateMutability": "view",
      "type": "function"
    },
    {
      "inputs": [],
      "name": "symbol",
      "outputs": [
        {
          "internalType": "string",
          "name": "",
          "type": "string"
        }
      ],
      "stateMutability": "view",
      "type": "function"
    },
    {
      "inputs": [],
      "name": "totalSupply",
      "outputs": [
        {
          "internalType": "uint256",
          "name": "",
          "type": "uint256"
        }
      ],
      "stateMutability": "view",
      "type": "function"
    },
    {
      "inputs": [
        {
          "internalType": "address",
          "name": "to",
          "type": "address"
        },
        {
          "internalType": "uint256",
          "name": "amount",
          "type": "uint256"
        }
      ],
      "name": "transfer",
      "outputs": [
        {
          "internalType": "bool",
          "name": "",
          "type": "bool"
        }
      ],
      "stateMutability": "nonpayable",
      "type": "function"
    },
    {
      "inputs": [
        {
          "internalType": "address",
          "name": "from",
          "type": "address"
        },
        {
          "internalType": "address",
          "name": "to",
          "type": "address"
        },
        {
          "internalType": "uint256",
          "name": "amount",
          "type": "uint256"
        }
      ],
      "name": "transferFrom",
      "outputs": [
        {
          "internalType": "bool",
          "name": "",
          "type": "bool"
        }
      ],
      "stateMutability": "nonpayable",
      "type": "function"
    }
  ],
  "bytecode": "0x60806040523480156200001157600080fd5b50600054610100900460ff1615808015620000335750600054600160ff909116105b8062000063575062000050306200013d60201b620007a91760201c565b15801562000063575060005460ff166001145b620000cb5760405162461bcd60e51b815260206004820152602e60248201527f496e697469616c697a61626c653a20636f6e747261637420697320616c72656160448201526d191e481a5b9a5d1a585b1a5e995960921b606482015260840160405180910390fd5b6000805460ff191660011790558015620000ef576000805461ff0019166101001790555b801562000136576000805461ff0019169055604051600181527f7f26b83ff96e1f2b6a682f133852f6798a09c465da95921460cefb38474024989060200160405180910390a15b506200014c565b6001600160a01b03163b151590565b6115fd806200015c6000396000f3fe608060405234801561001057600080fd5b50600436106101425760003560e01c806342966c68116100b857806395d89b411161007c57806395d89b41146102ba578063a217fddf146102c2578063a457c2d7146102ca578063a9059cbb146102dd578063d547741f146102f0578063dd62ed3e1461030357600080fd5b806342966c681461025057806370a082311461026357806379cc67901461028c5780638129fc1c1461029f57806391d14854146102a757600080fd5b8063248a9ca31161010a578063248a9ca3146101bc578063282c51f3146101df5780632f2ff15d14610206578063313ce5671461021b57806336568abe1461022a578063395093511461023d57600080fd5b806301ffc9a71461014757806306fdde031461016f578063095ea7b31461018457806318160ddd1461019757806323b872dd146101a9575b600080fd5b61015a6101553660046112dc565b610316565b60405190151581526020015b60405180910390f35b61017761034d565b6040516101669190611379565b61015a610192366004611279565b6103df565b6099545b604051908152602001610166565b61015a6101b736600461123e565b6103f7565b61019b6101ca3660046112a2565b60009081526065602052604090206001015490565b61019b7f3c11d16cbaffd01df69ce1c404f6340ee057498f5f00246190ea54220576a84881565b6102196102143660046112ba565b61041b565b005b60405160128152602001610166565b6102196102383660046112ba565b610445565b61015a61024b366004611279565b6104c8565b61021961025e3660046112a2565b6104ea565b61019b6102713660046111f2565b6001600160a01b031660009081526097602052604090205490565b61021961029a366004611279565b6104f7565b61021961050c565b61015a6102b53660046112ba565b610696565b6101776106c1565b61019b600081565b61015a6102d8366004611279565b6106d0565b61015a6102eb366004611279565b61074b565b6102196102fe3660046112ba565b610759565b61019b61031136600461120c565b61077e565b60006001600160e01b03198216637965db0b60e01b148061034757506301ffc9a760e01b6001600160e01b03198316145b92915050565b6060609a805461035c90611576565b80601f016020809104026020016040519081016040528092919081815260200182805461038890611576565b80156103d55780601f106103aa576101008083540402835291602001916103d5565b820191906000526020600020905b8154815290600101906020018083116103b857829003601f168201915b5050505050905090565b6000336103ed8185856107b8565b5060019392505050565b6000336104058582856108dc565b610410858585610956565b506001949350505050565b60008281526065602052604090206001015461043681610b24565b6104408383610b2e565b505050565b6001600160a01b03811633146104ba5760405162461bcd60e51b815260206004820152602f60248201527f416363657373436f6e74726f6c3a2063616e206f6e6c792072656e6f756e636560448201526e103937b632b9903337b91039b2b63360891b60648201526084015b60405180910390fd5b6104c48282610bb4565b5050565b6000336103ed8185856104db838361077e565b6104e591906113f7565b6107b8565b6104f43382610c1b565b50565b6105028233836108dc565b6104c48282610c1b565b600054610100900460ff161580801561052c5750600054600160ff909116105b806105465750303b158015610546575060005460ff166001145b6105a95760405162461bcd60e51b815260206004820152602e60248201527f496e697469616c697a61626c653a20636f6e747261637420697320616c72656160448201526d191e481a5b9a5d1a585b1a5e995960921b60648201526084016104b1565b6000805460ff1916600117905580156105cc576000805461ff0019166101001790555b610611604051806040016040528060088152602001672a26a3aa37b5b2b760c11b81525060405180604001604052806003815260200162544d4760e81b815250610d69565b610619610d9a565b610621610d9a565b610643336106316012600a611452565b61063e90620f42406114fd565b610dc3565b61064e600033610b2e565b80156104f4576000805461ff0019169055604051600181527f7f26b83ff96e1f2b6a682f133852f6798a09c465da95921460cefb38474024989060200160405180910390a150565b60009182526065602090815260408084206001600160a01b0393909316845291905290205460ff1690565b6060609b805461035c90611576565b600033816106de828661077e565b90508381101561073e5760405162461bcd60e51b815260206004820152602560248201527f45524332303a2064656372656173656420616c6c6f77616e63652062656c6f77604482015264207a65726f60d81b60648201526084016104b1565b61041082868684036107b8565b6000336103ed818585610956565b60008281526065602052604090206001015461077481610b24565b6104408383610bb4565b6001600160a01b03918216600090815260986020908152604080832093909416825291909152205490565b6001600160a01b03163b151590565b6001600160a01b03831661081a5760405162461bcd60e51b8152602060048201526024808201527f45524332303a20617070726f76652066726f6d20746865207a65726f206164646044820152637265737360e01b60648201526084016104b1565b6001600160a01b03821661087b5760405162461bcd60e51b815260206004820152602260248201527f45524332303a20617070726f766520746f20746865207a65726f206164647265604482015261737360f01b60648201526084016104b1565b6001600160a01b0383811660008181526098602090815260408083209487168084529482529182902085905590518481527f8c5be1e5ebec7d5bd14f71427d1e84f3dd0314c0f7b2291e5b200ac8c7c3b925910160405180910390a3505050565b60006108e8848461077e565b9050600019811461095057818110156109435760405162461bcd60e51b815260206004820152601d60248201527f45524332303a20696e73756666696369656e7420616c6c6f77616e636500000060448201526064016104b1565b61095084848484036107b8565b50505050565b6001600160a01b0383166109ba5760405162461bcd60e51b815260206004820152602560248201527f45524332303a207472616e736665722066726f6d20746865207a65726f206164604482015264647265737360d81b60648201526084016104b1565b6001600160a01b038216610a1c5760405162461bcd60e51b815260206004820152602360248201527f45524332303a207472616e7366657220746f20746865207a65726f206164647260448201526265737360e81b60648201526084016104b1565b6001600160a01b03831660009081526097602052604090205481811015610a945760405162461bcd60e51b815260206004820152602660248201527f45524332303a207472616e7366657220616d6f756e7420657863656564732062604482015265616c616e636560d01b60648201526084016104b1565b6001600160a01b03808516600090815260976020526040808220858503905591851681529081208054849290610acb9084906113f7565b92505081905550826001600160a01b0316846001600160a01b03167fddf252ad1be2c89b69c2b068fc378daa952ba7f163c4a11628f55a4df523b3ef84604051610b1791815260200190565b60405180910390a3610950565b6104f48133610ea2565b610b388282610696565b6104c45760008281526065602090815260408083206001600160a01b03851684529091529020805460ff19166001179055610b703390565b6001600160a01b0316816001600160a01b0316837f2f8788117e7eff1d82e926ec794901d17c78024a50270940304540a733656f0d60405160405180910390a45050565b610bbe8282610696565b156104c45760008281526065602090815260408083206001600160a01b0385168085529252808320805460ff1916905551339285917ff6391f5c32d9c69d2a47ea670b442974b53935d1edc7fd64eb21e047a839171b9190a45050565b6001600160a01b038216610c7b5760405162461bcd60e51b815260206004820152602160248201527f45524332303a206275726e2066726f6d20746865207a65726f206164647265736044820152607360f81b60648201526084016104b1565b6001600160a01b03821660009081526097602052604090205481811015610cef5760405162461bcd60e51b815260206004820152602260248201527f45524332303a206275726e20616d6f756e7420657863656564732062616c616e604482015261636560f01b60648201526084016104b1565b6001600160a01b0383166000908152609760205260408120838303905560998054849290610d1e90849061151c565b90915550506040518281526000906001600160a01b038516907fddf252ad1be2c89b69c2b068fc378daa952ba7f163c4a11628f55a4df523b3ef9060200160405180910390a3505050565b600054610100900460ff16610d905760405162461bcd60e51b81526004016104b1906113ac565b6104c48282610f06565b600054610100900460ff16610dc15760405162461bcd60e51b81526004016104b1906113ac565b565b6001600160a01b038216610e195760405162461bcd60e51b815260206004820152601f60248201527f45524332303a206d696e7420746f20746865207a65726f20616464726573730060448201526064016104b1565b8060996000828254610e2b91906113f7565b90915550506001600160a01b03821660009081526097602052604081208054839290610e589084906113f7565b90915550506040518181526001600160a01b038316906000907fddf252ad1be2c89b69c2b068fc378daa952ba7f163c4a11628f55a4df523b3ef9060200160405180910390a35050565b610eac8282610696565b6104c457610ec4816001600160a01b03166014610f54565b610ecf836020610f54565b604051602001610ee0929190611304565b60408051601f198184030181529082905262461bcd60e51b82526104b191600401611379565b600054610100900460ff16610f2d5760405162461bcd60e51b81526004016104b1906113ac565b8151610f4090609a90602085019061113d565b50805161044090609b90602084019061113d565b60606000610f638360026114fd565b610f6e9060026113f7565b67ffffffffffffffff811115610f9457634e487b7160e01b600052604160045260246000fd5b6040519080825280601f01601f191660200182016040528015610fbe576020820181803683370190505b509050600360fc1b81600081518110610fe757634e487b7160e01b600052603260045260246000fd5b60200101906001600160f81b031916908160001a905350600f60fb1b8160018151811061102457634e487b7160e01b600052603260045260246000fd5b60200101906001600160f81b031916908160001a90535060006110488460026114fd565b6110539060016113f7565b90505b60018111156110e7576f181899199a1a9b1b9c1cb0b131b232b360811b85600f166010811061109557634e487b7160e01b600052603260045260246000fd5b1a60f81b8282815181106110b957634e487b7160e01b600052603260045260246000fd5b60200101906001600160f81b031916908160001a90535060049490941c936110e08161155f565b9050611056565b5083156111365760405162461bcd60e51b815260206004820181905260248201527f537472696e67733a20686578206c656e67746820696e73756666696369656e7460448201526064016104b1565b9392505050565b82805461114990611576565b90600052602060002090601f01602090048101928261116b57600085556111b1565b82601f1061118457805160ff19168380011785556111b1565b828001600101855582156111b1579182015b828111156111b1578251825591602001919060010190611196565b506111bd9291506111c1565b5090565b5b808211156111bd57600081556001016111c2565b80356001600160a01b03811681146111ed57600080fd5b919050565b600060208284031215611203578081fd5b611136826111d6565b6000806040838503121561121e578081fd5b611227836111d6565b9150611235602084016111d6565b90509250929050565b600080600060608486031215611252578081fd5b61125b846111d6565b9250611269602085016111d6565b9150604084013590509250925092565b6000806040838503121561128b578182fd5b611294836111d6565b946020939093013593505050565b6000602082840312156112b3578081fd5b5035919050565b600080604083850312156112cc578182fd5b82359150611235602084016111d6565b6000602082840312156112ed578081fd5b81356001600160e01b031981168114611136578182fd5b7f416363657373436f6e74726f6c3a206163636f756e742000000000000000000081526000835161133c816017850160208801611533565b7001034b99036b4b9b9b4b733903937b6329607d1b601791840191820152835161136d816028840160208801611533565b01602801949350505050565b6020815260008251806020840152611398816040850160208701611533565b601f01601f19169190910160400192915050565b6020808252602b908201527f496e697469616c697a61626c653a20636f6e7472616374206973206e6f74206960408201526a6e697469616c697a696e6760a81b606082015260800190565b6000821982111561140a5761140a6115b1565b500190565b600181815b8085111561144a578160001904821115611430576114306115b1565b8085161561143d57918102915b93841c9390800290611414565b509250929050565b600061113660ff84168360008261146b57506001610347565b8161147857506000610347565b816001811461148e5760028114611498576114b4565b6001915050610347565b60ff8411156114a9576114a96115b1565b50506001821b610347565b5060208310610133831016604e8410600b84101617156114d7575081810a610347565b6114e1838361140f565b80600019048211156114f5576114f56115b1565b029392505050565b6000816000190483118215151615611517576115176115b1565b500290565b60008282101561152e5761152e6115b1565b500390565b60005b8381101561154e578181015183820152602001611536565b838111156109505750506000910152565b60008161156e5761156e6115b1565b506000190190565b600181811c9082168061158a57607f821691505b602082108114156115ab57634e487b7160e01b600052602260045260246000fd5b50919050565b634e487b7160e01b600052601160045260246000fdfea26469706673582212202ca79e3369235edf9644ef5e96c69ec5197be549d02858513a24303728ce59b364736f6c63430008040033",
  "linkReferences": {},
  "deployedLinkReferences": {}
}