{
  "_format": "hh-sol-artifact-1",
  "contractName": "TMRToken",
  "sourceName": "contracts/TMRToken.sol",
  "abi": [
    {
      "inputs": [],
      "stateMutability": "nonpayable",
      "type": "constructor"
    },
    {
      "anonymous": false,
      "inputs": [
        {
          "indexed": true,
          "internalType": "address",
          "name": "owner",
          "type": "address"
        },
        {
          "indexed": true,
          "internalType": "address",
          "name": "spender",
          "type": "address"
        },
        {
          "indexed": false,
          "internalType": "uint256",
          "name": "value",
          "type": "uint256"
        }
      ],
      "name": "Approval",
      "type": "event"
    },
    {
      "anonymous": false,
      "inputs": [
        {
          "indexed": false,
          "internalType": "uint8",
          "name": "version",
          "type": "uint8"
        }
      ],
      "name": "Initialized",
      "type": "event"
    },
    {
      "anonymous": false,
      "inputs": [
        {
          "indexed": true,
          "internalType": "bytes32",
          "name": "role",
          "type": "bytes32"
        },
        {
          "indexed": true,
          "internalType": "bytes32",
          "name": "previousAdminRole",
          "type": "bytes32"
        },
        {
          "indexed": true,
          "internalType": "bytes32",
          "name": "newAdminRole",
          "type": "bytes32"
        }
      ],
      "name": "RoleAdminChanged",
      "type": "event"
    },
    {
      "anonymous": false,
      "inputs": [
        {
          "indexed": true,
          "internalType": "bytes32",
          "name": "role",
          "type": "bytes32"
        },
        {
          "indexed": true,
          "internalType": "address",
          "name": "account",
          "type": "address"
        },
        {
          "indexed": true,
          "internalType": "address",
          "name": "sender",
          "type": "address"
        }
      ],
      "name": "RoleGranted",
      "type": "event"
    },
    {
      "anonymous": false,
      "inputs": [
        {
          "indexed": true,
          "internalType": "bytes32",
          "name": "role",
          "type": "bytes32"
        },
        {
          "indexed": true,
          "internalType": "address",
          "name": "account",
          "type": "address"
        },
        {
          "indexed": true,
          "internalType": "address",
          "name": "sender",
          "type": "address"
        }
      ],
      "name": "RoleRevoked",
      "type": "event"
    },
    {
      "anonymous": false,
      "inputs": [
        {
          "indexed": true,
          "internalType": "address",
          "name": "from",
          "type": "address"
        },
        {
          "indexed": true,
          "internalType": "address",
          "name": "to",
          "type": "address"
        },
        {
          "indexed": false,
          "internalType": "uint256",
          "name": "value",
          "type": "uint256"
        }
      ],
      "name": "Transfer",
      "type": "event"
    },
    {
      "inputs": [],
      "name": "BURNER_ROLE",
      "outputs": [
        {
          "internalType": "bytes32",
          "name": "",
          "type": "bytes32"
        }
      ],
      "stateMutability": "view",
      "type": "function"
    },
    {
      "inputs": [],
      "name": "DEFAULT_ADMIN_ROLE",
      "outputs": [
        {
          "internalType": "bytes32",
          "name": "",
          "type": "bytes32"
        }
      ],
      "stateMutability": "view",
      "type": "function"
    },
    {
      "inputs": [],
      "name": "MINTER_ROLE",
      "outputs": [
        {
          "internalType": "bytes32",
          "name": "",
          "type": "bytes32"
        }
      ],
      "stateMutability": "view",
      "type": "function"
    },
    {
      "inputs": [
        {
          "internalType": "address",
          "name": "owner",
          "type": "address"
        },
        {
          "internalType": "address",
          "name": "spender",
          "type": "address"
        }
      ],
      "name": "allowance",
      "outputs": [
        {
          "internalType": "uint256",
          "name": "",
          "type": "uint256"
        }
      ],
      "stateMutability": "view",
      "type": "function"
    },
    {
      "inputs": [
        {
          "internalType": "address",
          "name": "spender",
          "type": "address"
        },
        {
          "internalType": "uint256",
          "name": "amount",
          "type": "uint256"
        }
      ],
      "name": "approve",
      "outputs": [
        {
          "internalType": "bool",
          "name": "",
          "type": "bool"
        }
      ],
      "stateMutability": "nonpayable",
      "type": "function"
    },
    {
      "inputs": [
        {
          "internalType": "address",
          "name": "account",
          "type": "address"
        }
      ],
      "name": "balanceOf",
      "outputs": [
        {
          "internalType": "uint256",
          "name": "",
          "type": "uint256"
        }
      ],
      "stateMutability": "view",
      "type": "function"
    },
    {
      "inputs": [
        {
          "internalType": "uint256",
          "name": "amount",
          "type": "uint256"
        }
      ],
      "name": "burn",
      "outputs": [],
      "stateMutability": "nonpayable",
      "type": "function"
    },
    {
      "inputs": [
        {
          "internalType": "address",
          "name": "account",
          "type": "address"
        },
        {
          "internalType": "uint256",
          "name": "amount",
          "type": "uint256"
        }
      ],
      "name": "burnFrom",
      "outputs": [],
      "stateMutability": "nonpayable",
      "type": "function"
    },
    {
      "inputs": [],
      "name": "decimals",
      "outputs": [
        {
          "internalType": "uint8",
          "name": "",
          "type": "uint8"
        }
      ],
      "stateMutability": "view",
      "type": "function"
    },
    {
      "inputs": [
        {
          "internalType": "address",
          "name": "spender",
          "type": "address"
        },
        {
          "internalType": "uint256",
          "name": "subtractedValue",
          "type": "uint256"
        }
      ],
      "name": "decreaseAllowance",
      "outputs": [
        {
          "internalType": "bool",
          "name": "",
          "type": "bool"
        }
      ],
      "stateMutability": "nonpayable",
      "type": "function"
    },
    {
      "inputs": [
        {
          "internalType": "bytes32",
          "name": "role",
          "type": "bytes32"
        }
      ],
      "name": "getRoleAdmin",
      "outputs": [
        {
          "internalType": "bytes32",
          "name": "",
          "type": "bytes32"
        }
      ],
      "stateMutability": "view",
      "type": "function"
    },
    {
      "inputs": [
        {
          "internalType": "bytes32",
          "name": "role",
          "type": "bytes32"
        },
        {
          "internalType": "address",
          "name": "account",
          "type": "address"
        }
      ],
      "name": "grantRole",
      "outputs": [],
      "stateMutability": "nonpayable",
      "type": "function"
    },
    {
      "inputs": [
        {
          "internalType": "bytes32",
          "name": "role",
          "type": "bytes32"
        },
        {
          "internalType": "address",
          "name": "account",
          "type": "address"
        }
      ],
      "name": "hasRole",
      "outputs": [
        {
          "internalType": "bool",
          "name": "",
          "type": "bool"
        }
      ],
      "stateMutability": "view",
      "type": "function"
    },
    {
      "inputs": [
        {
          "internalType": "address",
          "name": "spender",
          "type": "address"
        },
        {
          "internalType": "uint256",
          "name": "addedValue",
          "type": "uint256"
        }
      ],
      "name": "increaseAllowance",
      "outputs": [
        {
          "internalType": "bool",
          "name": "",
          "type": "bool"
        }
      ],
      "stateMutability": "nonpayable",
      "type": "function"
    },
    {
      "inputs": [],
      "name": "initialize",
      "outputs": [],
      "stateMutability": "nonpayable",
      "type": "function"
    },
    {
      "inputs": [
        {
          "internalType": "address",
          "name": "to",
          "type": "address"
        },
        {
          "internalType": "uint256",
          "name": "amount",
          "type": "uint256"
        }
      ],
      "name": "mint",
      "outputs": [],
      "stateMutability": "nonpayable",
      "type": "function"
    },
    {
      "inputs": [],
      "name": "name",
      "outputs": [
        {
          "internalType": "string",
          "name": "",
          "type": "string"
        }
      ],
      "stateMutability": "view",
      "type": "function"
    },
    {
      "inputs": [
        {
          "internalType": "bytes32",
          "name": "role",
          "type": "bytes32"
        },
        {
          "internalType": "address",
          "name": "account",
          "type": "address"
        }
      ],
      "name": "renounceRole",
      "outputs": [],
      "stateMutability": "nonpayable",
      "type": "function"
    },
    {
      "inputs": [
        {
          "internalType": "bytes32",
          "name": "role",
          "type": "bytes32"
        },
        {
          "internalType": "address",
          "name": "account",
          "type": "address"
        }
      ],
      "name": "revokeRole",
      "outputs": [],
      "stateMutability": "nonpayable",
      "type": "function"
    },
    {
      "inputs": [
        {
          "internalType": "bytes4",
          "name": "interfaceId",
          "type": "bytes4"
        }
      ],
      "name": "supportsInterface",
      "outputs": [
        {
          "internalType": "bool",
          "name": "",
          "type": "bool"
        }
      ],
      "stateMutability": "view",
      "type": "function"
    },
    {
      "inputs": [],
      "name": "symbol",
      "outputs": [
        {
          "internalType": "string",
          "name": "",
          "type": "string"
        }
      ],
      "stateMutability": "view",
      "type": "function"
    },
    {
      "inputs": [],
      "name": "totalSupply",
      "outputs": [
        {
          "internalType": "uint256",
          "name": "",
          "type": "uint256"
        }
      ],
      "stateMutability": "view",
      "type": "function"
    },
    {
      "inputs": [
        {
          "internalType": "address",
          "name": "to",
          "type": "address"
        },
        {
          "internalType": "uint256",
          "name": "amount",
          "type": "uint256"
        }
      ],
      "name": "transfer",
      "outputs": [
        {
          "internalType": "bool",
          "name": "",
          "type": "bool"
        }
      ],
      "stateMutability": "nonpayable",
      "type": "function"
    },
    {
      "inputs": [
        {
          "internalType": "address",
          "name": "from",
          "type": "address"
        },
        {
          "internalType": "address",
          "name": "to",
          "type": "address"
        },
        {
          "internalType": "uint256",
          "name": "amount",
          "type": "uint256"
        }
      ],
      "name": "transferFrom",
      "outputs": [
        {
          "internalType": "bool",
          "name": "",
          "type": "bool"
        }
      ],
      "stateMutability": "nonpayable",
      "type": "function"
    }
  ],
  "bytecode": "0x60806040523480156200001157600080fd5b50600054610100900460ff1615808015620000335750600054600160ff909116105b8062000063575062000050306200013d60201b620008571760201c565b15801562000063575060005460ff166001145b620000cb5760405162461bcd60e51b815260206004820152602e60248201527f496e697469616c697a61626c653a20636f6e747261637420697320616c72656160448201526d191e481a5b9a5d1a585b1a5e995960921b606482015260840160405180910390fd5b6000805460ff191660011790558015620000ef576000805461ff0019166101001790555b801562000136576000805461ff0019169055604051600181527f7f26b83ff96e1f2b6a682f133852f6798a09c465da95921460cefb38474024989060200160405180910390a15b506200014c565b6001600160a01b03163b151590565b6116ab806200015c6000396000f3fe608060405234801561001057600080fd5b50600436106101585760003560e01c806342966c68116100c3578063a217fddf1161007c578063a217fddf146102eb578063a457c2d7146102f3578063a9059cbb14610306578063d539139314610319578063d547741f14610340578063dd62ed3e1461035357600080fd5b806342966c681461027957806370a082311461028c57806379cc6790146102b55780638129fc1c146102c857806391d14854146102d057806395d89b41146102e357600080fd5b8063282c51f311610115578063282c51f3146101f55780632f2ff15d1461021c578063313ce5671461023157806336568abe14610240578063395093511461025357806340c10f191461026657600080fd5b806301ffc9a71461015d57806306fdde0314610185578063095ea7b31461019a57806318160ddd146101ad57806323b872dd146101bf578063248a9ca3146101d2575b600080fd5b61017061016b36600461138a565b610366565b60405190151581526020015b60405180910390f35b61018d61039d565b60405161017c9190611427565b6101706101a8366004611327565b61042f565b6035545b60405190815260200161017c565b6101706101cd3660046112ec565b610447565b6101b16101e0366004611350565b600090815260c9602052604090206001015490565b6101b17f3c11d16cbaffd01df69ce1c404f6340ee057498f5f00246190ea54220576a84881565b61022f61022a366004611368565b61046b565b005b6040516012815260200161017c565b61022f61024e366004611368565b610495565b610170610261366004611327565b610518565b61022f610274366004611327565b61053a565b61022f610287366004611350565b61056e565b6101b161029a3660046112a0565b6001600160a01b031660009081526033602052604090205490565b61022f6102c3366004611327565b61057b565b61022f610590565b6101706102de366004611368565b610744565b61018d61076f565b6101b1600081565b610170610301366004611327565b61077e565b610170610314366004611327565b6107f9565b6101b17f9f2df0fed2c77648de5860a4cc508cd0818c85b8b8a1ab4ceeef8d981c8956a681565b61022f61034e366004611368565b610807565b6101b16103613660046112ba565b61082c565b60006001600160e01b03198216637965db0b60e01b148061039757506301ffc9a760e01b6001600160e01b03198316145b92915050565b6060603680546103ac90611624565b80601f01602080910402602001604051908101604052809291908181526020018280546103d890611624565b80156104255780601f106103fa57610100808354040283529160200191610425565b820191906000526020600020905b81548152906001019060200180831161040857829003601f168201915b5050505050905090565b60003361043d818585610866565b5060019392505050565b60003361045585828561098a565b610460858585610a04565b506001949350505050565b600082815260c9602052604090206001015461048681610bd2565b6104908383610bdc565b505050565b6001600160a01b038116331461050a5760405162461bcd60e51b815260206004820152602f60248201527f416363657373436f6e74726f6c3a2063616e206f6e6c792072656e6f756e636560448201526e103937b632b9903337b91039b2b63360891b60648201526084015b60405180910390fd5b6105148282610c62565b5050565b60003361043d81858561052b838361082c565b61053591906114a5565b610866565b7f9f2df0fed2c77648de5860a4cc508cd0818c85b8b8a1ab4ceeef8d981c8956a661056481610bd2565b6104908383610cc9565b6105783382610da8565b50565b61058682338361098a565b6105148282610da8565b600054610100900460ff16158080156105b05750600054600160ff909116105b806105ca5750303b1580156105ca575060005460ff166001145b61062d5760405162461bcd60e51b815260206004820152602e60248201527f496e697469616c697a61626c653a20636f6e747261637420697320616c72656160448201526d191e481a5b9a5d1a585b1a5e995960921b6064820152608401610501565b6000805460ff191660011790558015610650576000805461ff0019166101001790555b610695604051806040016040528060088152602001672a26a92a37b5b2b760c11b815250604051806040016040528060038152602001622a26a960e91b815250610ef6565b61069d610f27565b6106a5610f27565b6106c7336106b56012600a611500565b6106c290620f42406115ab565b610cc9565b6106d2600033610bdc565b6106fc7f9f2df0fed2c77648de5860a4cc508cd0818c85b8b8a1ab4ceeef8d981c8956a633610bdc565b8015610578576000805461ff0019169055604051600181527f7f26b83ff96e1f2b6a682f133852f6798a09c465da95921460cefb38474024989060200160405180910390a150565b600091825260c9602090815260408084206001600160a01b0393909316845291905290205460ff1690565b6060603780546103ac90611624565b6000338161078c828661082c565b9050838110156107ec5760405162461bcd60e51b815260206004820152602560248201527f45524332303a2064656372656173656420616c6c6f77616e63652062656c6f77604482015264207a65726f60d81b6064820152608401610501565b6104608286868403610866565b60003361043d818585610a04565b600082815260c9602052604090206001015461082281610bd2565b6104908383610c62565b6001600160a01b03918216600090815260346020908152604080832093909416825291909152205490565b6001600160a01b03163b151590565b6001600160a01b0383166108c85760405162461bcd60e51b8152602060048201526024808201527f45524332303a20617070726f76652066726f6d20746865207a65726f206164646044820152637265737360e01b6064820152608401610501565b6001600160a01b0382166109295760405162461bcd60e51b815260206004820152602260248201527f45524332303a20617070726f766520746f20746865207a65726f206164647265604482015261737360f01b6064820152608401610501565b6001600160a01b0383811660008181526034602090815260408083209487168084529482529182902085905590518481527f8c5be1e5ebec7d5bd14f71427d1e84f3dd0314c0f7b2291e5b200ac8c7c3b925910160405180910390a3505050565b6000610996848461082c565b905060001981146109fe57818110156109f15760405162461bcd60e51b815260206004820152601d60248201527f45524332303a20696e73756666696369656e7420616c6c6f77616e63650000006044820152606401610501565b6109fe8484848403610866565b50505050565b6001600160a01b038316610a685760405162461bcd60e51b815260206004820152602560248201527f45524332303a207472616e736665722066726f6d20746865207a65726f206164604482015264647265737360d81b6064820152608401610501565b6001600160a01b038216610aca5760405162461bcd60e51b815260206004820152602360248201527f45524332303a207472616e7366657220746f20746865207a65726f206164647260448201526265737360e81b6064820152608401610501565b6001600160a01b03831660009081526033602052604090205481811015610b425760405162461bcd60e51b815260206004820152602660248201527f45524332303a207472616e7366657220616d6f756e7420657863656564732062604482015265616c616e636560d01b6064820152608401610501565b6001600160a01b03808516600090815260336020526040808220858503905591851681529081208054849290610b799084906114a5565b92505081905550826001600160a01b0316846001600160a01b03167fddf252ad1be2c89b69c2b068fc378daa952ba7f163c4a11628f55a4df523b3ef84604051610bc591815260200190565b60405180910390a36109fe565b6105788133610f50565b610be68282610744565b61051457600082815260c9602090815260408083206001600160a01b03851684529091529020805460ff19166001179055610c1e3390565b6001600160a01b0316816001600160a01b0316837f2f8788117e7eff1d82e926ec794901d17c78024a50270940304540a733656f0d60405160405180910390a45050565b610c6c8282610744565b1561051457600082815260c9602090815260408083206001600160a01b0385168085529252808320805460ff1916905551339285917ff6391f5c32d9c69d2a47ea670b442974b53935d1edc7fd64eb21e047a839171b9190a45050565b6001600160a01b038216610d1f5760405162461bcd60e51b815260206004820152601f60248201527f45524332303a206d696e7420746f20746865207a65726f2061646472657373006044820152606401610501565b8060356000828254610d3191906114a5565b90915550506001600160a01b03821660009081526033602052604081208054839290610d5e9084906114a5565b90915550506040518181526001600160a01b038316906000907fddf252ad1be2c89b69c2b068fc378daa952ba7f163c4a11628f55a4df523b3ef9060200160405180910390a35050565b6001600160a01b038216610e085760405162461bcd60e51b815260206004820152602160248201527f45524332303a206275726e2066726f6d20746865207a65726f206164647265736044820152607360f81b6064820152608401610501565b6001600160a01b03821660009081526033602052604090205481811015610e7c5760405162461bcd60e51b815260206004820152602260248201527f45524332303a206275726e20616d6f756e7420657863656564732062616c616e604482015261636560f01b6064820152608401610501565b6001600160a01b0383166000908152603360205260408120838303905560358054849290610eab9084906115ca565b90915550506040518281526000906001600160a01b038516907fddf252ad1be2c89b69c2b068fc378daa952ba7f163c4a11628f55a4df523b3ef9060200160405180910390a3505050565b600054610100900460ff16610f1d5760405162461bcd60e51b81526004016105019061145a565b6105148282610fb4565b600054610100900460ff16610f4e5760405162461bcd60e51b81526004016105019061145a565b565b610f5a8282610744565b61051457610f72816001600160a01b03166014611002565b610f7d836020611002565b604051602001610f8e9291906113b2565b60408051601f198184030181529082905262461bcd60e51b825261050191600401611427565b600054610100900460ff16610fdb5760405162461bcd60e51b81526004016105019061145a565b8151610fee9060369060208501906111eb565b5080516104909060379060208401906111eb565b606060006110118360026115ab565b61101c9060026114a5565b67ffffffffffffffff81111561104257634e487b7160e01b600052604160045260246000fd5b6040519080825280601f01601f19166020018201604052801561106c576020820181803683370190505b509050600360fc1b8160008151811061109557634e487b7160e01b600052603260045260246000fd5b60200101906001600160f81b031916908160001a905350600f60fb1b816001815181106110d257634e487b7160e01b600052603260045260246000fd5b60200101906001600160f81b031916908160001a90535060006110f68460026115ab565b6111019060016114a5565b90505b6001811115611195576f181899199a1a9b1b9c1cb0b131b232b360811b85600f166010811061114357634e487b7160e01b600052603260045260246000fd5b1a60f81b82828151811061116757634e487b7160e01b600052603260045260246000fd5b60200101906001600160f81b031916908160001a90535060049490941c9361118e8161160d565b9050611104565b5083156111e45760405162461bcd60e51b815260206004820181905260248201527f537472696e67733a20686578206c656e67746820696e73756666696369656e746044820152606401610501565b9392505050565b8280546111f790611624565b90600052602060002090601f016020900481019282611219576000855561125f565b82601f1061123257805160ff191683800117855561125f565b8280016001018555821561125f579182015b8281111561125f578251825591602001919060010190611244565b5061126b92915061126f565b5090565b5b8082111561126b5760008155600101611270565b80356001600160a01b038116811461129b57600080fd5b919050565b6000602082840312156112b1578081fd5b6111e482611284565b600080604083850312156112cc578081fd5b6112d583611284565b91506112e360208401611284565b90509250929050565b600080600060608486031215611300578081fd5b61130984611284565b925061131760208501611284565b9150604084013590509250925092565b60008060408385031215611339578182fd5b61134283611284565b946020939093013593505050565b600060208284031215611361578081fd5b5035919050565b6000806040838503121561137a578182fd5b823591506112e360208401611284565b60006020828403121561139b578081fd5b81356001600160e01b0319811681146111e4578182fd5b7f416363657373436f6e74726f6c3a206163636f756e74200000000000000000008152600083516113ea8160178501602088016115e1565b7001034b99036b4b9b9b4b733903937b6329607d1b601791840191820152835161141b8160288401602088016115e1565b01602801949350505050565b60208152600082518060208401526114468160408501602087016115e1565b601f01601f19169190910160400192915050565b6020808252602b908201527f496e697469616c697a61626c653a20636f6e7472616374206973206e6f74206960408201526a6e697469616c697a696e6760a81b606082015260800190565b600082198211156114b8576114b861165f565b500190565b600181815b808511156114f85781600019048211156114de576114de61165f565b808516156114eb57918102915b93841c93908002906114c2565b509250929050565b60006111e460ff84168360008261151957506001610397565b8161152657506000610397565b816001811461153c576002811461154657611562565b6001915050610397565b60ff8411156115575761155761165f565b50506001821b610397565b5060208310610133831016604e8410600b8410161715611585575081810a610397565b61158f83836114bd565b80600019048211156115a3576115a361165f565b029392505050565b60008160001904831182151516156115c5576115c561165f565b500290565b6000828210156115dc576115dc61165f565b500390565b60005b838110156115fc5781810151838201526020016115e4565b838111156109fe5750506000910152565b60008161161c5761161c61165f565b506000190190565b600181811c9082168061163857607f821691505b6020821081141561165957634e487b7160e01b600052602260045260246000fd5b50919050565b634e487b7160e01b600052601160045260246000fdfea2646970667358221220814ee13741f625d38cef90d4ba3df812648ac7c1f200a02a0f641f142e231e7664736f6c63430008040033",
  "linkReferences": {},
  "deployedLinkReferences": {}
}