{
  "_format": "hh-sol-artifact-1",
  "contractName": "Toomics",
  "sourceName": "contracts/Toomics.sol",
  "abi": [
    {
      "inputs": [],
      "stateMutability": "nonpayable",
      "type": "constructor"
    },
    {
      "anonymous": false,
      "inputs": [
        {
          "indexed": false,
          "internalType": "address",
          "name": "validator",
          "type": "address"
        }
      ],
      "name": "AddValidator",
      "type": "event"
    },
    {
      "anonymous": false,
      "inputs": [
        {
          "indexed": false,
          "internalType": "address",
          "name": "nftAddress",
          "type": "address"
        },
        {
          "indexed": false,
          "internalType": "uint256[]",
          "name": "tokenIds",
          "type": "uint256[]"
        }
      ],
      "name": "BurnNFT",
      "type": "event"
    },
    {
      "anonymous": false,
      "inputs": [
        {
          "indexed": false,
          "internalType": "uint256",
          "name": "tmgAmount",
          "type": "uint256"
        },
        {
          "indexed": false,
          "internalType": "uint256",
          "name": "tmrAmount",
          "type": "uint256"
        }
      ],
      "name": "BurnToken",
      "type": "event"
    },
    {
      "anonymous": false,
      "inputs": [
        {
          "indexed": true,
          "internalType": "address",
          "name": "requester",
          "type": "address"
        },
        {
          "indexed": true,
          "internalType": "uint256",
          "name": "userId",
          "type": "uint256"
        },
        {
          "indexed": true,
          "internalType": "address",
          "name": "nftAddress",
          "type": "address"
        },
        {
          "indexed": false,
          "internalType": "uint256[]",
          "name": "tokenIds",
          "type": "uint256[]"
        }
      ],
      "name": "DepositNFT",
      "type": "event"
    },
    {
      "anonymous": false,
      "inputs": [
        {
          "indexed": true,
          "internalType": "address",
          "name": "requester",
          "type": "address"
        },
        {
          "indexed": true,
          "internalType": "uint256",
          "name": "userId",
          "type": "uint256"
        },
        {
          "indexed": true,
          "internalType": "address",
          "name": "tokenAddress",
          "type": "address"
        },
        {
          "indexed": false,
          "internalType": "uint256",
          "name": "amount",
          "type": "uint256"
        }
      ],
      "name": "DepositToken",
      "type": "event"
    },
    {
      "anonymous": false,
      "inputs": [
        {
          "indexed": false,
          "internalType": "uint8",
          "name": "version",
          "type": "uint8"
        }
      ],
      "name": "Initialized",
      "type": "event"
    },
    {
      "anonymous": false,
      "inputs": [
        {
          "indexed": true,
          "internalType": "address",
          "name": "requester",
          "type": "address"
        },
        {
          "indexed": false,
          "internalType": "uint256",
          "name": "nonce",
          "type": "uint256"
        },
        {
          "indexed": true,
          "internalType": "uint256",
          "name": "userId",
          "type": "uint256"
        },
        {
          "indexed": false,
          "internalType": "uint256",
          "name": "withdrawRequestId",
          "type": "uint256"
        },
        {
          "indexed": false,
          "internalType": "uint256[]",
          "name": "localIds",
          "type": "uint256[]"
        },
        {
          "indexed": true,
          "internalType": "address",
          "name": "nftAddress",
          "type": "address"
        },
        {
          "indexed": false,
          "internalType": "uint256",
          "name": "startTokenId",
          "type": "uint256"
        }
      ],
      "name": "MintNFT",
      "type": "event"
    },
    {
      "anonymous": false,
      "inputs": [
        {
          "indexed": false,
          "internalType": "address",
          "name": "requester",
          "type": "address"
        },
        {
          "indexed": false,
          "internalType": "uint256",
          "name": "nonce",
          "type": "uint256"
        }
      ],
      "name": "RejectTransaction",
      "type": "event"
    },
    {
      "anonymous": false,
      "inputs": [
        {
          "indexed": false,
          "internalType": "address",
          "name": "validator",
          "type": "address"
        }
      ],
      "name": "RemoveValidator",
      "type": "event"
    },
    {
      "anonymous": false,
      "inputs": [
        {
          "indexed": true,
          "internalType": "bytes32",
          "name": "role",
          "type": "bytes32"
        },
        {
          "indexed": true,
          "internalType": "bytes32",
          "name": "previousAdminRole",
          "type": "bytes32"
        },
        {
          "indexed": true,
          "internalType": "bytes32",
          "name": "newAdminRole",
          "type": "bytes32"
        }
      ],
      "name": "RoleAdminChanged",
      "type": "event"
    },
    {
      "anonymous": false,
      "inputs": [
        {
          "indexed": true,
          "internalType": "bytes32",
          "name": "role",
          "type": "bytes32"
        },
        {
          "indexed": true,
          "internalType": "address",
          "name": "account",
          "type": "address"
        },
        {
          "indexed": true,
          "internalType": "address",
          "name": "sender",
          "type": "address"
        }
      ],
      "name": "RoleGranted",
      "type": "event"
    },
    {
      "anonymous": false,
      "inputs": [
        {
          "indexed": true,
          "internalType": "bytes32",
          "name": "role",
          "type": "bytes32"
        },
        {
          "indexed": true,
          "internalType": "address",
          "name": "account",
          "type": "address"
        },
        {
          "indexed": true,
          "internalType": "address",
          "name": "sender",
          "type": "address"
        }
      ],
      "name": "RoleRevoked",
      "type": "event"
    },
    {
      "anonymous": false,
      "inputs": [
        {
          "indexed": true,
          "internalType": "address",
          "name": "requester",
          "type": "address"
        },
        {
          "indexed": false,
          "internalType": "uint256",
          "name": "nonce",
          "type": "uint256"
        },
        {
          "indexed": true,
          "internalType": "uint256",
          "name": "userId",
          "type": "uint256"
        },
        {
          "indexed": false,
          "internalType": "uint256",
          "name": "withdrawRequestId",
          "type": "uint256"
        },
        {
          "indexed": true,
          "internalType": "address",
          "name": "nftAddress",
          "type": "address"
        },
        {
          "indexed": false,
          "internalType": "uint256[]",
          "name": "tokenIds",
          "type": "uint256[]"
        }
      ],
      "name": "WithdrawNFT",
      "type": "event"
    },
    {
      "anonymous": false,
      "inputs": [
        {
          "indexed": true,
          "internalType": "address",
          "name": "requester",
          "type": "address"
        },
        {
          "indexed": false,
          "internalType": "uint256",
          "name": "nonce",
          "type": "uint256"
        },
        {
          "indexed": true,
          "internalType": "uint256",
          "name": "userId",
          "type": "uint256"
        },
        {
          "indexed": false,
          "internalType": "uint256",
          "name": "withdrawRequestId",
          "type": "uint256"
        },
        {
          "indexed": true,
          "internalType": "address",
          "name": "tokenAddress",
          "type": "address"
        },
        {
          "indexed": false,
          "internalType": "uint256",
          "name": "amount",
          "type": "uint256"
        }
      ],
      "name": "WithdrawToken",
      "type": "event"
    },
    {
      "inputs": [],
      "name": "DEFAULT_ADMIN_ROLE",
      "outputs": [
        {
          "internalType": "bytes32",
          "name": "",
          "type": "bytes32"
        }
      ],
      "stateMutability": "view",
      "type": "function"
    },
    {
      "inputs": [],
      "name": "WITHDRAW_NFT",
      "outputs": [
        {
          "internalType": "bytes32",
          "name": "",
          "type": "bytes32"
        }
      ],
      "stateMutability": "view",
      "type": "function"
    },
    {
      "inputs": [],
      "name": "WITHDRAW_TOKEN",
      "outputs": [
        {
          "internalType": "bytes32",
          "name": "",
          "type": "bytes32"
        }
      ],
      "stateMutability": "view",
      "type": "function"
    },
    {
      "inputs": [
        {
          "internalType": "address",
          "name": "_validator",
          "type": "address"
        }
      ],
      "name": "addValidator",
      "outputs": [],
      "stateMutability": "nonpayable",
      "type": "function"
    },
    {
      "inputs": [
        {
          "internalType": "address",
          "name": "nftAddress",
          "type": "address"
        },
        {
          "internalType": "uint256[]",
          "name": "tokenIds",
          "type": "uint256[]"
        }
      ],
      "name": "burnNFT",
      "outputs": [],
      "stateMutability": "nonpayable",
      "type": "function"
    },
    {
      "inputs": [
        {
          "internalType": "uint256",
          "name": "tmgAmount",
          "type": "uint256"
        },
        {
          "internalType": "uint256",
          "name": "tmrAmount",
          "type": "uint256"
        }
      ],
      "name": "burnToken",
      "outputs": [],
      "stateMutability": "nonpayable",
      "type": "function"
    },
    {
      "inputs": [
        {
          "internalType": "uint256",
          "name": "_threshold",
          "type": "uint256"
        }
      ],
      "name": "changeThreshold",
      "outputs": [],
      "stateMutability": "nonpayable",
      "type": "function"
    },
    {
      "inputs": [
        {
          "internalType": "uint256",
          "name": "userId",
          "type": "uint256"
        },
        {
          "internalType": "address",
          "name": "nftAddress",
          "type": "address"
        },
        {
          "internalType": "uint256[]",
          "name": "tokenIds",
          "type": "uint256[]"
        }
      ],
      "name": "depositNFT",
      "outputs": [],
      "stateMutability": "nonpayable",
      "type": "function"
    },
    {
      "inputs": [
        {
          "internalType": "uint256",
          "name": "userId",
          "type": "uint256"
        },
        {
          "internalType": "address",
          "name": "tokenAddress",
          "type": "address"
        },
        {
          "internalType": "uint256",
          "name": "amount",
          "type": "uint256"
        }
      ],
      "name": "depositToken",
      "outputs": [],
      "stateMutability": "nonpayable",
      "type": "function"
    },
    {
      "inputs": [],
      "name": "getChainID",
      "outputs": [
        {
          "internalType": "uint256",
          "name": "id",
          "type": "uint256"
        }
      ],
      "stateMutability": "view",
      "type": "function"
    },
    {
      "inputs": [
        {
          "internalType": "bytes32",
          "name": "role",
          "type": "bytes32"
        }
      ],
      "name": "getRoleAdmin",
      "outputs": [
        {
          "internalType": "bytes32",
          "name": "",
          "type": "bytes32"
        }
      ],
      "stateMutability": "view",
      "type": "function"
    },
    {
      "inputs": [],
      "name": "getValidators",
      "outputs": [
        {
          "internalType": "address[]",
          "name": "",
          "type": "address[]"
        }
      ],
      "stateMutability": "view",
      "type": "function"
    },
    {
      "inputs": [
        {
          "internalType": "bytes32",
          "name": "role",
          "type": "bytes32"
        },
        {
          "internalType": "address",
          "name": "account",
          "type": "address"
        }
      ],
      "name": "grantRole",
      "outputs": [],
      "stateMutability": "nonpayable",
      "type": "function"
    },
    {
      "inputs": [
        {
          "internalType": "bytes32",
          "name": "role",
          "type": "bytes32"
        },
        {
          "internalType": "address",
          "name": "account",
          "type": "address"
        }
      ],
      "name": "hasRole",
      "outputs": [
        {
          "internalType": "bool",
          "name": "",
          "type": "bool"
        }
      ],
      "stateMutability": "view",
      "type": "function"
    },
    {
      "inputs": [
        {
          "internalType": "address",
          "name": "_tmgToken",
          "type": "address"
        },
        {
          "internalType": "address",
          "name": "_tmrToken",
          "type": "address"
        },
        {
          "internalType": "address",
          "name": "_nftCharacters",
          "type": "address"
        },
        {
          "internalType": "address",
          "name": "_nftBadges",
          "type": "address"
        },
        {
          "internalType": "address",
          "name": "_nftEquipments",
          "type": "address"
        }
      ],
      "name": "initialize",
      "outputs": [],
      "stateMutability": "nonpayable",
      "type": "function"
    },
    {
      "inputs": [
        {
          "internalType": "uint256",
          "name": "",
          "type": "uint256"
        }
      ],
      "name": "isNonceExecuted",
      "outputs": [
        {
          "internalType": "bool",
          "name": "",
          "type": "bool"
        }
      ],
      "stateMutability": "view",
      "type": "function"
    },
    {
      "inputs": [
        {
          "internalType": "address",
          "name": "",
          "type": "address"
        }
      ],
      "name": "nftAddressToAuthorized",
      "outputs": [
        {
          "internalType": "bool",
          "name": "",
          "type": "bool"
        }
      ],
      "stateMutability": "view",
      "type": "function"
    },
    {
      "inputs": [
        {
          "internalType": "address",
          "name": "",
          "type": "address"
        },
        {
          "internalType": "address",
          "name": "",
          "type": "address"
        },
        {
          "internalType": "uint256",
          "name": "",
          "type": "uint256"
        },
        {
          "internalType": "bytes",
          "name": "",
          "type": "bytes"
        }
      ],
      "name": "onERC721Received",
      "outputs": [
        {
          "internalType": "bytes4",
          "name": "",
          "type": "bytes4"
        }
      ],
      "stateMutability": "nonpayable",
      "type": "function"
    },
    {
      "inputs": [
        {
          "internalType": "uint256",
          "name": "nonce",
          "type": "uint256"
        }
      ],
      "name": "rejectTransaction",
      "outputs": [],
      "stateMutability": "nonpayable",
      "type": "function"
    },
    {
      "inputs": [
        {
          "internalType": "address",
          "name": "_validator",
          "type": "address"
        }
      ],
      "name": "removeValidator",
      "outputs": [],
      "stateMutability": "nonpayable",
      "type": "function"
    },
    {
      "inputs": [
        {
          "internalType": "bytes32",
          "name": "role",
          "type": "bytes32"
        },
        {
          "internalType": "address",
          "name": "account",
          "type": "address"
        }
      ],
      "name": "renounceRole",
      "outputs": [],
      "stateMutability": "nonpayable",
      "type": "function"
    },
    {
      "inputs": [
        {
          "internalType": "bytes32",
          "name": "role",
          "type": "bytes32"
        },
        {
          "internalType": "address",
          "name": "account",
          "type": "address"
        }
      ],
      "name": "revokeRole",
      "outputs": [],
      "stateMutability": "nonpayable",
      "type": "function"
    },
    {
      "inputs": [
        {
          "internalType": "bytes4",
          "name": "interfaceId",
          "type": "bytes4"
        }
      ],
      "name": "supportsInterface",
      "outputs": [
        {
          "internalType": "bool",
          "name": "",
          "type": "bool"
        }
      ],
      "stateMutability": "view",
      "type": "function"
    },
    {
      "inputs": [
        {
          "internalType": "bytes[]",
          "name": "signature",
          "type": "bytes[]"
        },
        {
          "internalType": "uint256",
          "name": "nonce",
          "type": "uint256"
        },
        {
          "internalType": "uint256",
          "name": "userId",
          "type": "uint256"
        },
        {
          "internalType": "uint256",
          "name": "withdrawRequestId",
          "type": "uint256"
        },
        {
          "internalType": "uint256[]",
          "name": "localIds",
          "type": "uint256[]"
        },
        {
          "internalType": "address",
          "name": "nftAddress",
          "type": "address"
        },
        {
          "internalType": "uint256[]",
          "name": "tokenIds",
          "type": "uint256[]"
        }
      ],
      "name": "withdrawNFT",
      "outputs": [],
      "stateMutability": "nonpayable",
      "type": "function"
    },
    {
      "inputs": [
        {
          "internalType": "bytes[]",
          "name": "signature",
          "type": "bytes[]"
        },
        {
          "internalType": "uint256",
          "name": "nonce",
          "type": "uint256"
        },
        {
          "internalType": "uint256",
          "name": "userId",
          "type": "uint256"
        },
        {
          "internalType": "uint256",
          "name": "withdrawRequestId",
          "type": "uint256"
        },
        {
          "internalType": "address",
          "name": "tokenAddress",
          "type": "address"
        },
        {
          "internalType": "uint256",
          "name": "amount",
          "type": "uint256"
        }
      ],
      "name": "withdrawToken",
      "outputs": [],
      "stateMutability": "nonpayable",
      "type": "function"
    }
  ],
  "bytecode": "0x60806040523480156200001157600080fd5b50600054610100900460ff1615808015620000335750600054600160ff909116105b8062000063575062000050306200013d60201b62001b041760201c565b15801562000063575060005460ff166001145b620000cb5760405162461bcd60e51b815260206004820152602e60248201527f496e697469616c697a61626c653a20636f6e747261637420697320616c72656160448201526d191e481a5b9a5d1a585b1a5e995960921b606482015260840160405180910390fd5b6000805460ff191660011790558015620000ef576000805461ff0019166101001790555b801562000136576000805461ff0019169055604051600181527f7f26b83ff96e1f2b6a682f133852f6798a09c465da95921460cefb38474024989060200160405180910390a15b506200014c565b6001600160a01b03163b151590565b61334a806200015c6000396000f3fe608060405234801561001057600080fd5b50600436106101735760003560e01c80634d238c8e116100de57806391d1485411610097578063b583288411610071578063b58328841461037e578063b7ab4db5146103a5578063c78dafe2146103ba578063d547741f146103cd57600080fd5b806391d14854146103505780639cb22ac614610363578063a217fddf1461037657600080fd5b80634d238c8e146102da578063564b81ef146102ed5780635a086f6f146102f3578063694e80c3146103175780638225b2471461032a57806386529a611461033d57600080fd5b8063248a9ca311610130578063248a9ca3146102255780632f2ff15d1461025657806336568abe1461026957806338cd2df11461027c5780633ed3a054146102a057806340a141ff146102c757600080fd5b806301ffc9a71461017857806305bf37aa146101a05780630a9306d7146101b55780631459457a146101c8578063150b7a02146101db57806316796a6e14610212575b600080fd5b61018b610186366004612d19565b6103e0565b60405190151581526020015b60405180910390f35b6101b36101ae366004612cd2565b610417565b005b6101b36101c3366004612db3565b6104cb565b6101b36101d6366004612a3f565b6105b6565b6101f96101e9366004612aaf565b630a85bd0160e11b949350505050565b6040516001600160e01b03199091168152602001610197565b6101b3610220366004612d59565b610797565b610248610233366004612cd2565b60009081526099602052604090206001015490565b604051908152602001610197565b6101b3610264366004612cea565b61093f565b6101b3610277366004612cea565b610969565b61018b61028a366004612cd2565b60ff602081905260009182526040909120541681565b6102487f11677d7fbcc601209a7a1981f471bc2277d3d095b4d693c314fac03bce18c04681565b6101b36102d5366004612a07565b6109e7565b6101b36102e8366004612a07565b610bc7565b46610248565b61018b610301366004612a07565b6101026020526000908152604090205460ff1681565b6101b3610325366004612cd2565b610d55565b6101b3610338366004612dea565b610dc4565b6101b361034b366004612b19565b610ec4565b61018b61035e366004612cea565b611129565b6101b3610371366004612b6c565b611154565b610248600081565b6102487f2f4e78997f6043cfd96bbdacc17c436098c8d40b923de222051817ea2f2ffc3881565b6103ad61156c565b6040516101979190612f28565b6101b36103c8366004612be8565b6115ce565b6101b36103db366004612cea565b611adf565b60006001600160e01b03198216637965db0b60e01b148061041157506301ffc9a760e01b6001600160e01b03198316145b92915050565b600081815260ff602081905260409091205416156104755760405162461bcd60e51b815260206004820152601660248201527556616c696461746f723a2077726f6e67206e6f6e636560501b60448201526064015b60405180910390fd5b600081815260ff6020908152604091829020805460ff1916600117905581513381529081018390527f37d7286dbb2f5a308161b6fdd908127173dffde6c58774bd9aecfc796d3c97f2910160405180910390a150565b610100546001600160a01b03838116911614806104f65750610101546001600160a01b038381169116145b80156105025750600081115b61054e5760405162461bcd60e51b815260206004820152601d60248201527f6465706f736974546f6b656e3a20696e76616c69642061646472657373000000604482015260640161046c565b6105636001600160a01b038316333084611b13565b816001600160a01b031683336001600160a01b03167fa83f5d61b2e2ec9302738a186742c9757e5344fdf53f3ac84e010e165c5b6324846040516105a991815260200190565b60405180910390a4505050565b600054610100900460ff16158080156105d65750600054600160ff909116105b806105f05750303b1580156105f0575060005460ff166001145b6106535760405162461bcd60e51b815260206004820152602e60248201527f496e697469616c697a61626c653a20636f6e747261637420697320616c72656160448201526d191e481a5b9a5d1a585b1a5e995960921b606482015260840161046c565b6000805460ff191660011790558015610676576000805461ff0019166101001790555b61067e611b84565b61010080546001600160a01b038089166001600160a01b0319928316179092556101018054888416921691909117905584811660009081526101026020526040808220805460ff199081166001908117909255878516845282842080548216831790559386168352908220805490931617909155610702906106fd3390565b611bad565b61074460405180604001604052806007815260200166746f6f6d69637360c81b815250604051806040016040528060018152602001603160f81b815250611c33565b600160fe55801561078f576000805461ff0019169055604051600181527f7f26b83ff96e1f2b6a682f133852f6798a09c465da95921460cefb38474024989060200160405180910390a15b505050505050565b6001600160a01b03831660009081526101026020526040902054839060ff166107d25760405162461bcd60e51b815260040161046c90612fbc565b828280158015906107e4575060058111155b6108295760405162461bcd60e51b8152602060048201526016602482015275546f6f6d6963733a20496e76616c696420617272617960501b604482015260640161046c565b60005b848110156108e757866001600160a01b03166342842e0e333089898681811061086557634e487b7160e01b600052603260045260246000fd5b6040516001600160e01b031960e088901b1681526001600160a01b03958616600482015294909316602485015250602090910201356044820152606401600060405180830381600087803b1580156108bc57600080fd5b505af11580156108d0573d6000803e3d6000fd5b5050505080806108df906132b8565b91505061082c565b50856001600160a01b031687336001600160a01b03167fd22521e1f890fb199e17eff5c1bcd80ff1b4291683ae61d46365e1caf1a34c33888860405161092e929190612f75565b60405180910390a450505050505050565b60008281526099602052604090206001015461095a81611c64565b6109648383611bad565b505050565b6001600160a01b03811633146109d95760405162461bcd60e51b815260206004820152602f60248201527f416363657373436f6e74726f6c3a2063616e206f6e6c792072656e6f756e636560448201526e103937b632b9903337b91039b2b63360891b606482015260840161046c565b6109e38282611c71565b5050565b60006109f281611c64565b60005b60fd54811015610b6d5760fd8181548110610a2057634e487b7160e01b600052603260045260246000fd5b6000918252602090912001546001600160a01b0384811691161415610b5b5760fd8054610a4f906001906131d5565b81548110610a6d57634e487b7160e01b600052603260045260246000fd5b60009182526020909120015460fd80546001600160a01b039092169183908110610aa757634e487b7160e01b600052603260045260246000fd5b9060005260206000200160006101000a8154816001600160a01b0302191690836001600160a01b0316021790555060fd805480610af457634e487b7160e01b600052603160045260246000fd5b6000828152602090819020600019908301810180546001600160a01b03191690559091019091556040516001600160a01b03851681527f1af60f72d206709ac9c5fd393b54381507af4df1feb01708422ef8498c57aa5791015b60405180910390a1505050565b80610b65816132b8565b9150506109f5565b5060405162461bcd60e51b815260206004820152602860248201527f56616c696461746f723a2056616c696461746f72206e6f7420666f756e6420746044820152676f2072656d6f766560c01b606482015260840161046c565b6000610bd281611c64565b6001600160a01b038216610c285760405162461bcd60e51b815260206004820152601760248201527f56616c696461746f723a204e756c6c2061646472657373000000000000000000604482015260640161046c565b60005b60fd54811015610ccf5760fd8181548110610c5657634e487b7160e01b600052603260045260246000fd5b6000918252602090912001546001600160a01b0384811691161415610cbd5760405162461bcd60e51b815260206004820152601860248201527f56616c696461746f723a20416c72656164792061646465640000000000000000604482015260640161046c565b80610cc7816132b8565b915050610c2b565b5060fd80546001810182556000919091527f9346ac6dd7de6b96975fec380d4d994c4c12e6a8897544f22915316cc6cca2800180546001600160a01b0319166001600160a01b0384169081179091556040519081527f6a7a7b9e5967ba1cf76c3d7d5a9b98e96f11754855b04564fada97b94741ad369060200160405180910390a15050565b6000610d6081611c64565b600082118015610d72575060fd548211155b610dbe5760405162461bcd60e51b815260206004820152601c60248201527f56616c696461746f723a20696e76616c6964207468726573686f6c6400000000604482015260640161046c565b5060fe55565b6000610dcf81611c64565b61010054604051630852cd8d60e31b8152600481018590526001600160a01b03909116906342966c6890602401600060405180830381600087803b158015610e1657600080fd5b505af1158015610e2a573d6000803e3d6000fd5b505061010154604051630852cd8d60e31b8152600481018690526001600160a01b0390911692506342966c689150602401600060405180830381600087803b158015610e7557600080fd5b505af1158015610e89573d6000803e3d6000fd5b505060408051868152602081018690527fcbe8e207351205a2b38ef9d0e9b765d07ea6ff98b21fbdf1580847f4115dda509350019050610b4e565b6000610ecf81611c64565b6001600160a01b03841660009081526101026020526040902054849060ff16610f0a5760405162461bcd60e51b815260040161046c90612fbc565b82610f475760405162461bcd60e51b815260206004820152600d60248201526c496e76616c696420617272617960981b604482015260640161046c565b60005b838110156110e657306001600160a01b038716636352211e878785818110610f8257634e487b7160e01b600052603260045260246000fd5b905060200201356040518263ffffffff1660e01b8152600401610fa791815260200190565b60206040518083038186803b158015610fbf57600080fd5b505afa158015610fd3573d6000803e3d6000fd5b505050506040513d601f19601f82011682018060405250810190610ff79190612a23565b6001600160a01b03161461104d5760405162461bcd60e51b815260206004820152601e60248201527f546f6f6d6963732f6275726e4e46543a206e6f7420746865206f776e65720000604482015260640161046c565b856001600160a01b03166342966c6886868481811061107c57634e487b7160e01b600052603260045260246000fd5b905060200201356040518263ffffffff1660e01b81526004016110a191815260200190565b600060405180830381600087803b1580156110bb57600080fd5b505af11580156110cf573d6000803e3d6000fd5b5050505080806110de906132b8565b915050610f4a565b507ffe4b4dca71e75a87453da565aaedf6a2d04ee9a78ec4aa35912b5b4850a0c0b485858560405161111a93929190612efa565b60405180910390a15050505050565b60009182526099602090815260408084206001600160a01b0393909316845291905290205460ff1690565b61115e86886131ec565b8560fe54825110156111b25760405162461bcd60e51b815260206004820181905260248201527f56616c696461746f723a205468726573686f6c64206e6f742072656163686564604482015260640161046c565b600081815260ff602081905260409091205416156111e25760405162461bcd60e51b815260040161046c90612ff3565b60028251106112f15760005b82518110156112ef57600061120482600161319e565b90505b83518110156112dc5783818151811061123057634e487b7160e01b600052603260045260246000fd5b60200260200101516040516020016112489190612e69565b6040516020818303038152906040528051906020012084838151811061127e57634e487b7160e01b600052603260045260246000fd5b60200260200101516040516020016112969190612e69565b6040516020818303038152906040528051906020012014156112ca5760405162461bcd60e51b815260040161046c90613039565b806112d4816132b8565b915050611207565b50806112e7816132b8565b9150506111ee565b505b610100546001600160a01b038581169116148061131c5750610101546001600160a01b038581169116145b80156113285750600083115b6113745760405162461bcd60e51b815260206004820152601e60248201527f7769746864726177546f6b656e3a20696e76616c696420616464726573730000604482015260640161046c565b611384898989338a8a8a8a611cd8565b6113d05760405162461bcd60e51b815260206004820181905260248201527f7769746864726177546f6b656e3a20696e76616c6964207369676e6174757265604482015260640161046c565b600087815260ff60205260409020805460ff19166001179055610100546001600160a01b0385811691161415611419576114146001600160a01b0385163385611e0f565b611511565b6040516370a0823160e01b815230600482015283906001600160a01b038616906370a082319060240160206040518083038186803b15801561145a57600080fd5b505afa15801561146e573d6000803e3d6000fd5b505050506040513d601f19601f820116820180604052508101906114929190612d41565b10156114fd576040516340c10f1960e01b8152336004820152602481018490526001600160a01b038516906340c10f1990604401600060405180830381600087803b1580156114e057600080fd5b505af11580156114f4573d6000803e3d6000fd5b50505050611511565b6115116001600160a01b0385163385611e0f565b60408051888152602081018790529081018490526001600160a01b03851690879033907f0ca81abcdb521b0c81bbbc8eda21d8e34587d4a0bfc6e04f65480fd994b676919060600160405180910390a4505050505050505050565b606060fd8054806020026020016040519081016040528092919081815260200182805480156115c457602002820191906000526020600020905b81546001600160a01b031681526001909101906020018083116115a6575b5050505050905090565b6001600160a01b03831660009081526101026020526040902054839060ff166116095760405162461bcd60e51b815260040161046c90612fbc565b6116138a8c6131ec565b8960fe54825110156116675760405162461bcd60e51b815260206004820181905260248201527f56616c696461746f723a205468726573686f6c64206e6f742072656163686564604482015260640161046c565b600081815260ff602081905260409091205416156116975760405162461bcd60e51b815260040161046c90612ff3565b60028251106117a65760005b82518110156117a45760006116b982600161319e565b90505b8351811015611791578381815181106116e557634e487b7160e01b600052603260045260246000fd5b60200260200101516040516020016116fd9190612e69565b6040516020818303038152906040528051906020012084838151811061173357634e487b7160e01b600052603260045260246000fd5b602002602001015160405160200161174b9190612e69565b60405160208183030381529060405280519060200120141561177f5760405162461bcd60e51b815260040161046c90613039565b80611789816132b8565b9150506116bc565b508061179c816132b8565b9150506116a3565b505b60006117b2858961319e565b1180156117c9575060056117c6858961319e565b11155b61180e5760405162461bcd60e51b8152602060048201526016602482015275546f6f6d6963733a20496e76616c696420617272617960501b604482015260640161046c565b6118218d8d8d338e8e8e8e8e8e8e611e3f565b61186d5760405162461bcd60e51b815260206004820152601e60248201527f77697468647261774e46543a20696e76616c6964207369676e61747572650000604482015260640161046c565b60008b815260ff60205260409020805460ff1916600117905586156119b8576000866001600160a01b03166375794a3c6040518163ffffffff1660e01b815260040160206040518083038186803b1580156118c757600080fd5b505afa1580156118db573d6000803e3d6000fd5b505050506040513d601f19601f820116820180604052508101906118ff9190612d41565b6040516340c10f1960e01b8152336004820152602481018a90529091506001600160a01b038816906340c10f1990604401600060405180830381600087803b15801561194a57600080fd5b505af115801561195e573d6000803e3d6000fd5b50505050866001600160a01b03168b336001600160a01b03167f6ddf46d5b775d811af4bcae562904f7945e1043feb0d7a1b1b7d787ecad4121b8f8e8e8e886040516119ae9594939291906130f6565b60405180910390a4505b8315611ad05760005b84811015611a7c57866001600160a01b03166342842e0e30338989868181106119fa57634e487b7160e01b600052603260045260246000fd5b6040516001600160e01b031960e088901b1681526001600160a01b03958616600482015294909316602485015250602090910201356044820152606401600060405180830381600087803b158015611a5157600080fd5b505af1158015611a65573d6000803e3d6000fd5b505050508080611a74906132b8565b9150506119c1565b50856001600160a01b03168a336001600160a01b03167fdf3aa2d11ed4639b8e53aa07f73cc1cd7d4c25891f10f63c1898d39fb3dc86088e8d8a8a604051611ac794939291906130cc565b60405180910390a45b50505050505050505050505050565b600082815260996020526040902060010154611afa81611c64565b6109648383611c71565b6001600160a01b03163b151590565b6040516001600160a01b0380851660248301528316604482015260648101829052611b7e9085906323b872dd60e01b906084015b60408051601f198184030181529190526020810180516001600160e01b03166001600160e01b031990931692909217909152611f70565b50505050565b600054610100900460ff16611bab5760405162461bcd60e51b815260040161046c90613081565b565b611bb78282611129565b6109e35760008281526099602090815260408083206001600160a01b03851684529091529020805460ff19166001179055611bef3390565b6001600160a01b0316816001600160a01b0316837f2f8788117e7eff1d82e926ec794901d17c78024a50270940304540a733656f0d60405160405180910390a45050565b600054610100900460ff16611c5a5760405162461bcd60e51b815260040161046c90613081565b6109e38282612042565b611c6e8133612083565b50565b611c7b8282611129565b156109e35760008281526099602090815260408083206001600160a01b0385168085529252808320805460ff1916905551339285917ff6391f5c32d9c69d2a47ea670b442974b53935d1edc7fd64eb21e047a839171b9190a45050565b604080517f11677d7fbcc601209a7a1981f471bc2277d3d095b4d693c314fac03bce18c04660208201529081018790526001600160a01b0380871660608301526080820186905260a08201859052831660c082015260e081018290526000908190611d5d90610100015b604051602081830303815290604052805190602001206120e7565b905060005b89811015611dfc57611ddb8b8b83818110611d8d57634e487b7160e01b600052603260045260246000fd5b9050602002810190611d9f9190613128565b8080601f016020809104026020016040519081016040528093929190818152602001838380828437600092019190915250869250612135915050565b611dea57600092505050611e03565b80611df4816132b8565b915050611d62565b5060019150505b98975050505050505050565b6040516001600160a01b03831660248201526044810182905261096490849063a9059cbb60e01b90606401611b47565b600080611f097f2f4e78997f6043cfd96bbdacc17c436098c8d40b923de222051817ea2f2ffc388c8c8c8c8c8c604051602001611e7d929190612e3f565b604051602081830303815290604052805190602001208b8b8b604051602001611ea7929190612e3f565b60408051601f198184030181528282528051602091820120908301999099528101969096526001600160a01b039485166060870152608086019390935260a085019190915260c08401521660e082015261010081019190915261012001611d42565b905060005b8c811015611f5a57611f398e8e83818110611d8d57634e487b7160e01b600052603260045260246000fd5b611f4857600092505050611f61565b80611f52816132b8565b915050611f0e565b5060019150505b9b9a5050505050505050505050565b6000611fc5826040518060400160405280602081526020017f5361666545524332303a206c6f772d6c6576656c2063616c6c206661696c6564815250856001600160a01b03166121b99092919063ffffffff16565b8051909150156109645780806020019051810190611fe39190612cb2565b6109645760405162461bcd60e51b815260206004820152602a60248201527f5361666545524332303a204552433230206f7065726174696f6e20646964206e6044820152691bdd081cdd58d8d9595960b21b606482015260840161046c565b600054610100900460ff166120695760405162461bcd60e51b815260040161046c90613081565b815160209283012081519190920120600191909155600255565b61208d8282611129565b6109e3576120a5816001600160a01b031660146121d2565b6120b08360206121d2565b6040516020016120c1929190612e85565b60408051601f198184030181529082905262461bcd60e51b825261046c91600401612f89565b60006104116120f46123b4565b8360405161190160f01b6020820152602281018390526042810182905260009060620160405160208183030381529060405280519060200120905092915050565b6000806121428385612434565b905060005b60fd548110156121ae5760fd818154811061217257634e487b7160e01b600052603260045260246000fd5b6000918252602090912001546001600160a01b038381169116141561219c57600192505050610411565b806121a6816132b8565b915050612147565b506000949350505050565b60606121c88484600085612458565b90505b9392505050565b606060006121e18360026131b6565b6121ec90600261319e565b67ffffffffffffffff81111561221257634e487b7160e01b600052604160045260246000fd5b6040519080825280601f01601f19166020018201604052801561223c576020820181803683370190505b509050600360fc1b8160008151811061226557634e487b7160e01b600052603260045260246000fd5b60200101906001600160f81b031916908160001a905350600f60fb1b816001815181106122a257634e487b7160e01b600052603260045260246000fd5b60200101906001600160f81b031916908160001a90535060006122c68460026131b6565b6122d190600161319e565b90505b6001811115612365576f181899199a1a9b1b9c1cb0b131b232b360811b85600f166010811061231357634e487b7160e01b600052603260045260246000fd5b1a60f81b82828151811061233757634e487b7160e01b600052603260045260246000fd5b60200101906001600160f81b031916908160001a90535060049490941c9361235e816132a1565b90506122d4565b5083156121cb5760405162461bcd60e51b815260206004820181905260248201527f537472696e67733a20686578206c656e67746820696e73756666696369656e74604482015260640161046c565b600061242f7f8b73c3c69bb8fe3d512ecc4cf759cc79239f7b179b0ffacaa9a75d522b39400f6123e360015490565b6002546040805160208101859052908101839052606081018290524660808201523060a082015260009060c0016040516020818303038152906040528051906020012090509392505050565b905090565b60008060006124438585612589565b91509150612450816125f9565b509392505050565b6060824710156124b95760405162461bcd60e51b815260206004820152602660248201527f416464726573733a20696e73756666696369656e742062616c616e636520666f6044820152651c8818d85b1b60d21b606482015260840161046c565b6001600160a01b0385163b6125105760405162461bcd60e51b815260206004820152601d60248201527f416464726573733a2063616c6c20746f206e6f6e2d636f6e7472616374000000604482015260640161046c565b600080866001600160a01b0316858760405161252c9190612e69565b60006040518083038185875af1925050503d8060008114612569576040519150601f19603f3d011682016040523d82523d6000602084013e61256e565b606091505b509150915061257e8282866127fa565b979650505050505050565b6000808251604114156125c05760208301516040840151606085015160001a6125b487828585612833565b945094505050506125f2565b8251604014156125ea57602083015160408401516125df868383612920565b9350935050506125f2565b506000905060025b9250929050565b600081600481111561261b57634e487b7160e01b600052602160045260246000fd5b14156126245750565b600181600481111561264657634e487b7160e01b600052602160045260246000fd5b14156126945760405162461bcd60e51b815260206004820152601860248201527f45434453413a20696e76616c6964207369676e61747572650000000000000000604482015260640161046c565b60028160048111156126b657634e487b7160e01b600052602160045260246000fd5b14156127045760405162461bcd60e51b815260206004820152601f60248201527f45434453413a20696e76616c6964207369676e6174757265206c656e67746800604482015260640161046c565b600381600481111561272657634e487b7160e01b600052602160045260246000fd5b141561277f5760405162461bcd60e51b815260206004820152602260248201527f45434453413a20696e76616c6964207369676e6174757265202773272076616c604482015261756560f01b606482015260840161046c565b60048160048111156127a157634e487b7160e01b600052602160045260246000fd5b1415611c6e5760405162461bcd60e51b815260206004820152602260248201527f45434453413a20696e76616c6964207369676e6174757265202776272076616c604482015261756560f01b606482015260840161046c565b606083156128095750816121cb565b8251156128195782518084602001fd5b8160405162461bcd60e51b815260040161046c9190612f89565b6000807f7fffffffffffffffffffffffffffffff5d576e7357a4501ddfe92f46681b20a083111561286a5750600090506003612917565b8460ff16601b1415801561288257508460ff16601c14155b156128935750600090506004612917565b6040805160008082526020820180845289905260ff881692820192909252606081018690526080810185905260019060a0016020604051602081039080840390855afa1580156128e7573d6000803e3d6000fd5b5050604051601f1901519150506001600160a01b03811661291057600060019250925050612917565b9150600090505b94509492505050565b6000806001600160ff1b0383168161293d60ff86901c601b61319e565b905061294b87828885612833565b935093505050935093915050565b60008083601f84011261296a578182fd5b50813567ffffffffffffffff811115612981578182fd5b6020830191508360208260051b85010111156125f257600080fd5b600082601f8301126129ac578081fd5b813567ffffffffffffffff8111156129c6576129c66132e9565b6129d9601f8201601f191660200161316d565b8181528460208386010111156129ed578283fd5b816020850160208301379081016020019190915292915050565b600060208284031215612a18578081fd5b81356121cb816132ff565b600060208284031215612a34578081fd5b81516121cb816132ff565b600080600080600060a08688031215612a56578081fd5b8535612a61816132ff565b94506020860135612a71816132ff565b93506040860135612a81816132ff565b92506060860135612a91816132ff565b91506080860135612aa1816132ff565b809150509295509295909350565b60008060008060808587031215612ac4578384fd5b8435612acf816132ff565b93506020850135612adf816132ff565b925060408501359150606085013567ffffffffffffffff811115612b01578182fd5b612b0d8782880161299c565b91505092959194509250565b600080600060408486031215612b2d578283fd5b8335612b38816132ff565b9250602084013567ffffffffffffffff811115612b53578283fd5b612b5f86828701612959565b9497909650939450505050565b600080600080600080600060c0888a031215612b86578182fd5b873567ffffffffffffffff811115612b9c578283fd5b612ba88a828b01612959565b9098509650506020880135945060408801359350606088013592506080880135612bd1816132ff565b8092505060a0880135905092959891949750929550565b60008060008060008060008060008060e08b8d031215612c06578283fd5b8a3567ffffffffffffffff80821115612c1d578485fd5b612c298e838f01612959565b909c509a5060208d0135995060408d0135985060608d0135975060808d0135915080821115612c56578485fd5b612c628e838f01612959565b909750955060a08d01359150612c77826132ff565b90935060c08c01359080821115612c8c578384fd5b50612c998d828e01612959565b915080935050809150509295989b9194979a5092959850565b600060208284031215612cc3578081fd5b815180151581146121cb578182fd5b600060208284031215612ce3578081fd5b5035919050565b60008060408385031215612cfc578182fd5b823591506020830135612d0e816132ff565b809150509250929050565b600060208284031215612d2a578081fd5b81356001600160e01b0319811681146121cb578182fd5b600060208284031215612d52578081fd5b5051919050565b60008060008060608587031215612d6e578182fd5b843593506020850135612d80816132ff565b9250604085013567ffffffffffffffff811115612d9b578283fd5b612da787828801612959565b95989497509550505050565b600080600060608486031215612dc7578081fd5b833592506020840135612dd9816132ff565b929592945050506040919091013590565b60008060408385031215612dfc578182fd5b50508035926020909101359150565b81835260006001600160fb1b03831115612e23578081fd5b8260051b80836020870137939093016020019283525090919050565b60006001600160fb1b03831115612e54578081fd5b8260051b808584379190910190815292915050565b60008251612e7b818460208701613275565b9190910192915050565b7f416363657373436f6e74726f6c3a206163636f756e7420000000000000000000815260008351612ebd816017850160208801613275565b7001034b99036b4b9b9b4b733903937b6329607d1b6017918401918201528351612eee816028840160208801613275565b01602801949350505050565b6001600160a01b0384168152604060208201819052600090612f1f9083018486612e0b565b95945050505050565b6020808252825182820181905260009190848201906040850190845b81811015612f695783516001600160a01b031683529284019291840191600101612f44565b50909695505050505050565b6020815260006121c8602083018486612e0b565b6020815260008251806020840152612fa8816040850160208701613275565b601f01601f19169190910160400192915050565b6020808252601c908201527f546f6f6d6963733a204e6f74206f7572204e4654206164647265737300000000604082015260600190565b60208082526026908201527f56616c696461746f723a2077726f6e67206e6f6e63652f616c726561647920656040820152651e18dd5d195960d21b606082015260800190565b60208082526028908201527f56616c696461746f723a2043616e206e6f74206265207468652073616d65207360408201526769676e617475726560c01b606082015260800190565b6020808252602b908201527f496e697469616c697a61626c653a20636f6e7472616374206973206e6f74206960408201526a6e697469616c697a696e6760a81b606082015260800190565b8481528360208201526060604082015260006130ec606083018486612e0b565b9695505050505050565b858152846020820152608060408201526000613116608083018587612e0b565b90508260608301529695505050505050565b6000808335601e1984360301811261313e578283fd5b83018035915067ffffffffffffffff821115613158578283fd5b6020019150368190038213156125f257600080fd5b604051601f8201601f1916810167ffffffffffffffff81118282101715613196576131966132e9565b604052919050565b600082198211156131b1576131b16132d3565b500190565b60008160001904831182151516156131d0576131d06132d3565b500290565b6000828210156131e7576131e76132d3565b500390565b600067ffffffffffffffff80841115613207576132076132e9565b8360051b602061321881830161316d565b868152818101908636858201111561322e578687fd5b8694505b8885101561326957803586811115613248578788fd5b61325436828b0161299c565b84525060019490940193918301918301613232565b50979650505050505050565b60005b83811015613290578181015183820152602001613278565b83811115611b7e5750506000910152565b6000816132b0576132b06132d3565b506000190190565b60006000198214156132cc576132cc6132d3565b5060010190565b634e487b7160e01b600052601160045260246000fd5b634e487b7160e01b600052604160045260246000fd5b6001600160a01b0381168114611c6e57600080fdfea2646970667358221220368cb4705d147616606f7a68cbd6d5ee7e29eb8c5ade34c9f676a25c1d5e486f64736f6c63430008040033",
  "linkReferences": {},
  "deployedLinkReferences": {}
}