{
  "_format": "hh-sol-artifact-1",
  "contractName": "Toomics",
  "sourceName": "contracts/Toomics.sol",
  "abi": [
    {
      "inputs": [],
      "stateMutability": "nonpayable",
      "type": "constructor"
    },
    {
      "anonymous": false,
      "inputs": [
        {
          "indexed": false,
          "internalType": "address",
          "name": "validator",
          "type": "address"
        }
      ],
      "name": "AddValidator",
      "type": "event"
    },
    {
      "anonymous": false,
      "inputs": [
        {
          "indexed": true,
          "internalType": "address",
          "name": "requester",
          "type": "address"
        },
        {
          "indexed": true,
          "internalType": "uint256",
          "name": "userId",
          "type": "uint256"
        },
        {
          "indexed": true,
          "internalType": "address",
          "name": "nftAddress",
          "type": "address"
        },
        {
          "indexed": false,
          "internalType": "uint256",
          "name": "tokenId",
          "type": "uint256"
        }
      ],
      "name": "DepositNFT",
      "type": "event"
    },
    {
      "anonymous": false,
      "inputs": [
        {
          "indexed": true,
          "internalType": "address",
          "name": "requester",
          "type": "address"
        },
        {
          "indexed": true,
          "internalType": "uint256",
          "name": "userId",
          "type": "uint256"
        },
        {
          "indexed": true,
          "internalType": "address",
          "name": "tokenAddress",
          "type": "address"
        },
        {
          "indexed": false,
          "internalType": "uint256",
          "name": "amount",
          "type": "uint256"
        }
      ],
      "name": "DepositToken",
      "type": "event"
    },
    {
      "anonymous": false,
      "inputs": [
        {
          "indexed": false,
          "internalType": "uint8",
          "name": "version",
          "type": "uint8"
        }
      ],
      "name": "Initialized",
      "type": "event"
    },
    {
      "anonymous": false,
      "inputs": [
        {
          "indexed": true,
          "internalType": "address",
          "name": "requester",
          "type": "address"
        },
        {
          "indexed": false,
          "internalType": "uint256",
          "name": "nonce",
          "type": "uint256"
        },
        {
          "indexed": true,
          "internalType": "uint256",
          "name": "userId",
          "type": "uint256"
        },
        {
          "indexed": false,
          "internalType": "uint256[]",
          "name": "localIds",
          "type": "uint256[]"
        },
        {
          "indexed": true,
          "internalType": "address",
          "name": "nftAddress",
          "type": "address"
        },
        {
          "indexed": false,
          "internalType": "uint256",
          "name": "startTokenId",
          "type": "uint256"
        }
      ],
      "name": "MintNFT",
      "type": "event"
    },
    {
      "anonymous": false,
      "inputs": [
        {
          "indexed": false,
          "internalType": "address",
          "name": "requester",
          "type": "address"
        },
        {
          "indexed": false,
          "internalType": "uint256",
          "name": "nonce",
          "type": "uint256"
        }
      ],
      "name": "RejectTransaction",
      "type": "event"
    },
    {
      "anonymous": false,
      "inputs": [
        {
          "indexed": false,
          "internalType": "address",
          "name": "validator",
          "type": "address"
        }
      ],
      "name": "RemoveValidator",
      "type": "event"
    },
    {
      "anonymous": false,
      "inputs": [
        {
          "indexed": true,
          "internalType": "bytes32",
          "name": "role",
          "type": "bytes32"
        },
        {
          "indexed": true,
          "internalType": "bytes32",
          "name": "previousAdminRole",
          "type": "bytes32"
        },
        {
          "indexed": true,
          "internalType": "bytes32",
          "name": "newAdminRole",
          "type": "bytes32"
        }
      ],
      "name": "RoleAdminChanged",
      "type": "event"
    },
    {
      "anonymous": false,
      "inputs": [
        {
          "indexed": true,
          "internalType": "bytes32",
          "name": "role",
          "type": "bytes32"
        },
        {
          "indexed": true,
          "internalType": "address",
          "name": "account",
          "type": "address"
        },
        {
          "indexed": true,
          "internalType": "address",
          "name": "sender",
          "type": "address"
        }
      ],
      "name": "RoleGranted",
      "type": "event"
    },
    {
      "anonymous": false,
      "inputs": [
        {
          "indexed": true,
          "internalType": "bytes32",
          "name": "role",
          "type": "bytes32"
        },
        {
          "indexed": true,
          "internalType": "address",
          "name": "account",
          "type": "address"
        },
        {
          "indexed": true,
          "internalType": "address",
          "name": "sender",
          "type": "address"
        }
      ],
      "name": "RoleRevoked",
      "type": "event"
    },
    {
      "anonymous": false,
      "inputs": [
        {
          "indexed": true,
          "internalType": "address",
          "name": "requester",
          "type": "address"
        },
        {
          "indexed": false,
          "internalType": "uint256",
          "name": "nonce",
          "type": "uint256"
        },
        {
          "indexed": true,
          "internalType": "uint256",
          "name": "userId",
          "type": "uint256"
        },
        {
          "indexed": true,
          "internalType": "address",
          "name": "nftAddress",
          "type": "address"
        },
        {
          "indexed": false,
          "internalType": "uint256[]",
          "name": "tokenIds",
          "type": "uint256[]"
        }
      ],
      "name": "WithdrawNFT",
      "type": "event"
    },
    {
      "anonymous": false,
      "inputs": [
        {
          "indexed": true,
          "internalType": "address",
          "name": "requester",
          "type": "address"
        },
        {
          "indexed": false,
          "internalType": "uint256",
          "name": "nonce",
          "type": "uint256"
        },
        {
          "indexed": true,
          "internalType": "uint256",
          "name": "userId",
          "type": "uint256"
        },
        {
          "indexed": true,
          "internalType": "address",
          "name": "tokenAddress",
          "type": "address"
        },
        {
          "indexed": false,
          "internalType": "uint256",
          "name": "amount",
          "type": "uint256"
        }
      ],
      "name": "WithdrawToken",
      "type": "event"
    },
    {
      "inputs": [],
      "name": "DEFAULT_ADMIN_ROLE",
      "outputs": [
        {
          "internalType": "bytes32",
          "name": "",
          "type": "bytes32"
        }
      ],
      "stateMutability": "view",
      "type": "function"
    },
    {
      "inputs": [],
      "name": "MINT_NFT",
      "outputs": [
        {
          "internalType": "bytes32",
          "name": "",
          "type": "bytes32"
        }
      ],
      "stateMutability": "view",
      "type": "function"
    },
    {
      "inputs": [],
      "name": "WITHDRAW_NFT",
      "outputs": [
        {
          "internalType": "bytes32",
          "name": "",
          "type": "bytes32"
        }
      ],
      "stateMutability": "view",
      "type": "function"
    },
    {
      "inputs": [],
      "name": "WITHDRAW_TOKEN",
      "outputs": [
        {
          "internalType": "bytes32",
          "name": "",
          "type": "bytes32"
        }
      ],
      "stateMutability": "view",
      "type": "function"
    },
    {
      "inputs": [
        {
          "internalType": "address",
          "name": "_validator",
          "type": "address"
        }
      ],
      "name": "addValidator",
      "outputs": [],
      "stateMutability": "nonpayable",
      "type": "function"
    },
    {
      "inputs": [
        {
          "internalType": "address",
          "name": "nftAddress",
          "type": "address"
        },
        {
          "internalType": "uint256[]",
          "name": "tokenIds",
          "type": "uint256[]"
        }
      ],
      "name": "burnNFT",
      "outputs": [],
      "stateMutability": "nonpayable",
      "type": "function"
    },
    {
      "inputs": [
        {
          "internalType": "uint256",
          "name": "tmgAmount",
          "type": "uint256"
        },
        {
          "internalType": "uint256",
          "name": "tmrAmount",
          "type": "uint256"
        }
      ],
      "name": "burnToken",
      "outputs": [],
      "stateMutability": "nonpayable",
      "type": "function"
    },
    {
      "inputs": [
        {
          "internalType": "uint256",
          "name": "userId",
          "type": "uint256"
        },
        {
          "internalType": "address",
          "name": "nftAddress",
          "type": "address"
        },
        {
          "internalType": "uint256[]",
          "name": "tokenIds",
          "type": "uint256[]"
        }
      ],
      "name": "depositNFT",
      "outputs": [],
      "stateMutability": "nonpayable",
      "type": "function"
    },
    {
      "inputs": [
        {
          "internalType": "uint256",
          "name": "userId",
          "type": "uint256"
        },
        {
          "internalType": "address",
          "name": "tokenAddress",
          "type": "address"
        },
        {
          "internalType": "uint256",
          "name": "amount",
          "type": "uint256"
        }
      ],
      "name": "depositToken",
      "outputs": [],
      "stateMutability": "nonpayable",
      "type": "function"
    },
    {
      "inputs": [],
      "name": "getChainID",
      "outputs": [
        {
          "internalType": "uint256",
          "name": "",
          "type": "uint256"
        }
      ],
      "stateMutability": "view",
      "type": "function"
    },
    {
      "inputs": [
        {
          "internalType": "bytes32",
          "name": "role",
          "type": "bytes32"
        }
      ],
      "name": "getRoleAdmin",
      "outputs": [
        {
          "internalType": "bytes32",
          "name": "",
          "type": "bytes32"
        }
      ],
      "stateMutability": "view",
      "type": "function"
    },
    {
      "inputs": [],
      "name": "getValidators",
      "outputs": [
        {
          "internalType": "address[]",
          "name": "",
          "type": "address[]"
        }
      ],
      "stateMutability": "view",
      "type": "function"
    },
    {
      "inputs": [
        {
          "internalType": "bytes32",
          "name": "role",
          "type": "bytes32"
        },
        {
          "internalType": "address",
          "name": "account",
          "type": "address"
        }
      ],
      "name": "grantRole",
      "outputs": [],
      "stateMutability": "nonpayable",
      "type": "function"
    },
    {
      "inputs": [
        {
          "internalType": "bytes32",
          "name": "role",
          "type": "bytes32"
        },
        {
          "internalType": "address",
          "name": "account",
          "type": "address"
        }
      ],
      "name": "hasRole",
      "outputs": [
        {
          "internalType": "bool",
          "name": "",
          "type": "bool"
        }
      ],
      "stateMutability": "view",
      "type": "function"
    },
    {
      "inputs": [
        {
          "internalType": "address",
          "name": "_tmgToken",
          "type": "address"
        },
        {
          "internalType": "address",
          "name": "_tmrToken",
          "type": "address"
        },
        {
          "internalType": "address",
          "name": "_nftCharacters",
          "type": "address"
        },
        {
          "internalType": "address",
          "name": "_nftBadges",
          "type": "address"
        },
        {
          "internalType": "address",
          "name": "_nftEquipments",
          "type": "address"
        }
      ],
      "name": "initialize",
      "outputs": [],
      "stateMutability": "nonpayable",
      "type": "function"
    },
    {
      "inputs": [
        {
          "internalType": "bytes[]",
          "name": "signature",
          "type": "bytes[]"
        },
        {
          "internalType": "uint256",
          "name": "nonce",
          "type": "uint256"
        },
        {
          "internalType": "uint256",
          "name": "userId",
          "type": "uint256"
        },
        {
          "internalType": "uint256[]",
          "name": "localIds",
          "type": "uint256[]"
        },
        {
          "internalType": "address",
          "name": "nftAddress",
          "type": "address"
        }
      ],
      "name": "mintNFT",
      "outputs": [],
      "stateMutability": "nonpayable",
      "type": "function"
    },
    {
      "inputs": [
        {
          "internalType": "address",
          "name": "",
          "type": "address"
        }
      ],
      "name": "nftAddressToAuthorized",
      "outputs": [
        {
          "internalType": "bool",
          "name": "",
          "type": "bool"
        }
      ],
      "stateMutability": "view",
      "type": "function"
    },
    {
      "inputs": [
        {
          "internalType": "address",
          "name": "",
          "type": "address"
        },
        {
          "internalType": "address",
          "name": "",
          "type": "address"
        },
        {
          "internalType": "uint256",
          "name": "",
          "type": "uint256"
        },
        {
          "internalType": "bytes",
          "name": "",
          "type": "bytes"
        }
      ],
      "name": "onERC721Received",
      "outputs": [
        {
          "internalType": "bytes4",
          "name": "",
          "type": "bytes4"
        }
      ],
      "stateMutability": "nonpayable",
      "type": "function"
    },
    {
      "inputs": [
        {
          "internalType": "uint256",
          "name": "nonce",
          "type": "uint256"
        }
      ],
      "name": "rejectTransaction",
      "outputs": [],
      "stateMutability": "nonpayable",
      "type": "function"
    },
    {
      "inputs": [
        {
          "internalType": "address",
          "name": "_validator",
          "type": "address"
        }
      ],
      "name": "removeValidator",
      "outputs": [],
      "stateMutability": "nonpayable",
      "type": "function"
    },
    {
      "inputs": [
        {
          "internalType": "bytes32",
          "name": "role",
          "type": "bytes32"
        },
        {
          "internalType": "address",
          "name": "account",
          "type": "address"
        }
      ],
      "name": "renounceRole",
      "outputs": [],
      "stateMutability": "nonpayable",
      "type": "function"
    },
    {
      "inputs": [
        {
          "internalType": "bytes32",
          "name": "role",
          "type": "bytes32"
        },
        {
          "internalType": "address",
          "name": "account",
          "type": "address"
        }
      ],
      "name": "revokeRole",
      "outputs": [],
      "stateMutability": "nonpayable",
      "type": "function"
    },
    {
      "inputs": [
        {
          "internalType": "bytes4",
          "name": "interfaceId",
          "type": "bytes4"
        }
      ],
      "name": "supportsInterface",
      "outputs": [
        {
          "internalType": "bool",
          "name": "",
          "type": "bool"
        }
      ],
      "stateMutability": "view",
      "type": "function"
    },
    {
      "inputs": [
        {
          "internalType": "bytes[]",
          "name": "signature",
          "type": "bytes[]"
        },
        {
          "internalType": "uint256",
          "name": "nonce",
          "type": "uint256"
        },
        {
          "internalType": "uint256",
          "name": "userId",
          "type": "uint256"
        },
        {
          "internalType": "uint256[]",
          "name": "localIds",
          "type": "uint256[]"
        },
        {
          "internalType": "address",
          "name": "nftAddress",
          "type": "address"
        },
        {
          "internalType": "uint256[]",
          "name": "tokenIds",
          "type": "uint256[]"
        }
      ],
      "name": "withdrawNFT",
      "outputs": [],
      "stateMutability": "nonpayable",
      "type": "function"
    },
    {
      "inputs": [
        {
          "internalType": "bytes[]",
          "name": "signature",
          "type": "bytes[]"
        },
        {
          "internalType": "uint256",
          "name": "nonce",
          "type": "uint256"
        },
        {
          "internalType": "uint256",
          "name": "userId",
          "type": "uint256"
        },
        {
          "internalType": "address",
          "name": "tokenAddress",
          "type": "address"
        },
        {
          "internalType": "uint256",
          "name": "amount",
          "type": "uint256"
        }
      ],
      "name": "withdrawToken",
      "outputs": [],
      "stateMutability": "nonpayable",
      "type": "function"
    }
  ],
  "bytecode": "0x60806040523480156200001157600080fd5b50600054610100900460ff1615808015620000335750600054600160ff909116105b8062000063575062000050306200013d60201b62001c2a1760201c565b15801562000063575060005460ff166001145b620000cb5760405162461bcd60e51b815260206004820152602e60248201527f496e697469616c697a61626c653a20636f6e747261637420697320616c72656160448201526d191e481a5b9a5d1a585b1a5e995960921b606482015260840160405180910390fd5b6000805460ff191660011790558015620000ef576000805461ff0019166101001790555b801562000136576000805461ff0019169055604051600181527f7f26b83ff96e1f2b6a682f133852f6798a09c465da95921460cefb38474024989060200160405180910390a15b506200014c565b6001600160a01b03163b151590565b6135c1806200015c6000396000f3fe608060405234801561001057600080fd5b50600436106101735760003560e01c80634d238c8e116100de5780638225b24711610097578063a217fddf11610071578063a217fddf1461038c578063b583288414610394578063b7ab4db5146103bb578063d547741f146103d057600080fd5b80638225b2471461035357806386529a611461036657806391d148541461037957600080fd5b80634d238c8e146102c9578063564b81ef146102dc5780635a086f6f146102e257806366a33456146103065780637654da95146103195780637e99dee51461032c57600080fd5b806316796a6e1161013057806316796a6e14610225578063248a9ca3146102385780632f2ff15d1461026957806336568abe1461027c5780633ed3a0541461028f57806340a141ff146102b657600080fd5b806301ffc9a71461017857806304a82364146101a057806305bf37aa146101b55780630a9306d7146101c85780631459457a146101db578063150b7a02146101ee575b600080fd5b61018b610186366004612f92565b6103e3565b60405190151581526020015b60405180910390f35b6101b36101ae366004612e6b565b61041a565b005b6101b36101c3366004612f4b565b6108ca565b6101b36101d636600461302c565b610970565b6101b36101e9366004612c39565b610a14565b61020c6101fc366004612ca9565b630a85bd0160e11b949350505050565b6040516001600160e01b03199091168152602001610197565b6101b3610233366004612fd2565b610bef565b61025b610246366004612f4b565b60009081526065602052604090206001015490565b604051908152602001610197565b6101b3610277366004612f63565b610d93565b6101b361028a366004612f63565b610db8565b61025b7ffdb213abf203036836243945670b2dc5d5a236da70f4151aacb35f30645d276e81565b6101b36102c4366004612c01565b610e36565b6101b36102d7366004612c01565b611009565b4661025b565b61018b6102f0366004612c01565b6101016020526000908152604090205460ff1681565b6101b3610314366004612d66565b611174565b6101b3610327366004612dd7565b6114f2565b61025b7f239bb854ffd436c7475b52714047becea22024ee1f23a8f921d123b6dde3cfc081565b6101b3610361366004613063565b611889565b6101b3610374366004612d13565b611956565b61018b610387366004612f63565b611b78565b61025b600081565b61025b7f98ce81e554f2af731bc189e268a690eee10f7efc94106af8d08fe55934e5954b81565b6103c3611ba3565b6040516101979190613173565b6101b36103de366004612f63565b611c05565b60006001600160e01b03198216637965db0b60e01b148061041457506301ffc9a760e01b6001600160e01b03198316145b92915050565b6001600160a01b03831660009081526101016020526040902054839060ff1661045e5760405162461bcd60e51b8152600401610455906131f3565b60405180910390fd5b610468898b613463565b88600082511161048a5760405162461bcd60e51b8152600401610455906132a0565b33600090815260fe602052604090205481116104b85760405162461bcd60e51b81526004016104559061322a565b60028251106105c75760005b82518110156105c55760006104da826001613415565b90505b83518110156105b25783818151811061050657634e487b7160e01b600052603260045260246000fd5b602002602001015160405160200161051e91906130e2565b6040516020818303038152906040528051906020012084838151811061055457634e487b7160e01b600052603260045260246000fd5b602002602001015160405160200161056c91906130e2565b6040516020818303038152906040528051906020012014156105a05760405162461bcd60e51b81526004016104559061331a565b806105aa8161352f565b9150506104dd565b50806105bd8161352f565b9150506104c4565b505b60006105d38589613415565b1180156105ea575060056105e78589613415565b11155b6106065760405162461bcd60e51b815260040161045590613270565b6106188c8c8c338d8d8d8d8d8d611c39565b6106645760405162461bcd60e51b815260206004820152601e60248201527f77697468647261774e46543a20696e76616c6964207369676e617475726500006044820152606401610455565b33600090815260fe602052604090208a905586156107a6576000866001600160a01b03166375794a3c6040518163ffffffff1660e01b815260040160206040518083038186803b1580156106b757600080fd5b505afa1580156106cb573d6000803e3d6000fd5b505050506040513d601f19601f820116820180604052508101906106ef9190612fba565b6040516340c10f1960e01b8152336004820152602481018a90529091506001600160a01b038816906340c10f1990604401600060405180830381600087803b15801561073a57600080fd5b505af115801561074e573d6000803e3d6000fd5b50505050866001600160a01b03168a336001600160a01b03167f2a91b0b79e28e392059c9f9a8022f6d7eeb725cdf757e6033a05d713b33c54438e8d8d8760405161079c9493929190613374565b60405180910390a4505b83156108bc5760005b8481101561086a57866001600160a01b03166342842e0e30338989868181106107e857634e487b7160e01b600052603260045260246000fd5b6040516001600160e01b031960e088901b1681526001600160a01b03958616600482015294909316602485015250602090910201356044820152606401600060405180830381600087803b15801561083f57600080fd5b505af1158015610853573d6000803e3d6000fd5b5050505080806108629061352f565b9150506107af565b50856001600160a01b031689336001600160a01b03167f4664b93701c67a5500bb97231d25b28ecd4356c16092b0269c4d0515b22b6d078d89896040516108b393929190613351565b60405180910390a45b505050505050505050505050565b33600090815260fe602052604090205481116109215760405162461bcd60e51b815260206004820152601660248201527556616c696461746f723a2077726f6e67206e6f6e636560501b6044820152606401610455565b33600081815260fe6020908152604091829020849055815192835282018390527f37d7286dbb2f5a308161b6fdd908127173dffde6c58774bd9aecfc796d3c97f291015b60405180910390a150565b60ff546001600160a01b038381169116148061099a5750610100546001600160a01b038381169116145b80156109a65750600081115b15610a0f576109c06001600160a01b038316333084611dc4565b816001600160a01b031683336001600160a01b03167fa83f5d61b2e2ec9302738a186742c9757e5344fdf53f3ac84e010e165c5b632484604051610a0691815260200190565b60405180910390a45b505050565b600054610100900460ff1615808015610a345750600054600160ff909116105b80610a4e5750303b158015610a4e575060005460ff166001145b610ab15760405162461bcd60e51b815260206004820152602e60248201527f496e697469616c697a61626c653a20636f6e747261637420697320616c72656160448201526d191e481a5b9a5d1a585b1a5e995960921b6064820152608401610455565b6000805460ff191660011790558015610ad4576000805461ff0019166101001790555b610adc611e35565b60ff80546001600160a01b038089166001600160a01b0319928316179092556101008054888416921691909117905584811660009081526101016020526040808220805460ff199081166001908117909255878516845282842080548216831790559386168352908220805490931617909155610b5f90610b5a3390565b611e5e565b610ba160405180604001604052806007815260200166746f6f6d69637360c81b815250604051806040016040528060018152602001603160f81b815250611ee4565b8015610be7576000805461ff0019169055604051600181527f7f26b83ff96e1f2b6a682f133852f6798a09c465da95921460cefb38474024989060200160405180910390a15b505050505050565b6001600160a01b03831660009081526101016020526040902054839060ff16610c2a5760405162461bcd60e51b8152600401610455906131f3565b82828015801590610c3c575060058111155b610c585760405162461bcd60e51b815260040161045590613270565b60005b84811015610d8957866001600160a01b03166342842e0e3330898986818110610c9457634e487b7160e01b600052603260045260246000fd5b6040516001600160e01b031960e088901b1681526001600160a01b03958616600482015294909316602485015250602090910201356044820152606401600060405180830381600087803b158015610ceb57600080fd5b505af1158015610cff573d6000803e3d6000fd5b50505050866001600160a01b031688336001600160a01b03167f608c7d9ccd5b85c26e131f16635ac36fc132ffd05bea271a1dda8b76c57546b4898986818110610d5957634e487b7160e01b600052603260045260246000fd5b90506020020135604051610d6f91815260200190565b60405180910390a480610d818161352f565b915050610c5b565b5050505050505050565b600082815260656020526040902060010154610dae81611f15565b610a0f8383611e5e565b6001600160a01b0381163314610e285760405162461bcd60e51b815260206004820152602f60248201527f416363657373436f6e74726f6c3a2063616e206f6e6c792072656e6f756e636560448201526e103937b632b9903337b91039b2b63360891b6064820152608401610455565b610e328282611f22565b5050565b60005b60fd54811015610faf5760fd8181548110610e6457634e487b7160e01b600052603260045260246000fd5b6000918252602090912001546001600160a01b0383811691161415610f9d5760fd8054610e939060019061344c565b81548110610eb157634e487b7160e01b600052603260045260246000fd5b60009182526020909120015460fd80546001600160a01b039092169183908110610eeb57634e487b7160e01b600052603260045260246000fd5b9060005260206000200160006101000a8154816001600160a01b0302191690836001600160a01b0316021790555060fd805480610f3857634e487b7160e01b600052603160045260246000fd5b6000828152602090819020600019908301810180546001600160a01b03191690559091019091556040516001600160a01b03841681527f1af60f72d206709ac9c5fd393b54381507af4df1feb01708422ef8498c57aa57910160405180910390a15050565b80610fa78161352f565b915050610e39565b5060405162461bcd60e51b815260206004820152602860248201527f56616c696461746f723a2056616c696461746f72206e6f7420666f756e6420746044820152676f2072656d6f766560c01b6064820152608401610455565b6001600160a01b03811661104e5760405162461bcd60e51b815260206004820152600c60248201526b4e756c6c206164647265737360a01b6044820152606401610455565b60005b60fd548110156110f55760fd818154811061107c57634e487b7160e01b600052603260045260246000fd5b6000918252602090912001546001600160a01b03838116911614156110e35760405162461bcd60e51b815260206004820152601860248201527f56616c696461746f723a20416c726561647920616464656400000000000000006044820152606401610455565b806110ed8161352f565b915050611051565b5060fd80546001810182556000919091527f9346ac6dd7de6b96975fec380d4d994c4c12e6a8897544f22915316cc6cca2800180546001600160a01b0319166001600160a01b0383169081179091556040519081527f6a7a7b9e5967ba1cf76c3d7d5a9b98e96f11754855b04564fada97b94741ad3690602001610965565b61117e8587613463565b8460008251116111a05760405162461bcd60e51b8152600401610455906132a0565b33600090815260fe602052604090205481116111ce5760405162461bcd60e51b81526004016104559061322a565b60028251106112dd5760005b82518110156112db5760006111f0826001613415565b90505b83518110156112c85783818151811061121c57634e487b7160e01b600052603260045260246000fd5b602002602001015160405160200161123491906130e2565b6040516020818303038152906040528051906020012084838151811061126a57634e487b7160e01b600052603260045260246000fd5b602002602001015160405160200161128291906130e2565b6040516020818303038152906040528051906020012014156112b65760405162461bcd60e51b81526004016104559061331a565b806112c08161352f565b9150506111f3565b50806112d38161352f565b9150506111da565b505b6112ec88888833898989611f89565b6113385760405162461bcd60e51b815260206004820181905260248201527f7769746864726177546f6b656e3a20696e76616c6964207369676e61747572656044820152606401610455565b33600090815260fe6020526040902086905560ff546001600160a01b0385811691161480156113675750600083115b15611385576113806001600160a01b0385163385612052565b6114a0565b610100546001600160a01b0385811691161480156113a35750600083115b156114a0576040516370a0823160e01b815230600482015283906001600160a01b038616906370a082319060240160206040518083038186803b1580156113e957600080fd5b505afa1580156113fd573d6000803e3d6000fd5b505050506040513d601f19601f820116820180604052508101906114219190612fba565b101561148c576040516340c10f1960e01b8152336004820152602481018490526001600160a01b038516906340c10f1990604401600060405180830381600087803b15801561146f57600080fd5b505af1158015611483573d6000803e3d6000fd5b505050506114a0565b6114a06001600160a01b0385163385612052565b60408051878152602081018590526001600160a01b03861691879133917f86e8a54720215d8782a62a0042b79b674511a470a218e8eb18f54102b1da3f3e910160405180910390a45050505050505050565b6001600160a01b03811660009081526101016020526040902054819060ff1661152d5760405162461bcd60e51b8152600401610455906131f3565b6115378789613463565b8660008251116115595760405162461bcd60e51b8152600401610455906132a0565b33600090815260fe602052604090205481116115875760405162461bcd60e51b81526004016104559061322a565b60028251106116965760005b82518110156116945760006115a9826001613415565b90505b8351811015611681578381815181106115d557634e487b7160e01b600052603260045260246000fd5b60200260200101516040516020016115ed91906130e2565b6040516020818303038152906040528051906020012084838151811061162357634e487b7160e01b600052603260045260246000fd5b602002602001015160405160200161163b91906130e2565b60405160208183030381529060405280519060200120141561166f5760405162461bcd60e51b81526004016104559061331a565b806116798161352f565b9150506115ac565b508061168c8161352f565b915050611593565b505b858580158015906116a8575060058111155b6116c45760405162461bcd60e51b815260040161045590613270565b6116d48c8c8c338d8d8d8d612082565b6117205760405162461bcd60e51b815260206004820152601a60248201527f6d696e744e46543a20696e76616c6964207369676e61747572650000000000006044820152606401610455565b33600090815260fe602090815260408083208d90558051631d5e528f60e21b815290516001600160a01b038a16926375794a3c9260048082019391829003018186803b15801561176f57600080fd5b505afa158015611783573d6000803e3d6000fd5b505050506040513d601f19601f820116820180604052508101906117a79190612fba565b905060005b88811015611827576040516340c10f1960e01b8152336004820152600160248201526001600160a01b038916906340c10f1990604401600060405180830381600087803b1580156117fc57600080fd5b505af1158015611810573d6000803e3d6000fd5b50505050808061181f9061352f565b9150506117ac565b50866001600160a01b03168a336001600160a01b03167f2a91b0b79e28e392059c9f9a8022f6d7eeb725cdf757e6033a05d713b33c54438e8d8d876040516118729493929190613374565b60405180910390a450505050505050505050505050565b600061189481611f15565b60ff54604051630852cd8d60e31b8152600481018590526001600160a01b03909116906342966c6890602401600060405180830381600087803b1580156118da57600080fd5b505af11580156118ee573d6000803e3d6000fd5b505061010054604051630852cd8d60e31b8152600481018690526001600160a01b0390911692506342966c689150602401600060405180830381600087803b15801561193957600080fd5b505af115801561194d573d6000803e3d6000fd5b50505050505050565b600061196181611f15565b6001600160a01b03841660009081526101016020526040902054849060ff1661199c5760405162461bcd60e51b8152600401610455906131f3565b826119d95760405162461bcd60e51b815260206004820152600d60248201526c496e76616c696420617272617960981b6044820152606401610455565b60005b83811015610be757306001600160a01b038716636352211e878785818110611a1457634e487b7160e01b600052603260045260246000fd5b905060200201356040518263ffffffff1660e01b8152600401611a3991815260200190565b60206040518083038186803b158015611a5157600080fd5b505afa158015611a65573d6000803e3d6000fd5b505050506040513d601f19601f82011682018060405250810190611a899190612c1d565b6001600160a01b031614611adf5760405162461bcd60e51b815260206004820152601e60248201527f546f6f6d6963732f6275726e4e46543a206e6f7420746865206f776e657200006044820152606401610455565b856001600160a01b03166342966c68868684818110611b0e57634e487b7160e01b600052603260045260246000fd5b905060200201356040518263ffffffff1660e01b8152600401611b3391815260200190565b600060405180830381600087803b158015611b4d57600080fd5b505af1158015611b61573d6000803e3d6000fd5b505050508080611b709061352f565b9150506119dc565b60009182526065602090815260408084206001600160a01b0393909316845291905290205460ff1690565b606060fd805480602002602001604051908101604052809291908181526020018280548015611bfb57602002820191906000526020600020905b81546001600160a01b03168152600190910190602001808311611bdd575b5050505050905090565b600082815260656020526040902060010154611c2081611f15565b610a0f8383611f22565b6001600160a01b03163b151590565b600080611d107f98ce81e554f2af731bc189e268a690eee10f7efc94106af8d08fe55934e5954b8b8b8b8b8b604051602001611c769291906130b8565b604051602081830303815290604052805190602001208a8a8a604051602001611ca09291906130b8565b60408051601f198184030181528282528051602091820120908301989098528101959095526001600160a01b039384166060860152608085019290925260a08401521660c082015260e0810191909152610100015b60405160208183030381529060405280519060200120612175565b905060005b8b811015611daf57611d8e8d8d83818110611d4057634e487b7160e01b600052603260045260246000fd5b9050602002810190611d52919061339f565b8080601f0160208091040260200160405190810160405280939291908181526020018383808284376000920191909152508692506121c3915050565b611d9d57600092505050611db6565b80611da78161352f565b915050611d15565b5060019150505b9a9950505050505050505050565b6040516001600160a01b0380851660248301528316604482015260648101829052611e2f9085906323b872dd60e01b906084015b60408051601f198184030181529190526020810180516001600160e01b03166001600160e01b031990931692909217909152612247565b50505050565b600054610100900460ff16611e5c5760405162461bcd60e51b8152600401610455906132cf565b565b611e688282611b78565b610e325760008281526065602090815260408083206001600160a01b03851684529091529020805460ff19166001179055611ea03390565b6001600160a01b0316816001600160a01b0316837f2f8788117e7eff1d82e926ec794901d17c78024a50270940304540a733656f0d60405160405180910390a45050565b600054610100900460ff16611f0b5760405162461bcd60e51b8152600401610455906132cf565b610e328282612319565b611f1f813361235a565b50565b611f2c8282611b78565b15610e325760008281526065602090815260408083206001600160a01b0385168085529252808320805460ff1916905551339285917ff6391f5c32d9c69d2a47ea670b442974b53935d1edc7fd64eb21e047a839171b9190a45050565b604080517ffdb213abf203036836243945670b2dc5d5a236da70f4151aacb35f30645d276e60208201529081018690526001600160a01b03808616606083015260808201859052831660a082015260c081018290526000908190611fef9060e001611cf5565b905060005b888110156120405761201f8a8a83818110611d4057634e487b7160e01b600052603260045260246000fd5b61202e57600092505050612047565b806120388161352f565b915050611ff4565b5060019150505b979650505050505050565b6040516001600160a01b038316602482015260448101829052610a0f90849063a9059cbb60e01b90606401611df8565b6000806121117f239bb854ffd436c7475b52714047becea22024ee1f23a8f921d123b6dde3cfc089898989896040516020016120bf9291906130b8565b60408051601f198184030181528282528051602091820120908301969096528101939093526001600160a01b039182166060840152608083015260a082019290925290851660c082015260e001611cf5565b905060005b89811015612162576121418b8b83818110611d4057634e487b7160e01b600052603260045260246000fd5b61215057600092505050612169565b8061215a8161352f565b915050612116565b5060019150505b98975050505050505050565b60006104146121826123be565b8360405161190160f01b6020820152602281018390526042810182905260009060620160405160208183030381529060405280519060200120905092915050565b6000806121d0838561243e565b905060005b60fd5481101561223c5760fd818154811061220057634e487b7160e01b600052603260045260246000fd5b6000918252602090912001546001600160a01b038381169116141561222a57600192505050610414565b806122348161352f565b9150506121d5565b506000949350505050565b600061229c826040518060400160405280602081526020017f5361666545524332303a206c6f772d6c6576656c2063616c6c206661696c6564815250856001600160a01b03166124629092919063ffffffff16565b805190915015610a0f57808060200190518101906122ba9190612f2b565b610a0f5760405162461bcd60e51b815260206004820152602a60248201527f5361666545524332303a204552433230206f7065726174696f6e20646964206e6044820152691bdd081cdd58d8d9595960b21b6064820152608401610455565b600054610100900460ff166123405760405162461bcd60e51b8152600401610455906132cf565b81516020928301208151919092012060c99190915560ca55565b6123648282611b78565b610e325761237c816001600160a01b0316601461247b565b61238783602061247b565b6040516020016123989291906130fe565b60408051601f198184030181529082905262461bcd60e51b8252610455916004016131c0565b60006124397f8b73c3c69bb8fe3d512ecc4cf759cc79239f7b179b0ffacaa9a75d522b39400f6123ed60c95490565b60ca546040805160208101859052908101839052606081018290524660808201523060a082015260009060c0016040516020818303038152906040528051906020012090509392505050565b905090565b600080600061244d858561265d565b9150915061245a816126cd565b509392505050565b606061247184846000856128ce565b90505b9392505050565b6060600061248a83600261342d565b612495906002613415565b67ffffffffffffffff8111156124bb57634e487b7160e01b600052604160045260246000fd5b6040519080825280601f01601f1916602001820160405280156124e5576020820181803683370190505b509050600360fc1b8160008151811061250e57634e487b7160e01b600052603260045260246000fd5b60200101906001600160f81b031916908160001a905350600f60fb1b8160018151811061254b57634e487b7160e01b600052603260045260246000fd5b60200101906001600160f81b031916908160001a905350600061256f84600261342d565b61257a906001613415565b90505b600181111561260e576f181899199a1a9b1b9c1cb0b131b232b360811b85600f16601081106125bc57634e487b7160e01b600052603260045260246000fd5b1a60f81b8282815181106125e057634e487b7160e01b600052603260045260246000fd5b60200101906001600160f81b031916908160001a90535060049490941c9361260781613518565b905061257d565b5083156124745760405162461bcd60e51b815260206004820181905260248201527f537472696e67733a20686578206c656e67746820696e73756666696369656e746044820152606401610455565b6000808251604114156126945760208301516040840151606085015160001a612688878285856129f4565b945094505050506126c6565b8251604014156126be57602083015160408401516126b3868383612ae1565b9350935050506126c6565b506000905060025b9250929050565b60008160048111156126ef57634e487b7160e01b600052602160045260246000fd5b14156126f85750565b600181600481111561271a57634e487b7160e01b600052602160045260246000fd5b14156127685760405162461bcd60e51b815260206004820152601860248201527f45434453413a20696e76616c6964207369676e617475726500000000000000006044820152606401610455565b600281600481111561278a57634e487b7160e01b600052602160045260246000fd5b14156127d85760405162461bcd60e51b815260206004820152601f60248201527f45434453413a20696e76616c6964207369676e6174757265206c656e677468006044820152606401610455565b60038160048111156127fa57634e487b7160e01b600052602160045260246000fd5b14156128535760405162461bcd60e51b815260206004820152602260248201527f45434453413a20696e76616c6964207369676e6174757265202773272076616c604482015261756560f01b6064820152608401610455565b600481600481111561287557634e487b7160e01b600052602160045260246000fd5b1415611f1f5760405162461bcd60e51b815260206004820152602260248201527f45434453413a20696e76616c6964207369676e6174757265202776272076616c604482015261756560f01b6064820152608401610455565b60608247101561292f5760405162461bcd60e51b815260206004820152602660248201527f416464726573733a20696e73756666696369656e742062616c616e636520666f6044820152651c8818d85b1b60d21b6064820152608401610455565b6001600160a01b0385163b6129865760405162461bcd60e51b815260206004820152601d60248201527f416464726573733a2063616c6c20746f206e6f6e2d636f6e74726163740000006044820152606401610455565b600080866001600160a01b031685876040516129a291906130e2565b60006040518083038185875af1925050503d80600081146129df576040519150601f19603f3d011682016040523d82523d6000602084013e6129e4565b606091505b5091509150612047828286612b1a565b6000807f7fffffffffffffffffffffffffffffff5d576e7357a4501ddfe92f46681b20a0831115612a2b5750600090506003612ad8565b8460ff16601b14158015612a4357508460ff16601c14155b15612a545750600090506004612ad8565b6040805160008082526020820180845289905260ff881692820192909252606081018690526080810185905260019060a0016020604051602081039080840390855afa158015612aa8573d6000803e3d6000fd5b5050604051601f1901519150506001600160a01b038116612ad157600060019250925050612ad8565b9150600090505b94509492505050565b6000806001600160ff1b03831681612afe60ff86901c601b613415565b9050612b0c878288856129f4565b935093505050935093915050565b60608315612b29575081612474565b825115612b395782518084602001fd5b8160405162461bcd60e51b815260040161045591906131c0565b60008083601f840112612b64578182fd5b50813567ffffffffffffffff811115612b7b578182fd5b6020830191508360208260051b85010111156126c657600080fd5b600082601f830112612ba6578081fd5b813567ffffffffffffffff811115612bc057612bc0613560565b612bd3601f8201601f19166020016133e4565b818152846020838601011115612be7578283fd5b816020850160208301379081016020019190915292915050565b600060208284031215612c12578081fd5b813561247481613576565b600060208284031215612c2e578081fd5b815161247481613576565b600080600080600060a08688031215612c50578081fd5b8535612c5b81613576565b94506020860135612c6b81613576565b93506040860135612c7b81613576565b92506060860135612c8b81613576565b91506080860135612c9b81613576565b809150509295509295909350565b60008060008060808587031215612cbe578384fd5b8435612cc981613576565b93506020850135612cd981613576565b925060408501359150606085013567ffffffffffffffff811115612cfb578182fd5b612d0787828801612b96565b91505092959194509250565b600080600060408486031215612d27578283fd5b8335612d3281613576565b9250602084013567ffffffffffffffff811115612d4d578283fd5b612d5986828701612b53565b9497909650939450505050565b60008060008060008060a08789031215612d7e578081fd5b863567ffffffffffffffff811115612d94578182fd5b612da089828a01612b53565b90975095505060208701359350604087013592506060870135612dc281613576565b80925050608087013590509295509295509295565b600080600080600080600060a0888a031215612df1578081fd5b873567ffffffffffffffff80821115612e08578283fd5b612e148b838c01612b53565b909950975060208a0135965060408a0135955060608a0135915080821115612e3a578283fd5b50612e478a828b01612b53565b9094509250506080880135612e5b81613576565b8091505092959891949750929550565b600080600080600080600080600060c08a8c031215612e88578283fd5b893567ffffffffffffffff80821115612e9f578485fd5b612eab8d838e01612b53565b909b50995060208c0135985060408c0135975060608c0135915080821115612ed1578485fd5b612edd8d838e01612b53565b909750955060808c01359150612ef282613576565b90935060a08b01359080821115612f07578384fd5b50612f148c828d01612b53565b915080935050809150509295985092959850929598565b600060208284031215612f3c578081fd5b81518015158114612474578182fd5b600060208284031215612f5c578081fd5b5035919050565b60008060408385031215612f75578182fd5b823591506020830135612f8781613576565b809150509250929050565b600060208284031215612fa3578081fd5b81356001600160e01b031981168114612474578182fd5b600060208284031215612fcb578081fd5b5051919050565b60008060008060608587031215612fe7578182fd5b843593506020850135612ff981613576565b9250604085013567ffffffffffffffff811115613014578283fd5b61302087828801612b53565b95989497509550505050565b600080600060608486031215613040578081fd5b83359250602084013561305281613576565b929592945050506040919091013590565b60008060408385031215613075578182fd5b50508035926020909101359150565b81835260006001600160fb1b0383111561309c578081fd5b8260051b80836020870137939093016020019283525090919050565b60006001600160fb1b038311156130cd578081fd5b8260051b808584379190910190815292915050565b600082516130f48184602087016134ec565b9190910192915050565b7f416363657373436f6e74726f6c3a206163636f756e74200000000000000000008152600083516131368160178501602088016134ec565b7001034b99036b4b9b9b4b733903937b6329607d1b60179184019182015283516131678160288401602088016134ec565b01602801949350505050565b6020808252825182820181905260009190848201906040850190845b818110156131b45783516001600160a01b03168352928401929184019160010161318f565b50909695505050505050565b60208152600082518060208401526131df8160408501602087016134ec565b601f01601f19169190910160400192915050565b6020808252601c908201527f546f6f6d6963733a204e6f74206f7572204e4654206164647265737300000000604082015260600190565b60208082526026908201527f56616c696461746f723a2077726f6e67206e6f6e63652f616c726561647920656040820152651e18dd5d195960d21b606082015260800190565b602080825260169082015275546f6f6d6963733a20496e76616c696420617272617960501b604082015260600190565b60208082526015908201527476616c696461746f7228732920697320656d70747960581b604082015260600190565b6020808252602b908201527f496e697469616c697a61626c653a20636f6e7472616374206973206e6f74206960408201526a6e697469616c697a696e6760a81b606082015260800190565b6020808252601d908201527f43616e206e6f74206265207468652073616d65207369676e6174757265000000604082015260600190565b83815260406020820152600061336b604083018486613084565b95945050505050565b84815260606020820152600061338e606083018587613084565b905082604083015295945050505050565b6000808335601e198436030181126133b5578283fd5b83018035915067ffffffffffffffff8211156133cf578283fd5b6020019150368190038213156126c657600080fd5b604051601f8201601f1916810167ffffffffffffffff8111828210171561340d5761340d613560565b604052919050565b600082198211156134285761342861354a565b500190565b60008160001904831182151516156134475761344761354a565b500290565b60008282101561345e5761345e61354a565b500390565b600067ffffffffffffffff8084111561347e5761347e613560565b8360051b602061348f8183016133e4565b86815281810190863685820111156134a5578687fd5b8694505b888510156134e0578035868111156134bf578788fd5b6134cb36828b01612b96565b845250600194909401939183019183016134a9565b50979650505050505050565b60005b838110156135075781810151838201526020016134ef565b83811115611e2f5750506000910152565b6000816135275761352761354a565b506000190190565b60006000198214156135435761354361354a565b5060010190565b634e487b7160e01b600052601160045260246000fd5b634e487b7160e01b600052604160045260246000fd5b6001600160a01b0381168114611f1f57600080fdfea2646970667358221220be78eb436349547987c8455e6e445536d93f1a3502b7977b05931893a631485c64736f6c63430008040033",
  "linkReferences": {},
  "deployedLinkReferences": {}
}